{
  "contractName": "ZombieFeeding",
  "abi": [
    {
      "anonymous": false,
      "inputs": [
        {
          "indexed": false,
          "internalType": "uint256",
          "name": "zombieId",
          "type": "uint256"
        },
        {
          "indexed": false,
          "internalType": "string",
          "name": "name",
          "type": "string"
        },
        {
          "indexed": false,
          "internalType": "uint256",
          "name": "dna",
          "type": "uint256"
        }
      ],
      "name": "NewZombie",
      "type": "event"
    },
    {
      "anonymous": false,
      "inputs": [
        {
          "indexed": true,
          "internalType": "address",
          "name": "previousOwner",
          "type": "address"
        },
        {
          "indexed": true,
          "internalType": "address",
          "name": "newOwner",
          "type": "address"
        }
      ],
      "name": "OwnershipTransferred",
      "type": "event"
    },
    {
      "inputs": [
        {
          "internalType": "string",
          "name": "_name",
          "type": "string"
        }
      ],
      "name": "buyZombie",
      "outputs": [],
      "stateMutability": "payable",
      "type": "function"
    },
    {
      "inputs": [
        {
          "internalType": "uint256",
          "name": "_zombieId",
          "type": "uint256"
        },
        {
          "internalType": "string",
          "name": "_newName",
          "type": "string"
        }
      ],
      "name": "changeName",
      "outputs": [],
      "stateMutability": "nonpayable",
      "type": "function"
    },
    {
      "inputs": [],
      "name": "cooldownTime",
      "outputs": [
        {
          "internalType": "uint256",
          "name": "",
          "type": "uint256"
        }
      ],
      "stateMutability": "view",
      "type": "function"
    },
    {
      "inputs": [
        {
          "internalType": "string",
          "name": "_name",
          "type": "string"
        }
      ],
      "name": "createZombie",
      "outputs": [],
      "stateMutability": "nonpayable",
      "type": "function"
    },
    {
      "inputs": [
        {
          "internalType": "address",
          "name": "_owner",
          "type": "address"
        }
      ],
      "name": "getZombiesByOwner",
      "outputs": [
        {
          "internalType": "uint256[]",
          "name": "",
          "type": "uint256[]"
        }
      ],
      "stateMutability": "view",
      "type": "function"
    },
    {
      "inputs": [
        {
          "internalType": "uint256",
          "name": "_zombieId",
          "type": "uint256"
        }
      ],
      "name": "levelUp",
      "outputs": [],
      "stateMutability": "payable",
      "type": "function"
    },
    {
      "inputs": [],
      "name": "levelUpFee",
      "outputs": [
        {
          "internalType": "uint256",
          "name": "",
          "type": "uint256"
        }
      ],
      "stateMutability": "view",
      "type": "function"
    },
    {
      "inputs": [],
      "name": "owner",
      "outputs": [
        {
          "internalType": "address payable",
          "name": "",
          "type": "address"
        }
      ],
      "stateMutability": "view",
      "type": "function"
    },
    {
      "inputs": [
        {
          "internalType": "uint256",
          "name": "_fee",
          "type": "uint256"
        }
      ],
      "name": "setLevelUpFee",
      "outputs": [],
      "stateMutability": "nonpayable",
      "type": "function"
    },
    {
      "inputs": [
        {
          "internalType": "uint256",
          "name": "_price",
          "type": "uint256"
        }
      ],
      "name": "setZombiePrice",
      "outputs": [],
      "stateMutability": "nonpayable",
      "type": "function"
    },
    {
      "inputs": [
        {
          "internalType": "address payable",
          "name": "newOwner",
          "type": "address"
        }
      ],
      "name": "transferOwnership",
      "outputs": [],
      "stateMutability": "nonpayable",
      "type": "function"
    },
    {
      "inputs": [],
      "name": "zombieCount",
      "outputs": [
        {
          "internalType": "uint256",
          "name": "",
          "type": "uint256"
        }
      ],
      "stateMutability": "view",
      "type": "function"
    },
    {
      "inputs": [
        {
          "internalType": "uint256",
          "name": "",
          "type": "uint256"
        }
      ],
      "name": "zombieFeedTimes",
      "outputs": [
        {
          "internalType": "uint256",
          "name": "",
          "type": "uint256"
        }
      ],
      "stateMutability": "view",
      "type": "function"
    },
    {
      "inputs": [],
      "name": "zombiePrice",
      "outputs": [
        {
          "internalType": "uint256",
          "name": "",
          "type": "uint256"
        }
      ],
      "stateMutability": "view",
      "type": "function"
    },
    {
      "inputs": [
        {
          "internalType": "uint256",
          "name": "",
          "type": "uint256"
        }
      ],
      "name": "zombieToOwner",
      "outputs": [
        {
          "internalType": "address",
          "name": "",
          "type": "address"
        }
      ],
      "stateMutability": "view",
      "type": "function"
    },
    {
      "inputs": [
        {
          "internalType": "uint256",
          "name": "",
          "type": "uint256"
        }
      ],
      "name": "zombies",
      "outputs": [
        {
          "internalType": "string",
          "name": "name",
          "type": "string"
        },
        {
          "internalType": "uint256",
          "name": "dna",
          "type": "uint256"
        },
        {
          "internalType": "uint16",
          "name": "winCount",
          "type": "uint16"
        },
        {
          "internalType": "uint16",
          "name": "lossCount",
          "type": "uint16"
        },
        {
          "internalType": "uint32",
          "name": "level",
          "type": "uint32"
        },
        {
          "internalType": "uint32",
          "name": "readyTime",
          "type": "uint32"
        }
      ],
      "stateMutability": "view",
      "type": "function"
    },
    {
      "inputs": [
        {
          "internalType": "uint256",
          "name": "_zombieId",
          "type": "uint256"
        }
      ],
      "name": "feed",
      "outputs": [],
      "stateMutability": "nonpayable",
      "type": "function"
    }
  ],
  "bytecode": "0x60806040526010600155600154600a6200001a9190620000ee565b60025562015180600355662386f26fc10000600455600060055566038d7ea4c68000600a553480156200004c57600080fd5b50336000806101000a81548173ffffffffffffffffffffffffffffffffffffffff021916908373ffffffffffffffffffffffffffffffffffffffff16021790555062000271565b6000808291508390505b6001851115620000e557808604811115620000bd57620000bc62000235565b5b6001851615620000cd5780820291505b8081029050620000dd8562000264565b94506200009d565b94509492505050565b6000620000fb826200022b565b915062000108836200022b565b9250620001377fffffffffffffffffffffffffffffffffffffffffffffffffffffffffffffffff84846200013f565b905092915050565b60008262000151576001905062000224565b8162000161576000905062000224565b81600181146200017a57600281146200018557620001bb565b600191505062000224565b60ff8411156200019a576200019962000235565b5b8360020a915084821115620001b457620001b362000235565b5b5062000224565b5060208310610133831016604e8410600b8410161715620001f55782820a905083811115620001ef57620001ee62000235565b5b62000224565b62000204848484600162000093565b925090508184048111156200021e576200021d62000235565b5b81810290505b9392505050565b6000819050919050565b7f4e487b7100000000000000000000000000000000000000000000000000000000600052601160045260246000fd5b60008160011c9050919050565b611fc680620002816000396000f3fe6080604052600436106100fe5760003560e01c8063b319c6b711610095578063ccf670f811610064578063ccf670f814610320578063d521ef4314610349578063ef6ad18b14610372578063f2fde38b146103af578063f59dfdfb146103d8576100fe565b8063b319c6b714610285578063b3f0ddb9146102b0578063c39cbef1146102cc578063c4114b12146102f5576100fe565b806363721d6b116100d157806363721d6b146101db57806383d404d8146102065780638da5cb5b14610231578063ad8227781461025c576100fe565b80630ce90ec2146101035780632052465e1461011f5780634412e10414610161578063528b7b8f1461019e575b600080fd5b61011d60048036038101906101189190611685565b610401565b005b34801561012b57600080fd5b5061014660048036038101906101419190611685565b610575565b60405161015896959493929190611963565b60405180910390f35b34801561016d57600080fd5b50610188600480360381019061018391906115f2565b610685565b6040516101959190611941565b60405180910390f35b3480156101aa57600080fd5b506101c560048036038101906101c09190611685565b610824565b6040516101d2919061190b565b60405180910390f35b3480156101e757600080fd5b506101f0610857565b6040516101fd9190611a4b565b60405180910390f35b34801561021257600080fd5b5061021b61085d565b6040516102289190611a4b565b60405180910390f35b34801561023d57600080fd5b50610246610863565b6040516102539190611926565b60405180910390f35b34801561026857600080fd5b50610283600480360381019061027e9190611644565b610887565b005b34801561029157600080fd5b5061029a610908565b6040516102a79190611a4b565b60405180910390f35b6102ca60048036038101906102c59190611644565b61090e565b005b3480156102d857600080fd5b506102f360048036038101906102ee91906116ae565b6109aa565b005b34801561030157600080fd5b5061030a610b56565b6040516103179190611a4b565b60405180910390f35b34801561032c57600080fd5b5061034760048036038101906103429190611685565b610b5c565b005b34801561035557600080fd5b50610370600480360381019061036b9190611685565b610bf4565b005b34801561037e57600080fd5b5061039960048036038101906103949190611685565b610c8c565b6040516103a69190611a4b565b60405180910390f35b3480156103bb57600080fd5b506103d660048036038101906103d1919061161b565b610ca4565b005b3480156103e457600080fd5b506103ff60048036038101906103fa9190611685565b610e5f565b005b806007600082815260200190815260200160002060009054906101000a900473ffffffffffffffffffffffffffffffffffffffff1673ffffffffffffffffffffffffffffffffffffffff163373ffffffffffffffffffffffffffffffffffffffff16146104a3576040517f08c379a000000000000000000000000000000000000000000000000000000000815260040161049a906119cb565b60405180910390fd5b600a5434146104e7576040517f08c379a00000000000000000000000000000000000000000000000000000000081526004016104de90611a0b565b60405180910390fd5b60068281548110610521577f4e487b7100000000000000000000000000000000000000000000000000000000600052603260045260246000fd5b9060005260206000209060030201600201600481819054906101000a900463ffffffff168092919061055290611d72565b91906101000a81548163ffffffff021916908363ffffffff160217905550505050565b6006818154811061058557600080fd5b90600052602060002090600302016000915090508060000180546105a890611cc6565b80601f01602080910402602001604051908101604052809291908181526020018280546105d490611cc6565b80156106215780601f106105f657610100808354040283529160200191610621565b820191906000526020600020905b81548152906001019060200180831161060457829003601f168201915b5050505050908060010154908060020160009054906101000a900461ffff16908060020160029054906101000a900461ffff16908060020160049054906101000a900463ffffffff16908060020160089054906101000a900463ffffffff16905086565b60606000600860008473ffffffffffffffffffffffffffffffffffffffff1673ffffffffffffffffffffffffffffffffffffffff1681526020019081526020016000205467ffffffffffffffff811115610708577f4e487b7100000000000000000000000000000000000000000000000000000000600052604160045260246000fd5b6040519080825280602002602001820160405280156107365781602001602082028036833780820191505090505b5090506000805b600680549050811015610819578473ffffffffffffffffffffffffffffffffffffffff166007600083815260200190815260200160002060009054906101000a900473ffffffffffffffffffffffffffffffffffffffff1673ffffffffffffffffffffffffffffffffffffffff16141561080657808383815181106107eb577f4e487b7100000000000000000000000000000000000000000000000000000000600052603260045260246000fd5b602002602001018181525050818061080290611d29565b9250505b808061081190611d29565b91505061073d565b508192505050919050565b60076020528060005260406000206000915054906101000a900473ffffffffffffffffffffffffffffffffffffffff1681565b60055481565b60045481565b60008054906101000a900473ffffffffffffffffffffffffffffffffffffffff1681565b6000600860003373ffffffffffffffffffffffffffffffffffffffff1673ffffffffffffffffffffffffffffffffffffffff16815260200190815260200160002054146108d357600080fd5b60006108de8261103d565b9050600a816108ed9190611da9565b816108f89190611bb0565b9050610904828261107f565b5050565b60035481565b6000600860003373ffffffffffffffffffffffffffffffffffffffff1673ffffffffffffffffffffffffffffffffffffffff168152602001908152602001600020541161095a57600080fd5b60045434101561096957600080fd5b60006109748261103d565b90506001600a826109859190611da9565b826109909190611bb0565b61099a9190611b5a565b90506109a6828261107f565b5050565b60028381600682815481106109e8577f4e487b7100000000000000000000000000000000000000000000000000000000600052603260045260246000fd5b906000526020600020906003020160020160049054906101000a900463ffffffff1663ffffffff161015610a51576040517f08c379a0000000000000000000000000000000000000000000000000000000008152600401610a4890611a2b565b60405180910390fd5b846007600082815260200190815260200160002060009054906101000a900473ffffffffffffffffffffffffffffffffffffffff1673ffffffffffffffffffffffffffffffffffffffff163373ffffffffffffffffffffffffffffffffffffffff1614610af3576040517f08c379a0000000000000000000000000000000000000000000000000000000008152600401610aea906119cb565b60405180910390fd5b848460068881548110610b2f577f4e487b7100000000000000000000000000000000000000000000000000000000600052603260045260246000fd5b90600052602060002090600302016000019190610b4d9291906113d8565b50505050505050565b600a5481565b60008054906101000a900473ffffffffffffffffffffffffffffffffffffffff1673ffffffffffffffffffffffffffffffffffffffff163373ffffffffffffffffffffffffffffffffffffffff1614610bea576040517f08c379a0000000000000000000000000000000000000000000000000000000008152600401610be1906119eb565b60405180910390fd5b80600a8190555050565b60008054906101000a900473ffffffffffffffffffffffffffffffffffffffff1673ffffffffffffffffffffffffffffffffffffffff163373ffffffffffffffffffffffffffffffffffffffff1614610c82576040517f08c379a0000000000000000000000000000000000000000000000000000000008152600401610c79906119eb565b60405180910390fd5b8060048190555050565b60096020528060005260406000206000915090505481565b60008054906101000a900473ffffffffffffffffffffffffffffffffffffffff1673ffffffffffffffffffffffffffffffffffffffff163373ffffffffffffffffffffffffffffffffffffffff1614610d32576040517f08c379a0000000000000000000000000000000000000000000000000000000008152600401610d29906119eb565b60405180910390fd5b600073ffffffffffffffffffffffffffffffffffffffff168173ffffffffffffffffffffffffffffffffffffffff161415610da2576040517f08c379a0000000000000000000000000000000000000000000000000000000008152600401610d99906119eb565b60405180910390fd5b8073ffffffffffffffffffffffffffffffffffffffff1660008054906101000a900473ffffffffffffffffffffffffffffffffffffffff1673ffffffffffffffffffffffffffffffffffffffff167f8be0079c531659141344cd1fd0a4f28419497f9722a3daafe3b4186f6b6457e060405160405180910390a3806000806101000a81548173ffffffffffffffffffffffffffffffffffffffff021916908373ffffffffffffffffffffffffffffffffffffffff16021790555050565b806007600082815260200190815260200160002060009054906101000a900473ffffffffffffffffffffffffffffffffffffffff1673ffffffffffffffffffffffffffffffffffffffff163373ffffffffffffffffffffffffffffffffffffffff1614610f01576040517f08c379a0000000000000000000000000000000000000000000000000000000008152600401610ef8906119cb565b60405180910390fd5b600060068381548110610f3d577f4e487b7100000000000000000000000000000000000000000000000000000000600052603260045260246000fd5b90600052602060002090600302019050610f5681611306565b610f5f57600080fd5b60016009600085815260200190815260200160002054610f7f9190611b5a565b6009600085815260200190815260200160002081905550610f9f8161132d565b6000600a6009600086815260200190815260200160002054610fc19190611da9565b14156110385760006008600a8360010154610fdc9190611da9565b8360010154610feb9190611bb0565b610ff59190611b5a565b90506110366040518060400160405280600c81526020017f7a6f6d626965277320736f6e00000000000000000000000000000000000000008152508261107f565b505b505050565b600060025482426040516020016110559291906118e3565b6040516020818303038152906040528051906020012060001c6110789190611da9565b9050919050565b60066040518060c00160405280848152602001838152602001600061ffff168152602001600061ffff168152602001600163ffffffff168152602001600063ffffffff168152509080600181540180825580915050600190039060005260206000209060030201600090919091909150600082015181600001908051906020019061110b92919061145e565b506020820151816001015560408201518160020160006101000a81548161ffff021916908361ffff16021790555060608201518160020160026101000a81548161ffff021916908361ffff16021790555060808201518160020160046101000a81548163ffffffff021916908363ffffffff16021790555060a08201518160020160086101000a81548163ffffffff021916908363ffffffff1602179055505050600060016006805490506111c09190611bb0565b9050336007600083815260200190815260200160002060006101000a81548173ffffffffffffffffffffffffffffffffffffffff021916908373ffffffffffffffffffffffffffffffffffffffff1602179055506112676001600860003373ffffffffffffffffffffffffffffffffffffffff1673ffffffffffffffffffffffffffffffffffffffff1681526020019081526020016000205461138690919063ffffffff16565b600860003373ffffffffffffffffffffffffffffffffffffffff1673ffffffffffffffffffffffffffffffffffffffff168152602001908152602001600020819055506112c0600160055461138690919063ffffffff16565b6005819055507f88f026aacbbecc90c18411df4b1185fd8d9be2470f1962f192bf84a27d0704b78184846040516112f993929190611a66565b60405180910390a1505050565b6000428260020160089054906101000a900463ffffffff1663ffffffff1611159050919050565b620151806003544261133f9190611b5a565b6113499190611da9565b600354426113579190611b5a565b6113619190611be4565b8160020160086101000a81548163ffffffff021916908363ffffffff16021790555050565b60008082846113959190611b5a565b9050838110156113ce577f4e487b7100000000000000000000000000000000000000000000000000000000600052600160045260246000fd5b8091505092915050565b8280546113e490611cc6565b90600052602060002090601f016020900481019282611406576000855561144d565b82601f1061141f57803560ff191683800117855561144d565b8280016001018555821561144d579182015b8281111561144c578235825591602001919060010190611431565b5b50905061145a91906114e4565b5090565b82805461146a90611cc6565b90600052602060002090601f01602090048101928261148c57600085556114d3565b82601f106114a557805160ff19168380011785556114d3565b828001600101855582156114d3579182015b828111156114d25782518255916020019190600101906114b7565b5b5090506114e091906114e4565b5090565b5b808211156114fd5760008160009055506001016114e5565b5090565b600061151461150f84611ac9565b611aa4565b90508281526020810184848401111561152c57600080fd5b611537848285611c84565b509392505050565b60008135905061154e81611f4b565b92915050565b60008135905061156381611f62565b92915050565b60008083601f84011261157b57600080fd5b8235905067ffffffffffffffff81111561159457600080fd5b6020830191508360018202830111156115ac57600080fd5b9250929050565b600082601f8301126115c457600080fd5b81356115d4848260208601611501565b91505092915050565b6000813590506115ec81611f79565b92915050565b60006020828403121561160457600080fd5b60006116128482850161153f565b91505092915050565b60006020828403121561162d57600080fd5b600061163b84828501611554565b91505092915050565b60006020828403121561165657600080fd5b600082013567ffffffffffffffff81111561167057600080fd5b61167c848285016115b3565b91505092915050565b60006020828403121561169757600080fd5b60006116a5848285016115dd565b91505092915050565b6000806000604084860312156116c357600080fd5b60006116d1868287016115dd565b935050602084013567ffffffffffffffff8111156116ee57600080fd5b6116fa86828701611569565b92509250509250925092565b6000611712838361189f565b60208301905092915050565b61172781611c2a565b82525050565b61173681611c18565b82525050565b600061174782611b0a565b6117518185611b2d565b935061175c83611afa565b8060005b8381101561178d5781516117748882611706565b975061177f83611b20565b925050600181019050611760565b5085935050505092915050565b60006117a582611b15565b6117af8185611b3e565b93506117bf818560208601611c93565b6117c881611e96565b840191505092915050565b60006117de82611b15565b6117e88185611b4f565b93506117f8818560208601611c93565b80840191505092915050565b6000611811601383611b3e565b915061181c82611ea7565b602082019050919050565b6000611834601383611b3e565b915061183f82611ed0565b602082019050919050565b6000611857600f83611b3e565b915061186282611ef9565b602082019050919050565b600061187a601783611b3e565b915061188582611f22565b602082019050919050565b61189981611c3c565b82525050565b6118a881611c6a565b82525050565b6118b781611c6a565b82525050565b6118ce6118c982611c6a565b611d9f565b82525050565b6118dd81611c74565b82525050565b60006118ef82856117d3565b91506118fb82846118bd565b6020820191508190509392505050565b6000602082019050611920600083018461172d565b92915050565b600060208201905061193b600083018461171e565b92915050565b6000602082019050818103600083015261195b818461173c565b905092915050565b600060c082019050818103600083015261197d818961179a565b905061198c60208301886118ae565b6119996040830187611890565b6119a66060830186611890565b6119b360808301856118d4565b6119c060a08301846118d4565b979650505050505050565b600060208201905081810360008301526119e481611804565b9050919050565b60006020820190508181036000830152611a0481611827565b9050919050565b60006020820190508181036000830152611a248161184a565b9050919050565b60006020820190508181036000830152611a448161186d565b9050919050565b6000602082019050611a6060008301846118ae565b92915050565b6000606082019050611a7b60008301866118ae565b8181036020830152611a8d818561179a565b9050611a9c60408301846118ae565b949350505050565b6000611aae611abf565b9050611aba8282611cf8565b919050565b6000604051905090565b600067ffffffffffffffff821115611ae457611ae3611e67565b5b611aed82611e96565b9050602081019050919050565b6000819050602082019050919050565b600081519050919050565b600081519050919050565b6000602082019050919050565b600082825260208201905092915050565b600082825260208201905092915050565b600081905092915050565b6000611b6582611c6a565b9150611b7083611c6a565b9250827fffffffffffffffffffffffffffffffffffffffffffffffffffffffffffffffff03821115611ba557611ba4611dda565b5b828201905092915050565b6000611bbb82611c6a565b9150611bc683611c6a565b925082821015611bd957611bd8611dda565b5b828203905092915050565b6000611bef82611c74565b9150611bfa83611c74565b925082821015611c0d57611c0c611dda565b5b828203905092915050565b6000611c2382611c4a565b9050919050565b6000611c3582611c4a565b9050919050565b600061ffff82169050919050565b600073ffffffffffffffffffffffffffffffffffffffff82169050919050565b6000819050919050565b600063ffffffff82169050919050565b82818337600083830152505050565b60005b83811015611cb1578082015181840152602081019050611c96565b83811115611cc0576000848401525b50505050565b60006002820490506001821680611cde57607f821691505b60208210811415611cf257611cf1611e38565b5b50919050565b611d0182611e96565b810181811067ffffffffffffffff82111715611d2057611d1f611e67565b5b80604052505050565b6000611d3482611c6a565b91507fffffffffffffffffffffffffffffffffffffffffffffffffffffffffffffffff821415611d6757611d66611dda565b5b600182019050919050565b6000611d7d82611c74565b915063ffffffff821415611d9457611d93611dda565b5b600182019050919050565b6000819050919050565b6000611db482611c6a565b9150611dbf83611c6a565b925082611dcf57611dce611e09565b5b828206905092915050565b7f4e487b7100000000000000000000000000000000000000000000000000000000600052601160045260246000fd5b7f4e487b7100000000000000000000000000000000000000000000000000000000600052601260045260246000fd5b7f4e487b7100000000000000000000000000000000000000000000000000000000600052602260045260246000fd5b7f4e487b7100000000000000000000000000000000000000000000000000000000600052604160045260246000fd5b6000601f19601f8301169050919050565b7f5a6f6d626965206973206e6f7420796f75727300000000000000000000000000600082015250565b7f4d75737420636f6e7472616374206f776e657200000000000000000000000000600082015250565b7f4e6f20656e6f756768206d6f6e65790000000000000000000000000000000000600082015250565b7f4c6576656c206973206e6f742073756666696369656e74000000000000000000600082015250565b611f5481611c18565b8114611f5f57600080fd5b50565b611f6b81611c2a565b8114611f7657600080fd5b50565b611f8281611c6a565b8114611f8d57600080fd5b5056fea264697066735822122019006fd45d5b5a5c673cb46883a258110c1115864d77ff405076fb0edb512ec164736f6c63430008040033",
  "immutableReferences": {},
  "source": "// SPDX-License-Identifier: GPL-3.0\r\npragma solidity >=0.7.0 <0.9.0;\r\n\r\nimport \"./zombieHelper.sol\";\r\n\r\ncontract ZombieFeeding is ZombieHelper {\r\n\r\n  function feed(uint _zombieId) public onlyOwnerOf(_zombieId){\r\n    Zombie storage myZombie = zombies[_zombieId];\r\n    require(_isReady(myZombie));\r\n    zombieFeedTimes[_zombieId] = zombieFeedTimes[_zombieId] + 1;\r\n    _triggerCooldown(myZombie);\r\n    if(zombieFeedTimes[_zombieId] % 10 == 0){\r\n        uint newDna = myZombie.dna - myZombie.dna % 10 + 8;\r\n        _createZombie(\"zombie's son\", newDna);\r\n    }\r\n  }\r\n}\r\n",
  "sourcePath": "E:/erc20-contract/truffle_proj/contracts/zombieFeeding.sol",
  "compiler": {
    "name": "solc",
    "version": "0.8.4+commit.c7e474f2.Emscripten.clang"
  },
  "schemaVersion": "3.4.1",
  "updatedAt": "2021-07-01T07:07:49.920Z",
  "devdoc": {
    "kind": "dev",
    "methods": {
      "transferOwnership(address)": {
        "details": "Allows the current owner to transfer control of the contract to a newOwner.",
        "params": {
          "newOwner": "The address to transfer ownership to."
        }
      }
    },
    "version": 1
  },
  "userdoc": {
    "kind": "user",
    "methods": {},
    "version": 1
  }
}