{
  "contractName": "ZombieHelper",
  "abi": [
    {
      "anonymous": false,
      "inputs": [
        {
          "indexed": false,
          "internalType": "uint256",
          "name": "zombieId",
          "type": "uint256"
        },
        {
          "indexed": false,
          "internalType": "string",
          "name": "name",
          "type": "string"
        },
        {
          "indexed": false,
          "internalType": "uint256",
          "name": "dna",
          "type": "uint256"
        }
      ],
      "name": "NewZombie",
      "type": "event"
    },
    {
      "anonymous": false,
      "inputs": [
        {
          "indexed": true,
          "internalType": "address",
          "name": "previousOwner",
          "type": "address"
        },
        {
          "indexed": true,
          "internalType": "address",
          "name": "newOwner",
          "type": "address"
        }
      ],
      "name": "OwnershipTransferred",
      "type": "event"
    },
    {
      "inputs": [
        {
          "internalType": "string",
          "name": "_name",
          "type": "string"
        }
      ],
      "name": "buyZombie",
      "outputs": [],
      "stateMutability": "payable",
      "type": "function"
    },
    {
      "inputs": [],
      "name": "cooldownTime",
      "outputs": [
        {
          "internalType": "uint256",
          "name": "",
          "type": "uint256"
        }
      ],
      "stateMutability": "view",
      "type": "function"
    },
    {
      "inputs": [
        {
          "internalType": "string",
          "name": "_name",
          "type": "string"
        }
      ],
      "name": "createZombie",
      "outputs": [],
      "stateMutability": "nonpayable",
      "type": "function"
    },
    {
      "inputs": [],
      "name": "levelUpFee",
      "outputs": [
        {
          "internalType": "uint256",
          "name": "",
          "type": "uint256"
        }
      ],
      "stateMutability": "view",
      "type": "function"
    },
    {
      "inputs": [],
      "name": "owner",
      "outputs": [
        {
          "internalType": "address payable",
          "name": "",
          "type": "address"
        }
      ],
      "stateMutability": "view",
      "type": "function"
    },
    {
      "inputs": [
        {
          "internalType": "uint256",
          "name": "_price",
          "type": "uint256"
        }
      ],
      "name": "setZombiePrice",
      "outputs": [],
      "stateMutability": "nonpayable",
      "type": "function"
    },
    {
      "inputs": [
        {
          "internalType": "address payable",
          "name": "newOwner",
          "type": "address"
        }
      ],
      "name": "transferOwnership",
      "outputs": [],
      "stateMutability": "nonpayable",
      "type": "function"
    },
    {
      "inputs": [],
      "name": "zombieCount",
      "outputs": [
        {
          "internalType": "uint256",
          "name": "",
          "type": "uint256"
        }
      ],
      "stateMutability": "view",
      "type": "function"
    },
    {
      "inputs": [
        {
          "internalType": "uint256",
          "name": "",
          "type": "uint256"
        }
      ],
      "name": "zombieFeedTimes",
      "outputs": [
        {
          "internalType": "uint256",
          "name": "",
          "type": "uint256"
        }
      ],
      "stateMutability": "view",
      "type": "function"
    },
    {
      "inputs": [],
      "name": "zombiePrice",
      "outputs": [
        {
          "internalType": "uint256",
          "name": "",
          "type": "uint256"
        }
      ],
      "stateMutability": "view",
      "type": "function"
    },
    {
      "inputs": [
        {
          "internalType": "uint256",
          "name": "",
          "type": "uint256"
        }
      ],
      "name": "zombieToOwner",
      "outputs": [
        {
          "internalType": "address",
          "name": "",
          "type": "address"
        }
      ],
      "stateMutability": "view",
      "type": "function"
    },
    {
      "inputs": [
        {
          "internalType": "uint256",
          "name": "",
          "type": "uint256"
        }
      ],
      "name": "zombies",
      "outputs": [
        {
          "internalType": "string",
          "name": "name",
          "type": "string"
        },
        {
          "internalType": "uint256",
          "name": "dna",
          "type": "uint256"
        },
        {
          "internalType": "uint16",
          "name": "winCount",
          "type": "uint16"
        },
        {
          "internalType": "uint16",
          "name": "lossCount",
          "type": "uint16"
        },
        {
          "internalType": "uint32",
          "name": "level",
          "type": "uint32"
        },
        {
          "internalType": "uint32",
          "name": "readyTime",
          "type": "uint32"
        }
      ],
      "stateMutability": "view",
      "type": "function"
    },
    {
      "inputs": [
        {
          "internalType": "uint256",
          "name": "_fee",
          "type": "uint256"
        }
      ],
      "name": "setLevelUpFee",
      "outputs": [],
      "stateMutability": "nonpayable",
      "type": "function"
    },
    {
      "inputs": [
        {
          "internalType": "uint256",
          "name": "_zombieId",
          "type": "uint256"
        }
      ],
      "name": "levelUp",
      "outputs": [],
      "stateMutability": "payable",
      "type": "function"
    },
    {
      "inputs": [
        {
          "internalType": "uint256",
          "name": "_zombieId",
          "type": "uint256"
        },
        {
          "internalType": "string",
          "name": "_newName",
          "type": "string"
        }
      ],
      "name": "changeName",
      "outputs": [],
      "stateMutability": "nonpayable",
      "type": "function"
    },
    {
      "inputs": [
        {
          "internalType": "address",
          "name": "_owner",
          "type": "address"
        }
      ],
      "name": "getZombiesByOwner",
      "outputs": [
        {
          "internalType": "uint256[]",
          "name": "",
          "type": "uint256[]"
        }
      ],
      "stateMutability": "view",
      "type": "function"
    }
  ],
  "bytecode": "0x60806040526010600155600154600a6200001a9190620000ee565b60025562015180600355662386f26fc10000600455600060055566038d7ea4c68000600a553480156200004c57600080fd5b50336000806101000a81548173ffffffffffffffffffffffffffffffffffffffff021916908373ffffffffffffffffffffffffffffffffffffffff16021790555062000271565b6000808291508390505b6001851115620000e557808604811115620000bd57620000bc62000235565b5b6001851615620000cd5780820291505b8081029050620000dd8562000264565b94506200009d565b94509492505050565b6000620000fb826200022b565b915062000108836200022b565b9250620001377fffffffffffffffffffffffffffffffffffffffffffffffffffffffffffffffff84846200013f565b905092915050565b60008262000151576001905062000224565b8162000161576000905062000224565b81600181146200017a57600281146200018557620001bb565b600191505062000224565b60ff8411156200019a576200019962000235565b5b8360020a915084821115620001b457620001b362000235565b5b5062000224565b5060208310610133831016604e8410600b8410161715620001f55782820a905083811115620001ef57620001ee62000235565b5b62000224565b62000204848484600162000093565b925090508184048111156200021e576200021d62000235565b5b81810290505b9392505050565b6000819050919050565b7f4e487b7100000000000000000000000000000000000000000000000000000000600052601160045260246000fd5b60008160011c9050919050565b611d0080620002816000396000f3fe6080604052600436106100f35760003560e01c8063b319c6b71161008a578063ccf670f811610059578063ccf670f814610315578063d521ef431461033e578063ef6ad18b14610367578063f2fde38b146103a4576100f3565b8063b319c6b71461027a578063b3f0ddb9146102a5578063c39cbef1146102c1578063c4114b12146102ea576100f3565b806363721d6b116100c657806363721d6b146101d057806383d404d8146101fb5780638da5cb5b14610226578063ad82277814610251576100f3565b80630ce90ec2146100f85780632052465e146101145780634412e10414610156578063528b7b8f14610193575b600080fd5b610112600480360381019061010d91906113f3565b6103cd565b005b34801561012057600080fd5b5061013b600480360381019061013691906113f3565b610541565b60405161014d969594939291906116d1565b60405180910390f35b34801561016257600080fd5b5061017d60048036038101906101789190611360565b610651565b60405161018a91906116af565b60405180910390f35b34801561019f57600080fd5b506101ba60048036038101906101b591906113f3565b6107f0565b6040516101c79190611679565b60405180910390f35b3480156101dc57600080fd5b506101e5610823565b6040516101f291906117b9565b60405180910390f35b34801561020757600080fd5b50610210610829565b60405161021d91906117b9565b60405180910390f35b34801561023257600080fd5b5061023b61082f565b6040516102489190611694565b60405180910390f35b34801561025d57600080fd5b50610278600480360381019061027391906113b2565b610853565b005b34801561028657600080fd5b5061028f6108d4565b60405161029c91906117b9565b60405180910390f35b6102bf60048036038101906102ba91906113b2565b6108da565b005b3480156102cd57600080fd5b506102e860048036038101906102e3919061141c565b610976565b005b3480156102f657600080fd5b506102ff610b22565b60405161030c91906117b9565b60405180910390f35b34801561032157600080fd5b5061033c600480360381019061033791906113f3565b610b28565b005b34801561034a57600080fd5b50610365600480360381019061036091906113f3565b610bc0565b005b34801561037357600080fd5b5061038e600480360381019061038991906113f3565b610c58565b60405161039b91906117b9565b60405180910390f35b3480156103b057600080fd5b506103cb60048036038101906103c69190611389565b610c70565b005b806007600082815260200190815260200160002060009054906101000a900473ffffffffffffffffffffffffffffffffffffffff1673ffffffffffffffffffffffffffffffffffffffff163373ffffffffffffffffffffffffffffffffffffffff161461046f576040517f08c379a000000000000000000000000000000000000000000000000000000000815260040161046690611739565b60405180910390fd5b600a5434146104b3576040517f08c379a00000000000000000000000000000000000000000000000000000000081526004016104aa90611779565b60405180910390fd5b600682815481106104ed577f4e487b7100000000000000000000000000000000000000000000000000000000600052603260045260246000fd5b9060005260206000209060030201600201600481819054906101000a900463ffffffff168092919061051e90611aac565b91906101000a81548163ffffffff021916908363ffffffff160217905550505050565b6006818154811061055157600080fd5b906000526020600020906003020160009150905080600001805461057490611a00565b80601f01602080910402602001604051908101604052809291908181526020018280546105a090611a00565b80156105ed5780601f106105c2576101008083540402835291602001916105ed565b820191906000526020600020905b8154815290600101906020018083116105d057829003601f168201915b5050505050908060010154908060020160009054906101000a900461ffff16908060020160029054906101000a900461ffff16908060020160049054906101000a900463ffffffff16908060020160089054906101000a900463ffffffff16905086565b60606000600860008473ffffffffffffffffffffffffffffffffffffffff1673ffffffffffffffffffffffffffffffffffffffff1681526020019081526020016000205467ffffffffffffffff8111156106d4577f4e487b7100000000000000000000000000000000000000000000000000000000600052604160045260246000fd5b6040519080825280602002602001820160405280156107025781602001602082028036833780820191505090505b5090506000805b6006805490508110156107e5578473ffffffffffffffffffffffffffffffffffffffff166007600083815260200190815260200160002060009054906101000a900473ffffffffffffffffffffffffffffffffffffffff1673ffffffffffffffffffffffffffffffffffffffff1614156107d257808383815181106107b7577f4e487b7100000000000000000000000000000000000000000000000000000000600052603260045260246000fd5b60200260200101818152505081806107ce90611a63565b9250505b80806107dd90611a63565b915050610709565b508192505050919050565b60076020528060005260406000206000915054906101000a900473ffffffffffffffffffffffffffffffffffffffff1681565b60055481565b60045481565b60008054906101000a900473ffffffffffffffffffffffffffffffffffffffff1681565b6000600860003373ffffffffffffffffffffffffffffffffffffffff1673ffffffffffffffffffffffffffffffffffffffff168152602001908152602001600020541461089f57600080fd5b60006108aa82610e2b565b9050600a816108b99190611ae3565b816108c4919061191e565b90506108d08282610e6d565b5050565b60035481565b6000600860003373ffffffffffffffffffffffffffffffffffffffff1673ffffffffffffffffffffffffffffffffffffffff168152602001908152602001600020541161092657600080fd5b60045434101561093557600080fd5b600061094082610e2b565b90506001600a826109519190611ae3565b8261095c919061191e565b61096691906118c8565b90506109728282610e6d565b5050565b60028381600682815481106109b4577f4e487b7100000000000000000000000000000000000000000000000000000000600052603260045260246000fd5b906000526020600020906003020160020160049054906101000a900463ffffffff1663ffffffff161015610a1d576040517f08c379a0000000000000000000000000000000000000000000000000000000008152600401610a1490611799565b60405180910390fd5b846007600082815260200190815260200160002060009054906101000a900473ffffffffffffffffffffffffffffffffffffffff1673ffffffffffffffffffffffffffffffffffffffff163373ffffffffffffffffffffffffffffffffffffffff1614610abf576040517f08c379a0000000000000000000000000000000000000000000000000000000008152600401610ab690611739565b60405180910390fd5b848460068881548110610afb577f4e487b7100000000000000000000000000000000000000000000000000000000600052603260045260246000fd5b90600052602060002090600302016000019190610b19929190611146565b50505050505050565b600a5481565b60008054906101000a900473ffffffffffffffffffffffffffffffffffffffff1673ffffffffffffffffffffffffffffffffffffffff163373ffffffffffffffffffffffffffffffffffffffff1614610bb6576040517f08c379a0000000000000000000000000000000000000000000000000000000008152600401610bad90611759565b60405180910390fd5b80600a8190555050565b60008054906101000a900473ffffffffffffffffffffffffffffffffffffffff1673ffffffffffffffffffffffffffffffffffffffff163373ffffffffffffffffffffffffffffffffffffffff1614610c4e576040517f08c379a0000000000000000000000000000000000000000000000000000000008152600401610c4590611759565b60405180910390fd5b8060048190555050565b60096020528060005260406000206000915090505481565b60008054906101000a900473ffffffffffffffffffffffffffffffffffffffff1673ffffffffffffffffffffffffffffffffffffffff163373ffffffffffffffffffffffffffffffffffffffff1614610cfe576040517f08c379a0000000000000000000000000000000000000000000000000000000008152600401610cf590611759565b60405180910390fd5b600073ffffffffffffffffffffffffffffffffffffffff168173ffffffffffffffffffffffffffffffffffffffff161415610d6e576040517f08c379a0000000000000000000000000000000000000000000000000000000008152600401610d6590611759565b60405180910390fd5b8073ffffffffffffffffffffffffffffffffffffffff1660008054906101000a900473ffffffffffffffffffffffffffffffffffffffff1673ffffffffffffffffffffffffffffffffffffffff167f8be0079c531659141344cd1fd0a4f28419497f9722a3daafe3b4186f6b6457e060405160405180910390a3806000806101000a81548173ffffffffffffffffffffffffffffffffffffffff021916908373ffffffffffffffffffffffffffffffffffffffff16021790555050565b60006002548242604051602001610e43929190611651565b6040516020818303038152906040528051906020012060001c610e669190611ae3565b9050919050565b60066040518060c00160405280848152602001838152602001600061ffff168152602001600061ffff168152602001600163ffffffff168152602001600063ffffffff1681525090806001815401808255809150506001900390600052602060002090600302016000909190919091506000820151816000019080519060200190610ef99291906111cc565b506020820151816001015560408201518160020160006101000a81548161ffff021916908361ffff16021790555060608201518160020160026101000a81548161ffff021916908361ffff16021790555060808201518160020160046101000a81548163ffffffff021916908363ffffffff16021790555060a08201518160020160086101000a81548163ffffffff021916908363ffffffff160217905550505060006001600680549050610fae919061191e565b9050336007600083815260200190815260200160002060006101000a81548173ffffffffffffffffffffffffffffffffffffffff021916908373ffffffffffffffffffffffffffffffffffffffff1602179055506110556001600860003373ffffffffffffffffffffffffffffffffffffffff1673ffffffffffffffffffffffffffffffffffffffff168152602001908152602001600020546110f490919063ffffffff16565b600860003373ffffffffffffffffffffffffffffffffffffffff1673ffffffffffffffffffffffffffffffffffffffff168152602001908152602001600020819055506110ae60016005546110f490919063ffffffff16565b6005819055507f88f026aacbbecc90c18411df4b1185fd8d9be2470f1962f192bf84a27d0704b78184846040516110e7939291906117d4565b60405180910390a1505050565b600080828461110391906118c8565b90508381101561113c577f4e487b7100000000000000000000000000000000000000000000000000000000600052600160045260246000fd5b8091505092915050565b82805461115290611a00565b90600052602060002090601f01602090048101928261117457600085556111bb565b82601f1061118d57803560ff19168380011785556111bb565b828001600101855582156111bb579182015b828111156111ba57823582559160200191906001019061119f565b5b5090506111c89190611252565b5090565b8280546111d890611a00565b90600052602060002090601f0160209004810192826111fa5760008555611241565b82601f1061121357805160ff1916838001178555611241565b82800160010185558215611241579182015b82811115611240578251825591602001919060010190611225565b5b50905061124e9190611252565b5090565b5b8082111561126b576000816000905550600101611253565b5090565b600061128261127d84611837565b611812565b90508281526020810184848401111561129a57600080fd5b6112a58482856119be565b509392505050565b6000813590506112bc81611c85565b92915050565b6000813590506112d181611c9c565b92915050565b60008083601f8401126112e957600080fd5b8235905067ffffffffffffffff81111561130257600080fd5b60208301915083600182028301111561131a57600080fd5b9250929050565b600082601f83011261133257600080fd5b813561134284826020860161126f565b91505092915050565b60008135905061135a81611cb3565b92915050565b60006020828403121561137257600080fd5b6000611380848285016112ad565b91505092915050565b60006020828403121561139b57600080fd5b60006113a9848285016112c2565b91505092915050565b6000602082840312156113c457600080fd5b600082013567ffffffffffffffff8111156113de57600080fd5b6113ea84828501611321565b91505092915050565b60006020828403121561140557600080fd5b60006114138482850161134b565b91505092915050565b60008060006040848603121561143157600080fd5b600061143f8682870161134b565b935050602084013567ffffffffffffffff81111561145c57600080fd5b611468868287016112d7565b92509250509250925092565b6000611480838361160d565b60208301905092915050565b61149581611964565b82525050565b6114a481611952565b82525050565b60006114b582611878565b6114bf818561189b565b93506114ca83611868565b8060005b838110156114fb5781516114e28882611474565b97506114ed8361188e565b9250506001810190506114ce565b5085935050505092915050565b600061151382611883565b61151d81856118ac565b935061152d8185602086016119cd565b61153681611bd0565b840191505092915050565b600061154c82611883565b61155681856118bd565b93506115668185602086016119cd565b80840191505092915050565b600061157f6013836118ac565b915061158a82611be1565b602082019050919050565b60006115a26013836118ac565b91506115ad82611c0a565b602082019050919050565b60006115c5600f836118ac565b91506115d082611c33565b602082019050919050565b60006115e86017836118ac565b91506115f382611c5c565b602082019050919050565b61160781611976565b82525050565b611616816119a4565b82525050565b611625816119a4565b82525050565b61163c611637826119a4565b611ad9565b82525050565b61164b816119ae565b82525050565b600061165d8285611541565b9150611669828461162b565b6020820191508190509392505050565b600060208201905061168e600083018461149b565b92915050565b60006020820190506116a9600083018461148c565b92915050565b600060208201905081810360008301526116c981846114aa565b905092915050565b600060c08201905081810360008301526116eb8189611508565b90506116fa602083018861161c565b61170760408301876115fe565b61171460608301866115fe565b6117216080830185611642565b61172e60a0830184611642565b979650505050505050565b6000602082019050818103600083015261175281611572565b9050919050565b6000602082019050818103600083015261177281611595565b9050919050565b60006020820190508181036000830152611792816115b8565b9050919050565b600060208201905081810360008301526117b2816115db565b9050919050565b60006020820190506117ce600083018461161c565b92915050565b60006060820190506117e9600083018661161c565b81810360208301526117fb8185611508565b905061180a604083018461161c565b949350505050565b600061181c61182d565b90506118288282611a32565b919050565b6000604051905090565b600067ffffffffffffffff82111561185257611851611ba1565b5b61185b82611bd0565b9050602081019050919050565b6000819050602082019050919050565b600081519050919050565b600081519050919050565b6000602082019050919050565b600082825260208201905092915050565b600082825260208201905092915050565b600081905092915050565b60006118d3826119a4565b91506118de836119a4565b9250827fffffffffffffffffffffffffffffffffffffffffffffffffffffffffffffffff0382111561191357611912611b14565b5b828201905092915050565b6000611929826119a4565b9150611934836119a4565b92508282101561194757611946611b14565b5b828203905092915050565b600061195d82611984565b9050919050565b600061196f82611984565b9050919050565b600061ffff82169050919050565b600073ffffffffffffffffffffffffffffffffffffffff82169050919050565b6000819050919050565b600063ffffffff82169050919050565b82818337600083830152505050565b60005b838110156119eb5780820151818401526020810190506119d0565b838111156119fa576000848401525b50505050565b60006002820490506001821680611a1857607f821691505b60208210811415611a2c57611a2b611b72565b5b50919050565b611a3b82611bd0565b810181811067ffffffffffffffff82111715611a5a57611a59611ba1565b5b80604052505050565b6000611a6e826119a4565b91507fffffffffffffffffffffffffffffffffffffffffffffffffffffffffffffffff821415611aa157611aa0611b14565b5b600182019050919050565b6000611ab7826119ae565b915063ffffffff821415611ace57611acd611b14565b5b600182019050919050565b6000819050919050565b6000611aee826119a4565b9150611af9836119a4565b925082611b0957611b08611b43565b5b828206905092915050565b7f4e487b7100000000000000000000000000000000000000000000000000000000600052601160045260246000fd5b7f4e487b7100000000000000000000000000000000000000000000000000000000600052601260045260246000fd5b7f4e487b7100000000000000000000000000000000000000000000000000000000600052602260045260246000fd5b7f4e487b7100000000000000000000000000000000000000000000000000000000600052604160045260246000fd5b6000601f19601f8301169050919050565b7f5a6f6d626965206973206e6f7420796f75727300000000000000000000000000600082015250565b7f4d75737420636f6e7472616374206f776e657200000000000000000000000000600082015250565b7f4e6f20656e6f756768206d6f6e65790000000000000000000000000000000000600082015250565b7f4c6576656c206973206e6f742073756666696369656e74000000000000000000600082015250565b611c8e81611952565b8114611c9957600080fd5b50565b611ca581611964565b8114611cb057600080fd5b50565b611cbc816119a4565b8114611cc757600080fd5b5056fea26469706673582212207bcf158efb7f830a75dd68b1b63d72fb5eddb8fdb04e8cd4b1c1d29bb7325ee164736f6c63430008040033",
  "immutableReferences": {},
  "source": "// SPDX-License-Identifier: GPL-3.0\r\npragma solidity >=0.7.0 <0.9.0;\r\n\r\nimport \"./zombieFactory.sol\";\r\n\r\ncontract ZombieHelper is ZombieFactory {\r\n\r\n  uint public levelUpFee = 0.001 ether;\r\n\r\n  modifier aboveLevel(uint _level, uint _zombieId) {\r\n    require(zombies[_zombieId].level >= _level,'Level is not sufficient');\r\n    _;\r\n  }\r\n  modifier onlyOwnerOf(uint _zombieId) {\r\n    require(msg.sender == zombieToOwner[_zombieId],'Zombie is not yours');\r\n    _;\r\n  }\r\n  function setLevelUpFee(uint _fee) external onlyOwner {\r\n    levelUpFee = _fee;\r\n  }\r\n\r\n  function levelUp(uint _zombieId) external payable onlyOwnerOf(_zombieId){\r\n    require(msg.value == levelUpFee,'No enough money');\r\n    zombies[_zombieId].level++;\r\n  }\r\n\r\n  function changeName(uint _zombieId, string calldata _newName) external  aboveLevel(2, _zombieId) onlyOwnerOf(_zombieId) {\r\n    zombies[_zombieId].name = _newName;\r\n  }\r\n\r\n  function getZombiesByOwner(address  _owner) external view returns(uint[] memory) {\r\n    uint[] memory result = new uint[](ownerZombieCount[_owner]);\r\n    uint counter = 0;\r\n    for (uint i = 0; i < zombies.length; i++) {\r\n      if (zombieToOwner[i] == _owner) {\r\n        result[counter] = i;\r\n        counter++;\r\n      }\r\n    }\r\n    return result;\r\n  }\r\n\r\n  function _triggerCooldown(Zombie storage _zombie) internal {\r\n    _zombie.readyTime = uint32(block.timestamp + cooldownTime) - uint32((block.timestamp + cooldownTime) % 1 days);\r\n  }\r\n\r\n  function _isReady(Zombie storage _zombie) internal view returns (bool) {\r\n      return (_zombie.readyTime <= block.timestamp);\r\n  }\r\n\r\n  function multiply(uint _zombieId, uint _targetDna) internal onlyOwnerOf(_zombieId) {\r\n    Zombie storage myZombie = zombies[_zombieId];\r\n    require(_isReady(myZombie),'Zombie is not ready');\r\n    _targetDna = _targetDna % dnaModulus;\r\n    uint newDna = (myZombie.dna + _targetDna) / 2;\r\n    newDna = newDna - newDna % 10 + 9;\r\n    _createZombie(\"NoName\", newDna);\r\n    _triggerCooldown(myZombie);\r\n  }\r\n\r\n\r\n}\r\n",
  "sourcePath": "E:/erc20-contract/truffle_proj/contracts/zombieHelper.sol",
  "compiler": {
    "name": "solc",
    "version": "0.8.4+commit.c7e474f2.Emscripten.clang"
  },
  "schemaVersion": "3.4.1",
  "updatedAt": "2021-07-01T07:08:30.687Z",
  "devdoc": {
    "kind": "dev",
    "methods": {
      "transferOwnership(address)": {
        "details": "Allows the current owner to transfer control of the contract to a newOwner.",
        "params": {
          "newOwner": "The address to transfer ownership to."
        }
      }
    },
    "version": 1
  },
  "userdoc": {
    "kind": "user",
    "methods": {},
    "version": 1
  }
}