{
  "contractName": "ZombieOwnership",
  "abi": [
    {
      "anonymous": false,
      "inputs": [
        {
          "indexed": true,
          "internalType": "address",
          "name": "_owner",
          "type": "address"
        },
        {
          "indexed": true,
          "internalType": "address",
          "name": "_approved",
          "type": "address"
        },
        {
          "indexed": false,
          "internalType": "uint256",
          "name": "_tokenId",
          "type": "uint256"
        }
      ],
      "name": "Approval",
      "type": "event"
    },
    {
      "anonymous": false,
      "inputs": [
        {
          "indexed": false,
          "internalType": "uint256",
          "name": "zombieId",
          "type": "uint256"
        },
        {
          "indexed": false,
          "internalType": "string",
          "name": "name",
          "type": "string"
        },
        {
          "indexed": false,
          "internalType": "uint256",
          "name": "dna",
          "type": "uint256"
        }
      ],
      "name": "NewZombie",
      "type": "event"
    },
    {
      "anonymous": false,
      "inputs": [
        {
          "indexed": true,
          "internalType": "address",
          "name": "previousOwner",
          "type": "address"
        },
        {
          "indexed": true,
          "internalType": "address",
          "name": "newOwner",
          "type": "address"
        }
      ],
      "name": "OwnershipTransferred",
      "type": "event"
    },
    {
      "anonymous": false,
      "inputs": [
        {
          "indexed": true,
          "internalType": "address",
          "name": "_from",
          "type": "address"
        },
        {
          "indexed": true,
          "internalType": "address",
          "name": "_to",
          "type": "address"
        },
        {
          "indexed": false,
          "internalType": "uint256",
          "name": "_tokenId",
          "type": "uint256"
        }
      ],
      "name": "Transfer",
      "type": "event"
    },
    {
      "inputs": [
        {
          "internalType": "string",
          "name": "_name",
          "type": "string"
        }
      ],
      "name": "buyZombie",
      "outputs": [],
      "stateMutability": "payable",
      "type": "function"
    },
    {
      "inputs": [
        {
          "internalType": "uint256",
          "name": "_zombieId",
          "type": "uint256"
        },
        {
          "internalType": "string",
          "name": "_newName",
          "type": "string"
        }
      ],
      "name": "changeName",
      "outputs": [],
      "stateMutability": "nonpayable",
      "type": "function"
    },
    {
      "inputs": [],
      "name": "cooldownTime",
      "outputs": [
        {
          "internalType": "uint256",
          "name": "",
          "type": "uint256"
        }
      ],
      "stateMutability": "view",
      "type": "function"
    },
    {
      "inputs": [
        {
          "internalType": "string",
          "name": "_name",
          "type": "string"
        }
      ],
      "name": "createZombie",
      "outputs": [],
      "stateMutability": "nonpayable",
      "type": "function"
    },
    {
      "inputs": [
        {
          "internalType": "address",
          "name": "_owner",
          "type": "address"
        }
      ],
      "name": "getZombiesByOwner",
      "outputs": [
        {
          "internalType": "uint256[]",
          "name": "",
          "type": "uint256[]"
        }
      ],
      "stateMutability": "view",
      "type": "function"
    },
    {
      "inputs": [
        {
          "internalType": "uint256",
          "name": "_zombieId",
          "type": "uint256"
        }
      ],
      "name": "levelUp",
      "outputs": [],
      "stateMutability": "payable",
      "type": "function"
    },
    {
      "inputs": [],
      "name": "levelUpFee",
      "outputs": [
        {
          "internalType": "uint256",
          "name": "",
          "type": "uint256"
        }
      ],
      "stateMutability": "view",
      "type": "function"
    },
    {
      "inputs": [],
      "name": "owner",
      "outputs": [
        {
          "internalType": "address payable",
          "name": "",
          "type": "address"
        }
      ],
      "stateMutability": "view",
      "type": "function"
    },
    {
      "inputs": [
        {
          "internalType": "uint256",
          "name": "_fee",
          "type": "uint256"
        }
      ],
      "name": "setLevelUpFee",
      "outputs": [],
      "stateMutability": "nonpayable",
      "type": "function"
    },
    {
      "inputs": [
        {
          "internalType": "uint256",
          "name": "_price",
          "type": "uint256"
        }
      ],
      "name": "setZombiePrice",
      "outputs": [],
      "stateMutability": "nonpayable",
      "type": "function"
    },
    {
      "inputs": [
        {
          "internalType": "address payable",
          "name": "newOwner",
          "type": "address"
        }
      ],
      "name": "transferOwnership",
      "outputs": [],
      "stateMutability": "nonpayable",
      "type": "function"
    },
    {
      "inputs": [],
      "name": "zombieCount",
      "outputs": [
        {
          "internalType": "uint256",
          "name": "",
          "type": "uint256"
        }
      ],
      "stateMutability": "view",
      "type": "function"
    },
    {
      "inputs": [
        {
          "internalType": "uint256",
          "name": "",
          "type": "uint256"
        }
      ],
      "name": "zombieFeedTimes",
      "outputs": [
        {
          "internalType": "uint256",
          "name": "",
          "type": "uint256"
        }
      ],
      "stateMutability": "view",
      "type": "function"
    },
    {
      "inputs": [],
      "name": "zombiePrice",
      "outputs": [
        {
          "internalType": "uint256",
          "name": "",
          "type": "uint256"
        }
      ],
      "stateMutability": "view",
      "type": "function"
    },
    {
      "inputs": [
        {
          "internalType": "uint256",
          "name": "",
          "type": "uint256"
        }
      ],
      "name": "zombieToOwner",
      "outputs": [
        {
          "internalType": "address",
          "name": "",
          "type": "address"
        }
      ],
      "stateMutability": "view",
      "type": "function"
    },
    {
      "inputs": [
        {
          "internalType": "uint256",
          "name": "",
          "type": "uint256"
        }
      ],
      "name": "zombies",
      "outputs": [
        {
          "internalType": "string",
          "name": "name",
          "type": "string"
        },
        {
          "internalType": "uint256",
          "name": "dna",
          "type": "uint256"
        },
        {
          "internalType": "uint16",
          "name": "winCount",
          "type": "uint16"
        },
        {
          "internalType": "uint16",
          "name": "lossCount",
          "type": "uint16"
        },
        {
          "internalType": "uint32",
          "name": "level",
          "type": "uint32"
        },
        {
          "internalType": "uint32",
          "name": "readyTime",
          "type": "uint32"
        }
      ],
      "stateMutability": "view",
      "type": "function"
    },
    {
      "inputs": [
        {
          "internalType": "address",
          "name": "_owner",
          "type": "address"
        }
      ],
      "name": "balanceOf",
      "outputs": [
        {
          "internalType": "uint256",
          "name": "_balance",
          "type": "uint256"
        }
      ],
      "stateMutability": "view",
      "type": "function"
    },
    {
      "inputs": [
        {
          "internalType": "uint256",
          "name": "_tokenId",
          "type": "uint256"
        }
      ],
      "name": "ownerOf",
      "outputs": [
        {
          "internalType": "address",
          "name": "_owner",
          "type": "address"
        }
      ],
      "stateMutability": "view",
      "type": "function"
    },
    {
      "inputs": [
        {
          "internalType": "address",
          "name": "_to",
          "type": "address"
        },
        {
          "internalType": "uint256",
          "name": "_tokenId",
          "type": "uint256"
        }
      ],
      "name": "transfer",
      "outputs": [],
      "stateMutability": "nonpayable",
      "type": "function"
    },
    {
      "inputs": [
        {
          "internalType": "address",
          "name": "_to",
          "type": "address"
        },
        {
          "internalType": "uint256",
          "name": "_tokenId",
          "type": "uint256"
        }
      ],
      "name": "approve",
      "outputs": [],
      "stateMutability": "nonpayable",
      "type": "function"
    },
    {
      "inputs": [
        {
          "internalType": "uint256",
          "name": "_tokenId",
          "type": "uint256"
        }
      ],
      "name": "takeOwnership",
      "outputs": [],
      "stateMutability": "nonpayable",
      "type": "function"
    }
  ],
  "bytecode": "0x60806040526010600155600154600a6200001a9190620000ee565b60025562015180600355662386f26fc10000600455600060055566038d7ea4c68000600a553480156200004c57600080fd5b50336000806101000a81548173ffffffffffffffffffffffffffffffffffffffff021916908373ffffffffffffffffffffffffffffffffffffffff16021790555062000271565b6000808291508390505b6001851115620000e557808604811115620000bd57620000bc62000235565b5b6001851615620000cd5780820291505b8081029050620000dd8562000264565b94506200009d565b94509492505050565b6000620000fb826200022b565b915062000108836200022b565b9250620001377fffffffffffffffffffffffffffffffffffffffffffffffffffffffffffffffff84846200013f565b905092915050565b60008262000151576001905062000224565b8162000161576000905062000224565b81600181146200017a57600281146200018557620001bb565b600191505062000224565b60ff8411156200019a576200019962000235565b5b8360020a915084821115620001b457620001b362000235565b5b5062000224565b5060208310610133831016604e8410600b8410161715620001f55782820a905083811115620001ef57620001ee62000235565b5b62000224565b62000204848484600162000093565b925090508184048111156200021e576200021d62000235565b5b81810290505b9392505050565b6000819050919050565b7f4e487b7100000000000000000000000000000000000000000000000000000000600052601160045260246000fd5b60008160011c9050919050565b61235f80620002816000396000f3fe60806040526004361061012a5760003560e01c8063a9059cbb116100ab578063c39cbef11161006f578063c39cbef1146103ed578063c4114b1214610416578063ccf670f814610441578063d521ef431461046a578063ef6ad18b14610493578063f2fde38b146104d05761012a565b8063a9059cbb1461032b578063ad82277814610354578063b2e6ceeb1461037d578063b319c6b7146103a6578063b3f0ddb9146103d15761012a565b80636352211e116100f25780636352211e1461023057806363721d6b1461026d57806370a082311461029857806383d404d8146102d55780638da5cb5b146103005761012a565b8063095ea7b31461012f5780630ce90ec2146101585780632052465e146101745780634412e104146101b6578063528b7b8f146101f3575b600080fd5b34801561013b57600080fd5b50610156600480360381019061015191906119d5565b6104f9565b005b610172600480360381019061016d9190611a52565b610657565b005b34801561018057600080fd5b5061019b60048036038101906101969190611a52565b6107cb565b6040516101ad96959493929190611d30565b60405180910390f35b3480156101c257600080fd5b506101dd60048036038101906101d89190611983565b6108db565b6040516101ea9190611d0e565b60405180910390f35b3480156101ff57600080fd5b5061021a60048036038101906102159190611a52565b610a7a565b6040516102279190611cd8565b60405180910390f35b34801561023c57600080fd5b5061025760048036038101906102529190611a52565b610aad565b6040516102649190611cd8565b60405180910390f35b34801561027957600080fd5b50610282610aea565b60405161028f9190611e18565b60405180910390f35b3480156102a457600080fd5b506102bf60048036038101906102ba9190611983565b610af0565b6040516102cc9190611e18565b60405180910390f35b3480156102e157600080fd5b506102ea610b39565b6040516102f79190611e18565b60405180910390f35b34801561030c57600080fd5b50610315610b3f565b6040516103229190611cf3565b60405180910390f35b34801561033757600080fd5b50610352600480360381019061034d91906119d5565b610b63565b005b34801561036057600080fd5b5061037b60048036038101906103769190611a11565b610c15565b005b34801561038957600080fd5b506103a4600480360381019061039f9190611a52565b610c96565b005b3480156103b257600080fd5b506103bb610d1d565b6040516103c89190611e18565b60405180910390f35b6103eb60048036038101906103e69190611a11565b610d23565b005b3480156103f957600080fd5b50610414600480360381019061040f9190611a7b565b610dbf565b005b34801561042257600080fd5b5061042b610f6b565b6040516104389190611e18565b60405180910390f35b34801561044d57600080fd5b5061046860048036038101906104639190611a52565b610f71565b005b34801561047657600080fd5b50610491600480360381019061048c9190611a52565b611009565b005b34801561049f57600080fd5b506104ba60048036038101906104b59190611a52565b6110a1565b6040516104c79190611e18565b60405180910390f35b3480156104dc57600080fd5b506104f760048036038101906104f291906119ac565b6110b9565b005b806007600082815260200190815260200160002060009054906101000a900473ffffffffffffffffffffffffffffffffffffffff1673ffffffffffffffffffffffffffffffffffffffff163373ffffffffffffffffffffffffffffffffffffffff161461059b576040517f08c379a000000000000000000000000000000000000000000000000000000000815260040161059290611d98565b60405180910390fd5b82600b600084815260200190815260200160002060006101000a81548173ffffffffffffffffffffffffffffffffffffffff021916908373ffffffffffffffffffffffffffffffffffffffff1602179055508273ffffffffffffffffffffffffffffffffffffffff163373ffffffffffffffffffffffffffffffffffffffff167f8c5be1e5ebec7d5bd14f71427d1e84f3dd0314c0f7b2291e5b200ac8c7c3b9258460405161064a9190611e18565b60405180910390a3505050565b806007600082815260200190815260200160002060009054906101000a900473ffffffffffffffffffffffffffffffffffffffff1673ffffffffffffffffffffffffffffffffffffffff163373ffffffffffffffffffffffffffffffffffffffff16146106f9576040517f08c379a00000000000000000000000000000000000000000000000000000000081526004016106f090611d98565b60405180910390fd5b600a54341461073d576040517f08c379a000000000000000000000000000000000000000000000000000000000815260040161073490611dd8565b60405180910390fd5b60068281548110610777577f4e487b7100000000000000000000000000000000000000000000000000000000600052603260045260246000fd5b9060005260206000209060030201600201600481819054906101000a900463ffffffff16809291906107a89061210b565b91906101000a81548163ffffffff021916908363ffffffff160217905550505050565b600681815481106107db57600080fd5b90600052602060002090600302016000915090508060000180546107fe9061205f565b80601f016020809104026020016040519081016040528092919081815260200182805461082a9061205f565b80156108775780601f1061084c57610100808354040283529160200191610877565b820191906000526020600020905b81548152906001019060200180831161085a57829003601f168201915b5050505050908060010154908060020160009054906101000a900461ffff16908060020160029054906101000a900461ffff16908060020160049054906101000a900463ffffffff16908060020160089054906101000a900463ffffffff16905086565b60606000600860008473ffffffffffffffffffffffffffffffffffffffff1673ffffffffffffffffffffffffffffffffffffffff1681526020019081526020016000205467ffffffffffffffff81111561095e577f4e487b7100000000000000000000000000000000000000000000000000000000600052604160045260246000fd5b60405190808252806020026020018201604052801561098c5781602001602082028036833780820191505090505b5090506000805b600680549050811015610a6f578473ffffffffffffffffffffffffffffffffffffffff166007600083815260200190815260200160002060009054906101000a900473ffffffffffffffffffffffffffffffffffffffff1673ffffffffffffffffffffffffffffffffffffffff161415610a5c5780838381518110610a41577f4e487b7100000000000000000000000000000000000000000000000000000000600052603260045260246000fd5b6020026020010181815250508180610a58906120c2565b9250505b8080610a67906120c2565b915050610993565b508192505050919050565b60076020528060005260406000206000915054906101000a900473ffffffffffffffffffffffffffffffffffffffff1681565b60006007600083815260200190815260200160002060009054906101000a900473ffffffffffffffffffffffffffffffffffffffff169050919050565b60055481565b6000600860008373ffffffffffffffffffffffffffffffffffffffff1673ffffffffffffffffffffffffffffffffffffffff168152602001908152602001600020549050919050565b60045481565b60008054906101000a900473ffffffffffffffffffffffffffffffffffffffff1681565b806007600082815260200190815260200160002060009054906101000a900473ffffffffffffffffffffffffffffffffffffffff1673ffffffffffffffffffffffffffffffffffffffff163373ffffffffffffffffffffffffffffffffffffffff1614610c05576040517f08c379a0000000000000000000000000000000000000000000000000000000008152600401610bfc90611d98565b60405180910390fd5b610c10338484611274565b505050565b6000600860003373ffffffffffffffffffffffffffffffffffffffff1673ffffffffffffffffffffffffffffffffffffffff1681526020019081526020016000205414610c6157600080fd5b6000610c6c8261144e565b9050600a81610c7b9190612142565b81610c869190611f7d565b9050610c928282611490565b5050565b3373ffffffffffffffffffffffffffffffffffffffff16600b600083815260200190815260200160002060009054906101000a900473ffffffffffffffffffffffffffffffffffffffff1673ffffffffffffffffffffffffffffffffffffffff1614610d0157600080fd5b6000610d0c82610aad565b9050610d19813384611274565b5050565b60035481565b6000600860003373ffffffffffffffffffffffffffffffffffffffff1673ffffffffffffffffffffffffffffffffffffffff1681526020019081526020016000205411610d6f57600080fd5b600454341015610d7e57600080fd5b6000610d898261144e565b90506001600a82610d9a9190612142565b82610da59190611f7d565b610daf9190611f27565b9050610dbb8282611490565b5050565b6002838160068281548110610dfd577f4e487b7100000000000000000000000000000000000000000000000000000000600052603260045260246000fd5b906000526020600020906003020160020160049054906101000a900463ffffffff1663ffffffff161015610e66576040517f08c379a0000000000000000000000000000000000000000000000000000000008152600401610e5d90611df8565b60405180910390fd5b846007600082815260200190815260200160002060009054906101000a900473ffffffffffffffffffffffffffffffffffffffff1673ffffffffffffffffffffffffffffffffffffffff163373ffffffffffffffffffffffffffffffffffffffff1614610f08576040517f08c379a0000000000000000000000000000000000000000000000000000000008152600401610eff90611d98565b60405180910390fd5b848460068881548110610f44577f4e487b7100000000000000000000000000000000000000000000000000000000600052603260045260246000fd5b90600052602060002090600302016000019190610f62929190611769565b50505050505050565b600a5481565b60008054906101000a900473ffffffffffffffffffffffffffffffffffffffff1673ffffffffffffffffffffffffffffffffffffffff163373ffffffffffffffffffffffffffffffffffffffff1614610fff576040517f08c379a0000000000000000000000000000000000000000000000000000000008152600401610ff690611db8565b60405180910390fd5b80600a8190555050565b60008054906101000a900473ffffffffffffffffffffffffffffffffffffffff1673ffffffffffffffffffffffffffffffffffffffff163373ffffffffffffffffffffffffffffffffffffffff1614611097576040517f08c379a000000000000000000000000000000000000000000000000000000000815260040161108e90611db8565b60405180910390fd5b8060048190555050565b60096020528060005260406000206000915090505481565b60008054906101000a900473ffffffffffffffffffffffffffffffffffffffff1673ffffffffffffffffffffffffffffffffffffffff163373ffffffffffffffffffffffffffffffffffffffff1614611147576040517f08c379a000000000000000000000000000000000000000000000000000000000815260040161113e90611db8565b60405180910390fd5b600073ffffffffffffffffffffffffffffffffffffffff168173ffffffffffffffffffffffffffffffffffffffff1614156111b7576040517f08c379a00000000000000000000000000000000000000000000000000000000081526004016111ae90611db8565b60405180910390fd5b8073ffffffffffffffffffffffffffffffffffffffff1660008054906101000a900473ffffffffffffffffffffffffffffffffffffffff1673ffffffffffffffffffffffffffffffffffffffff167f8be0079c531659141344cd1fd0a4f28419497f9722a3daafe3b4186f6b6457e060405160405180910390a3806000806101000a81548173ffffffffffffffffffffffffffffffffffffffff021916908373ffffffffffffffffffffffffffffffffffffffff16021790555050565b6001600860008473ffffffffffffffffffffffffffffffffffffffff1673ffffffffffffffffffffffffffffffffffffffff168152602001908152602001600020546112c09190611f27565b600860008473ffffffffffffffffffffffffffffffffffffffff1673ffffffffffffffffffffffffffffffffffffffff168152602001908152602001600020819055506001600860008573ffffffffffffffffffffffffffffffffffffffff1673ffffffffffffffffffffffffffffffffffffffff1681526020019081526020016000205461134f9190611f7d565b600860008573ffffffffffffffffffffffffffffffffffffffff1673ffffffffffffffffffffffffffffffffffffffff16815260200190815260200160002081905550816007600083815260200190815260200160002060006101000a81548173ffffffffffffffffffffffffffffffffffffffff021916908373ffffffffffffffffffffffffffffffffffffffff1602179055508173ffffffffffffffffffffffffffffffffffffffff168373ffffffffffffffffffffffffffffffffffffffff167fddf252ad1be2c89b69c2b068fc378daa952ba7f163c4a11628f55a4df523b3ef836040516114419190611e18565b60405180910390a3505050565b60006002548242604051602001611466929190611cb0565b6040516020818303038152906040528051906020012060001c6114899190612142565b9050919050565b60066040518060c00160405280848152602001838152602001600061ffff168152602001600061ffff168152602001600163ffffffff168152602001600063ffffffff168152509080600181540180825580915050600190039060005260206000209060030201600090919091909150600082015181600001908051906020019061151c9291906117ef565b506020820151816001015560408201518160020160006101000a81548161ffff021916908361ffff16021790555060608201518160020160026101000a81548161ffff021916908361ffff16021790555060808201518160020160046101000a81548163ffffffff021916908363ffffffff16021790555060a08201518160020160086101000a81548163ffffffff021916908363ffffffff1602179055505050600060016006805490506115d19190611f7d565b9050336007600083815260200190815260200160002060006101000a81548173ffffffffffffffffffffffffffffffffffffffff021916908373ffffffffffffffffffffffffffffffffffffffff1602179055506116786001600860003373ffffffffffffffffffffffffffffffffffffffff1673ffffffffffffffffffffffffffffffffffffffff1681526020019081526020016000205461171790919063ffffffff16565b600860003373ffffffffffffffffffffffffffffffffffffffff1673ffffffffffffffffffffffffffffffffffffffff168152602001908152602001600020819055506116d1600160055461171790919063ffffffff16565b6005819055507f88f026aacbbecc90c18411df4b1185fd8d9be2470f1962f192bf84a27d0704b781848460405161170a93929190611e33565b60405180910390a1505050565b60008082846117269190611f27565b90508381101561175f577f4e487b7100000000000000000000000000000000000000000000000000000000600052600160045260246000fd5b8091505092915050565b8280546117759061205f565b90600052602060002090601f01602090048101928261179757600085556117de565b82601f106117b057803560ff19168380011785556117de565b828001600101855582156117de579182015b828111156117dd5782358255916020019190600101906117c2565b5b5090506117eb9190611875565b5090565b8280546117fb9061205f565b90600052602060002090601f01602090048101928261181d5760008555611864565b82601f1061183657805160ff1916838001178555611864565b82800160010185558215611864579182015b82811115611863578251825591602001919060010190611848565b5b5090506118719190611875565b5090565b5b8082111561188e576000816000905550600101611876565b5090565b60006118a56118a084611e96565b611e71565b9050828152602081018484840111156118bd57600080fd5b6118c884828561201d565b509392505050565b6000813590506118df816122e4565b92915050565b6000813590506118f4816122fb565b92915050565b60008083601f84011261190c57600080fd5b8235905067ffffffffffffffff81111561192557600080fd5b60208301915083600182028301111561193d57600080fd5b9250929050565b600082601f83011261195557600080fd5b8135611965848260208601611892565b91505092915050565b60008135905061197d81612312565b92915050565b60006020828403121561199557600080fd5b60006119a3848285016118d0565b91505092915050565b6000602082840312156119be57600080fd5b60006119cc848285016118e5565b91505092915050565b600080604083850312156119e857600080fd5b60006119f6858286016118d0565b9250506020611a078582860161196e565b9150509250929050565b600060208284031215611a2357600080fd5b600082013567ffffffffffffffff811115611a3d57600080fd5b611a4984828501611944565b91505092915050565b600060208284031215611a6457600080fd5b6000611a728482850161196e565b91505092915050565b600080600060408486031215611a9057600080fd5b6000611a9e8682870161196e565b935050602084013567ffffffffffffffff811115611abb57600080fd5b611ac7868287016118fa565b92509250509250925092565b6000611adf8383611c6c565b60208301905092915050565b611af481611fc3565b82525050565b611b0381611fb1565b82525050565b6000611b1482611ed7565b611b1e8185611efa565b9350611b2983611ec7565b8060005b83811015611b5a578151611b418882611ad3565b9750611b4c83611eed565b925050600181019050611b2d565b5085935050505092915050565b6000611b7282611ee2565b611b7c8185611f0b565b9350611b8c81856020860161202c565b611b958161222f565b840191505092915050565b6000611bab82611ee2565b611bb58185611f1c565b9350611bc581856020860161202c565b80840191505092915050565b6000611bde601383611f0b565b9150611be982612240565b602082019050919050565b6000611c01601383611f0b565b9150611c0c82612269565b602082019050919050565b6000611c24600f83611f0b565b9150611c2f82612292565b602082019050919050565b6000611c47601783611f0b565b9150611c52826122bb565b602082019050919050565b611c6681611fd5565b82525050565b611c7581612003565b82525050565b611c8481612003565b82525050565b611c9b611c9682612003565b612138565b82525050565b611caa8161200d565b82525050565b6000611cbc8285611ba0565b9150611cc88284611c8a565b6020820191508190509392505050565b6000602082019050611ced6000830184611afa565b92915050565b6000602082019050611d086000830184611aeb565b92915050565b60006020820190508181036000830152611d288184611b09565b905092915050565b600060c0820190508181036000830152611d4a8189611b67565b9050611d596020830188611c7b565b611d666040830187611c5d565b611d736060830186611c5d565b611d806080830185611ca1565b611d8d60a0830184611ca1565b979650505050505050565b60006020820190508181036000830152611db181611bd1565b9050919050565b60006020820190508181036000830152611dd181611bf4565b9050919050565b60006020820190508181036000830152611df181611c17565b9050919050565b60006020820190508181036000830152611e1181611c3a565b9050919050565b6000602082019050611e2d6000830184611c7b565b92915050565b6000606082019050611e486000830186611c7b565b8181036020830152611e5a8185611b67565b9050611e696040830184611c7b565b949350505050565b6000611e7b611e8c565b9050611e878282612091565b919050565b6000604051905090565b600067ffffffffffffffff821115611eb157611eb0612200565b5b611eba8261222f565b9050602081019050919050565b6000819050602082019050919050565b600081519050919050565b600081519050919050565b6000602082019050919050565b600082825260208201905092915050565b600082825260208201905092915050565b600081905092915050565b6000611f3282612003565b9150611f3d83612003565b9250827fffffffffffffffffffffffffffffffffffffffffffffffffffffffffffffffff03821115611f7257611f71612173565b5b828201905092915050565b6000611f8882612003565b9150611f9383612003565b925082821015611fa657611fa5612173565b5b828203905092915050565b6000611fbc82611fe3565b9050919050565b6000611fce82611fe3565b9050919050565b600061ffff82169050919050565b600073ffffffffffffffffffffffffffffffffffffffff82169050919050565b6000819050919050565b600063ffffffff82169050919050565b82818337600083830152505050565b60005b8381101561204a57808201518184015260208101905061202f565b83811115612059576000848401525b50505050565b6000600282049050600182168061207757607f821691505b6020821081141561208b5761208a6121d1565b5b50919050565b61209a8261222f565b810181811067ffffffffffffffff821117156120b9576120b8612200565b5b80604052505050565b60006120cd82612003565b91507fffffffffffffffffffffffffffffffffffffffffffffffffffffffffffffffff821415612100576120ff612173565b5b600182019050919050565b60006121168261200d565b915063ffffffff82141561212d5761212c612173565b5b600182019050919050565b6000819050919050565b600061214d82612003565b915061215883612003565b925082612168576121676121a2565b5b828206905092915050565b7f4e487b7100000000000000000000000000000000000000000000000000000000600052601160045260246000fd5b7f4e487b7100000000000000000000000000000000000000000000000000000000600052601260045260246000fd5b7f4e487b7100000000000000000000000000000000000000000000000000000000600052602260045260246000fd5b7f4e487b7100000000000000000000000000000000000000000000000000000000600052604160045260246000fd5b6000601f19601f8301169050919050565b7f5a6f6d626965206973206e6f7420796f75727300000000000000000000000000600082015250565b7f4d75737420636f6e7472616374206f776e657200000000000000000000000000600082015250565b7f4e6f20656e6f756768206d6f6e65790000000000000000000000000000000000600082015250565b7f4c6576656c206973206e6f742073756666696369656e74000000000000000000600082015250565b6122ed81611fb1565b81146122f857600080fd5b50565b61230481611fc3565b811461230f57600080fd5b50565b61231b81612003565b811461232657600080fd5b5056fea264697066735822122026da43e4bf42a9bf3b81655307fb31e36eec4e27620967305bda68ca3202898c64736f6c63430008040033",
  "immutableReferences": {},
  "source": "// SPDX-License-Identifier: GPL-3.0\r\npragma solidity >=0.7.0 <0.9.0;\r\n\r\nimport \"./zombieHelper.sol\";\r\nimport \"./erc721.sol\";\r\n\r\ncontract ZombieOwnership is ZombieHelper, ERC721 {\r\n\r\n  mapping (uint => address) zombieApprovals;\r\n\r\n  function balanceOf(address _owner) override public view returns (uint256 _balance) {\r\n    return ownerZombieCount[_owner];\r\n  }\r\n\r\n  function ownerOf(uint256 _tokenId) override public view returns (address _owner) {\r\n    return zombieToOwner[_tokenId];\r\n  }\r\n\r\n  function _transfer(address _from, address _to, uint256 _tokenId) internal {\r\n    ownerZombieCount[_to] = ownerZombieCount[_to] + 1;\r\n    ownerZombieCount[_from] = ownerZombieCount[_from] - 1;\r\n    zombieToOwner[_tokenId] = _to;\r\n    emit Transfer(_from, _to, _tokenId);\r\n  }\r\n\r\n  function transfer(address _to, uint256 _tokenId) override public onlyOwnerOf(_tokenId) {\r\n    _transfer(msg.sender, _to, _tokenId);\r\n  }\r\n\r\n  function approve(address _to, uint256 _tokenId) override public onlyOwnerOf(_tokenId) {\r\n    zombieApprovals[_tokenId] = _to;\r\n    emit Approval(msg.sender, _to, _tokenId);\r\n  }\r\n\r\n  function takeOwnership(uint256 _tokenId) override public {\r\n    require(zombieApprovals[_tokenId] == msg.sender);\r\n    address owner = ownerOf(_tokenId);\r\n    _transfer(owner, msg.sender, _tokenId);\r\n  }\r\n}\r\n",
  "sourcePath": "E:/erc20-contract/truffle_proj/contracts/zombieOwnership.sol",
  "compiler": {
    "name": "solc",
    "version": "0.8.4+commit.c7e474f2.Emscripten.clang"
  },
  "schemaVersion": "3.4.1",
  "updatedAt": "2021-07-01T07:08:03.754Z",
  "devdoc": {
    "kind": "dev",
    "methods": {
      "transferOwnership(address)": {
        "details": "Allows the current owner to transfer control of the contract to a newOwner.",
        "params": {
          "newOwner": "The address to transfer ownership to."
        }
      }
    },
    "version": 1
  },
  "userdoc": {
    "kind": "user",
    "methods": {},
    "version": 1
  }
}