{
  "contractName": "ZombieFactory",
  "abi": [
    {
      "anonymous": false,
      "inputs": [
        {
          "indexed": false,
          "internalType": "uint256",
          "name": "zombieId",
          "type": "uint256"
        },
        {
          "indexed": false,
          "internalType": "string",
          "name": "name",
          "type": "string"
        },
        {
          "indexed": false,
          "internalType": "uint256",
          "name": "dna",
          "type": "uint256"
        }
      ],
      "name": "NewZombie",
      "type": "event"
    },
    {
      "anonymous": false,
      "inputs": [
        {
          "indexed": true,
          "internalType": "address",
          "name": "previousOwner",
          "type": "address"
        },
        {
          "indexed": true,
          "internalType": "address",
          "name": "newOwner",
          "type": "address"
        }
      ],
      "name": "OwnershipTransferred",
      "type": "event"
    },
    {
      "inputs": [],
      "name": "cooldownTime",
      "outputs": [
        {
          "internalType": "uint256",
          "name": "",
          "type": "uint256"
        }
      ],
      "stateMutability": "view",
      "type": "function"
    },
    {
      "inputs": [],
      "name": "owner",
      "outputs": [
        {
          "internalType": "address payable",
          "name": "",
          "type": "address"
        }
      ],
      "stateMutability": "view",
      "type": "function"
    },
    {
      "inputs": [
        {
          "internalType": "address payable",
          "name": "newOwner",
          "type": "address"
        }
      ],
      "name": "transferOwnership",
      "outputs": [],
      "stateMutability": "nonpayable",
      "type": "function"
    },
    {
      "inputs": [],
      "name": "zombieCount",
      "outputs": [
        {
          "internalType": "uint256",
          "name": "",
          "type": "uint256"
        }
      ],
      "stateMutability": "view",
      "type": "function"
    },
    {
      "inputs": [
        {
          "internalType": "uint256",
          "name": "",
          "type": "uint256"
        }
      ],
      "name": "zombieFeedTimes",
      "outputs": [
        {
          "internalType": "uint256",
          "name": "",
          "type": "uint256"
        }
      ],
      "stateMutability": "view",
      "type": "function"
    },
    {
      "inputs": [],
      "name": "zombiePrice",
      "outputs": [
        {
          "internalType": "uint256",
          "name": "",
          "type": "uint256"
        }
      ],
      "stateMutability": "view",
      "type": "function"
    },
    {
      "inputs": [
        {
          "internalType": "uint256",
          "name": "",
          "type": "uint256"
        }
      ],
      "name": "zombieToOwner",
      "outputs": [
        {
          "internalType": "address",
          "name": "",
          "type": "address"
        }
      ],
      "stateMutability": "view",
      "type": "function"
    },
    {
      "inputs": [
        {
          "internalType": "uint256",
          "name": "",
          "type": "uint256"
        }
      ],
      "name": "zombies",
      "outputs": [
        {
          "internalType": "string",
          "name": "name",
          "type": "string"
        },
        {
          "internalType": "uint256",
          "name": "dna",
          "type": "uint256"
        },
        {
          "internalType": "uint16",
          "name": "winCount",
          "type": "uint16"
        },
        {
          "internalType": "uint16",
          "name": "lossCount",
          "type": "uint16"
        },
        {
          "internalType": "uint32",
          "name": "level",
          "type": "uint32"
        },
        {
          "internalType": "uint32",
          "name": "readyTime",
          "type": "uint32"
        }
      ],
      "stateMutability": "view",
      "type": "function"
    },
    {
      "inputs": [
        {
          "internalType": "string",
          "name": "_name",
          "type": "string"
        }
      ],
      "name": "createZombie",
      "outputs": [],
      "stateMutability": "nonpayable",
      "type": "function"
    },
    {
      "inputs": [
        {
          "internalType": "string",
          "name": "_name",
          "type": "string"
        }
      ],
      "name": "buyZombie",
      "outputs": [],
      "stateMutability": "payable",
      "type": "function"
    },
    {
      "inputs": [
        {
          "internalType": "uint256",
          "name": "_price",
          "type": "uint256"
        }
      ],
      "name": "setZombiePrice",
      "outputs": [],
      "stateMutability": "nonpayable",
      "type": "function"
    }
  ],
  "bytecode": "0x60806040526010600155600154600a6200001a9190620000e3565b60025562015180600355662386f26fc1000060045560006005553480156200004157600080fd5b50336000806101000a81548173ffffffffffffffffffffffffffffffffffffffff021916908373ffffffffffffffffffffffffffffffffffffffff16021790555062000266565b6000808291508390505b6001851115620000da57808604811115620000b257620000b16200022a565b5b6001851615620000c25780820291505b8081029050620000d28562000259565b945062000092565b94509492505050565b6000620000f08262000220565b9150620000fd8362000220565b92506200012c7fffffffffffffffffffffffffffffffffffffffffffffffffffffffffffffffff848462000134565b905092915050565b60008262000146576001905062000219565b8162000156576000905062000219565b81600181146200016f57600281146200017a57620001b0565b600191505062000219565b60ff8411156200018f576200018e6200022a565b5b8360020a915084821115620001a957620001a86200022a565b5b5062000219565b5060208310610133831016604e8410600b8410161715620001ea5782820a905083811115620001e457620001e36200022a565b5b62000219565b620001f9848484600162000088565b925090508184048111156200021357620002126200022a565b5b81810290505b9392505050565b6000819050919050565b7f4e487b7100000000000000000000000000000000000000000000000000000000600052601160045260246000fd5b60008160011c9050919050565b61125f80620002766000396000f3fe60806040526004361061009c5760003560e01c8063ad82277811610064578063ad822778146101a1578063b319c6b7146101ca578063b3f0ddb9146101f5578063d521ef4314610211578063ef6ad18b1461023a578063f2fde38b146102775761009c565b80632052465e146100a1578063528b7b8f146100e357806363721d6b1461012057806383d404d81461014b5780638da5cb5b14610176575b600080fd5b3480156100ad57600080fd5b506100c860048036038101906100c39190610c5b565b6102a0565b6040516100da96959493929190610dd1565b60405180910390f35b3480156100ef57600080fd5b5061010a60048036038101906101059190610c5b565b6103b0565b6040516101179190610d9b565b60405180910390f35b34801561012c57600080fd5b506101356103e3565b6040516101429190610e59565b60405180910390f35b34801561015757600080fd5b506101606103e9565b60405161016d9190610e59565b60405180910390f35b34801561018257600080fd5b5061018b6103ef565b6040516101989190610db6565b60405180910390f35b3480156101ad57600080fd5b506101c860048036038101906101c39190610c1a565b610413565b005b3480156101d657600080fd5b506101df610494565b6040516101ec9190610e59565b60405180910390f35b61020f600480360381019061020a9190610c1a565b61049a565b005b34801561021d57600080fd5b5061023860048036038101906102339190610c5b565b610536565b005b34801561024657600080fd5b50610261600480360381019061025c9190610c5b565b6105ce565b60405161026e9190610e59565b60405180910390f35b34801561028357600080fd5b5061029e60048036038101906102999190610bf1565b6105e6565b005b600681815481106102b057600080fd5b90600052602060002090600302016000915090508060000180546102d390611067565b80601f01602080910402602001604051908101604052809291908181526020018280546102ff90611067565b801561034c5780601f106103215761010080835404028352916020019161034c565b820191906000526020600020905b81548152906001019060200180831161032f57829003601f168201915b5050505050908060010154908060020160009054906101000a900461ffff16908060020160029054906101000a900461ffff16908060020160049054906101000a900463ffffffff16908060020160089054906101000a900463ffffffff16905086565b60076020528060005260406000206000915054906101000a900473ffffffffffffffffffffffffffffffffffffffff1681565b60055481565b60045481565b60008054906101000a900473ffffffffffffffffffffffffffffffffffffffff1681565b6000600860003373ffffffffffffffffffffffffffffffffffffffff1673ffffffffffffffffffffffffffffffffffffffff168152602001908152602001600020541461045f57600080fd5b600061046a826107a1565b9050600a8161047991906110d4565b816104849190610f85565b905061049082826107e3565b5050565b60035481565b6000600860003373ffffffffffffffffffffffffffffffffffffffff1673ffffffffffffffffffffffffffffffffffffffff16815260200190815260200160002054116104e657600080fd5b6004543410156104f557600080fd5b6000610500826107a1565b90506001600a8261051191906110d4565b8261051c9190610f85565b6105269190610f2f565b905061053282826107e3565b5050565b60008054906101000a900473ffffffffffffffffffffffffffffffffffffffff1673ffffffffffffffffffffffffffffffffffffffff163373ffffffffffffffffffffffffffffffffffffffff16146105c4576040517f08c379a00000000000000000000000000000000000000000000000000000000081526004016105bb90610e39565b60405180910390fd5b8060048190555050565b60096020528060005260406000206000915090505481565b60008054906101000a900473ffffffffffffffffffffffffffffffffffffffff1673ffffffffffffffffffffffffffffffffffffffff163373ffffffffffffffffffffffffffffffffffffffff1614610674576040517f08c379a000000000000000000000000000000000000000000000000000000000815260040161066b90610e39565b60405180910390fd5b600073ffffffffffffffffffffffffffffffffffffffff168173ffffffffffffffffffffffffffffffffffffffff1614156106e4576040517f08c379a00000000000000000000000000000000000000000000000000000000081526004016106db90610e39565b60405180910390fd5b8073ffffffffffffffffffffffffffffffffffffffff1660008054906101000a900473ffffffffffffffffffffffffffffffffffffffff1673ffffffffffffffffffffffffffffffffffffffff167f8be0079c531659141344cd1fd0a4f28419497f9722a3daafe3b4186f6b6457e060405160405180910390a3806000806101000a81548173ffffffffffffffffffffffffffffffffffffffff021916908373ffffffffffffffffffffffffffffffffffffffff16021790555050565b600060025482426040516020016107b9929190610d73565b6040516020818303038152906040528051906020012060001c6107dc91906110d4565b9050919050565b60066040518060c00160405280848152602001838152602001600061ffff168152602001600061ffff168152602001600163ffffffff168152602001600063ffffffff168152509080600181540180825580915050600190039060005260206000209060030201600090919091909150600082015181600001908051906020019061086f929190610abc565b506020820151816001015560408201518160020160006101000a81548161ffff021916908361ffff16021790555060608201518160020160026101000a81548161ffff021916908361ffff16021790555060808201518160020160046101000a81548163ffffffff021916908363ffffffff16021790555060a08201518160020160086101000a81548163ffffffff021916908363ffffffff1602179055505050600060016006805490506109249190610f85565b9050336007600083815260200190815260200160002060006101000a81548173ffffffffffffffffffffffffffffffffffffffff021916908373ffffffffffffffffffffffffffffffffffffffff1602179055506109cb6001600860003373ffffffffffffffffffffffffffffffffffffffff1673ffffffffffffffffffffffffffffffffffffffff16815260200190815260200160002054610a6a90919063ffffffff16565b600860003373ffffffffffffffffffffffffffffffffffffffff1673ffffffffffffffffffffffffffffffffffffffff16815260200190815260200160002081905550610a246001600554610a6a90919063ffffffff16565b6005819055507f88f026aacbbecc90c18411df4b1185fd8d9be2470f1962f192bf84a27d0704b7818484604051610a5d93929190610e74565b60405180910390a1505050565b6000808284610a799190610f2f565b905083811015610ab2577f4e487b7100000000000000000000000000000000000000000000000000000000600052600160045260246000fd5b8091505092915050565b828054610ac890611067565b90600052602060002090601f016020900481019282610aea5760008555610b31565b82601f10610b0357805160ff1916838001178555610b31565b82800160010185558215610b31579182015b82811115610b30578251825591602001919060010190610b15565b5b509050610b3e9190610b42565b5090565b5b80821115610b5b576000816000905550600101610b43565b5090565b6000610b72610b6d84610ed7565b610eb2565b905082815260208101848484011115610b8a57600080fd5b610b95848285611025565b509392505050565b600081359050610bac816111fb565b92915050565b600082601f830112610bc357600080fd5b8135610bd3848260208601610b5f565b91505092915050565b600081359050610beb81611212565b92915050565b600060208284031215610c0357600080fd5b6000610c1184828501610b9d565b91505092915050565b600060208284031215610c2c57600080fd5b600082013567ffffffffffffffff811115610c4657600080fd5b610c5284828501610bb2565b91505092915050565b600060208284031215610c6d57600080fd5b6000610c7b84828501610bdc565b91505092915050565b610c8d81610fcb565b82525050565b610c9c81610fb9565b82525050565b6000610cad82610f08565b610cb78185610f13565b9350610cc7818560208601611034565b610cd0816111c1565b840191505092915050565b6000610ce682610f08565b610cf08185610f24565b9350610d00818560208601611034565b80840191505092915050565b6000610d19601383610f13565b9150610d24826111d2565b602082019050919050565b610d3881610fdd565b82525050565b610d478161100b565b82525050565b610d5e610d598261100b565b6110ca565b82525050565b610d6d81611015565b82525050565b6000610d7f8285610cdb565b9150610d8b8284610d4d565b6020820191508190509392505050565b6000602082019050610db06000830184610c93565b92915050565b6000602082019050610dcb6000830184610c84565b92915050565b600060c0820190508181036000830152610deb8189610ca2565b9050610dfa6020830188610d3e565b610e076040830187610d2f565b610e146060830186610d2f565b610e216080830185610d64565b610e2e60a0830184610d64565b979650505050505050565b60006020820190508181036000830152610e5281610d0c565b9050919050565b6000602082019050610e6e6000830184610d3e565b92915050565b6000606082019050610e896000830186610d3e565b8181036020830152610e9b8185610ca2565b9050610eaa6040830184610d3e565b949350505050565b6000610ebc610ecd565b9050610ec88282611099565b919050565b6000604051905090565b600067ffffffffffffffff821115610ef257610ef1611192565b5b610efb826111c1565b9050602081019050919050565b600081519050919050565b600082825260208201905092915050565b600081905092915050565b6000610f3a8261100b565b9150610f458361100b565b9250827fffffffffffffffffffffffffffffffffffffffffffffffffffffffffffffffff03821115610f7a57610f79611105565b5b828201905092915050565b6000610f908261100b565b9150610f9b8361100b565b925082821015610fae57610fad611105565b5b828203905092915050565b6000610fc482610feb565b9050919050565b6000610fd682610feb565b9050919050565b600061ffff82169050919050565b600073ffffffffffffffffffffffffffffffffffffffff82169050919050565b6000819050919050565b600063ffffffff82169050919050565b82818337600083830152505050565b60005b83811015611052578082015181840152602081019050611037565b83811115611061576000848401525b50505050565b6000600282049050600182168061107f57607f821691505b6020821081141561109357611092611163565b5b50919050565b6110a2826111c1565b810181811067ffffffffffffffff821117156110c1576110c0611192565b5b80604052505050565b6000819050919050565b60006110df8261100b565b91506110ea8361100b565b9250826110fa576110f9611134565b5b828206905092915050565b7f4e487b7100000000000000000000000000000000000000000000000000000000600052601160045260246000fd5b7f4e487b7100000000000000000000000000000000000000000000000000000000600052601260045260246000fd5b7f4e487b7100000000000000000000000000000000000000000000000000000000600052602260045260246000fd5b7f4e487b7100000000000000000000000000000000000000000000000000000000600052604160045260246000fd5b6000601f19601f8301169050919050565b7f4d75737420636f6e7472616374206f776e657200000000000000000000000000600082015250565b61120481610fcb565b811461120f57600080fd5b50565b61121b8161100b565b811461122657600080fd5b5056fea2646970667358221220f0ab06ce8120c995e20cec02cb148e81a10314fbfcb4eb8087c11e7cfa847dc264736f6c63430008040033",
  "immutableReferences": {},
  "source": "// SPDX-License-Identifier: GPL-3.0\r\npragma solidity >=0.7.0 <0.9.0;\r\n\r\nimport \"./ownable.sol\";\r\nimport \"./safemath.sol\";\r\n\r\ncontract ZombieFactory is Ownable {\r\n\r\n  using SafeMath for uint256;\r\n\r\n  event NewZombie(uint zombieId, string name, uint dna);\r\n\r\n  uint dnaDigits = 16;\r\n  uint dnaModulus = 10 ** dnaDigits;\r\n  uint public cooldownTime = 1 days;\r\n  uint public zombiePrice = 0.01 ether;\r\n  uint public zombieCount = 0;\r\n\r\n  struct Zombie {\r\n    string name;\r\n    uint dna;\r\n    uint16 winCount;\r\n    uint16 lossCount;\r\n    uint32 level;\r\n    uint32 readyTime;\r\n  }\r\n\r\n  Zombie[] public zombies;\r\n\r\n  mapping (uint => address) public zombieToOwner;\r\n  mapping (address => uint) ownerZombieCount;\r\n  mapping (uint => uint) public zombieFeedTimes;\r\n\r\n  function _createZombie(string memory _name, uint _dna) internal {\r\n    zombies.push(Zombie(_name, _dna, 0, 0, 1, 0));\r\n    uint id = zombies.length - 1;\r\n    zombieToOwner[id] = msg.sender;\r\n    ownerZombieCount[msg.sender] = ownerZombieCount[msg.sender].add(1);\r\n    zombieCount = zombieCount.add(1);\r\n    emit NewZombie(id, _name, _dna);\r\n  }\r\n\r\n  function _generateRandomDna(string memory _str) private view returns (uint) {\r\n    return uint(keccak256(abi.encodePacked(_str, block.timestamp))) % dnaModulus;\r\n  }\r\n\r\n  function createZombie(string memory _name) public{\r\n    require(ownerZombieCount[msg.sender] == 0);\r\n    uint randDna = _generateRandomDna(_name);\r\n    randDna = randDna - randDna % 10;\r\n    _createZombie(_name, randDna);\r\n  }\r\n\r\n  function buyZombie(string memory _name) public payable{\r\n    require(ownerZombieCount[msg.sender] > 0);\r\n    require(msg.value >= zombiePrice);\r\n    uint randDna = _generateRandomDna(_name);\r\n    randDna = randDna - randDna % 10 + 1;\r\n    _createZombie(_name, randDna);\r\n  }\r\n\r\n  function setZombiePrice(uint _price) external onlyOwner {\r\n    zombiePrice = _price;\r\n  }\r\n\r\n}\r\n",
  "sourcePath": "E:\\erc20-contract\\truffle_proj\\contracts\\zombieFactory.sol",
  "compiler": {
    "name": "solc",
    "version": "0.8.4+commit.c7e474f2.Emscripten.clang"
  },
  "schemaVersion": "3.4.1",
  "updatedAt": "2021-07-01T07:08:30.679Z",
  "devdoc": {
    "kind": "dev",
    "methods": {
      "transferOwnership(address)": {
        "details": "Allows the current owner to transfer control of the contract to a newOwner.",
        "params": {
          "newOwner": "The address to transfer ownership to."
        }
      }
    },
    "version": 1
  },
  "userdoc": {
    "kind": "user",
    "methods": {},
    "version": 1
  }
}