{
  "contractName": "ZombieAttack",
  "abi": [
    {
      "anonymous": false,
      "inputs": [
        {
          "indexed": false,
          "internalType": "uint256",
          "name": "zombieId",
          "type": "uint256"
        },
        {
          "indexed": false,
          "internalType": "string",
          "name": "name",
          "type": "string"
        },
        {
          "indexed": false,
          "internalType": "uint256",
          "name": "dna",
          "type": "uint256"
        }
      ],
      "name": "NewZombie",
      "type": "event"
    },
    {
      "anonymous": false,
      "inputs": [
        {
          "indexed": true,
          "internalType": "address",
          "name": "previousOwner",
          "type": "address"
        },
        {
          "indexed": true,
          "internalType": "address",
          "name": "newOwner",
          "type": "address"
        }
      ],
      "name": "OwnershipTransferred",
      "type": "event"
    },
    {
      "inputs": [],
      "name": "attackVictoryProbability",
      "outputs": [
        {
          "internalType": "uint256",
          "name": "",
          "type": "uint256"
        }
      ],
      "stateMutability": "view",
      "type": "function"
    },
    {
      "inputs": [
        {
          "internalType": "string",
          "name": "_name",
          "type": "string"
        }
      ],
      "name": "buyZombie",
      "outputs": [],
      "stateMutability": "payable",
      "type": "function"
    },
    {
      "inputs": [
        {
          "internalType": "uint256",
          "name": "_zombieId",
          "type": "uint256"
        },
        {
          "internalType": "string",
          "name": "_newName",
          "type": "string"
        }
      ],
      "name": "changeName",
      "outputs": [],
      "stateMutability": "nonpayable",
      "type": "function"
    },
    {
      "inputs": [],
      "name": "cooldownTime",
      "outputs": [
        {
          "internalType": "uint256",
          "name": "",
          "type": "uint256"
        }
      ],
      "stateMutability": "view",
      "type": "function"
    },
    {
      "inputs": [
        {
          "internalType": "string",
          "name": "_name",
          "type": "string"
        }
      ],
      "name": "createZombie",
      "outputs": [],
      "stateMutability": "nonpayable",
      "type": "function"
    },
    {
      "inputs": [
        {
          "internalType": "address",
          "name": "_owner",
          "type": "address"
        }
      ],
      "name": "getZombiesByOwner",
      "outputs": [
        {
          "internalType": "uint256[]",
          "name": "",
          "type": "uint256[]"
        }
      ],
      "stateMutability": "view",
      "type": "function"
    },
    {
      "inputs": [
        {
          "internalType": "uint256",
          "name": "_zombieId",
          "type": "uint256"
        }
      ],
      "name": "levelUp",
      "outputs": [],
      "stateMutability": "payable",
      "type": "function"
    },
    {
      "inputs": [],
      "name": "levelUpFee",
      "outputs": [
        {
          "internalType": "uint256",
          "name": "",
          "type": "uint256"
        }
      ],
      "stateMutability": "view",
      "type": "function"
    },
    {
      "inputs": [],
      "name": "owner",
      "outputs": [
        {
          "internalType": "address payable",
          "name": "",
          "type": "address"
        }
      ],
      "stateMutability": "view",
      "type": "function"
    },
    {
      "inputs": [
        {
          "internalType": "uint256",
          "name": "_fee",
          "type": "uint256"
        }
      ],
      "name": "setLevelUpFee",
      "outputs": [],
      "stateMutability": "nonpayable",
      "type": "function"
    },
    {
      "inputs": [
        {
          "internalType": "uint256",
          "name": "_price",
          "type": "uint256"
        }
      ],
      "name": "setZombiePrice",
      "outputs": [],
      "stateMutability": "nonpayable",
      "type": "function"
    },
    {
      "inputs": [
        {
          "internalType": "address payable",
          "name": "newOwner",
          "type": "address"
        }
      ],
      "name": "transferOwnership",
      "outputs": [],
      "stateMutability": "nonpayable",
      "type": "function"
    },
    {
      "inputs": [],
      "name": "zombieCount",
      "outputs": [
        {
          "internalType": "uint256",
          "name": "",
          "type": "uint256"
        }
      ],
      "stateMutability": "view",
      "type": "function"
    },
    {
      "inputs": [
        {
          "internalType": "uint256",
          "name": "",
          "type": "uint256"
        }
      ],
      "name": "zombieFeedTimes",
      "outputs": [
        {
          "internalType": "uint256",
          "name": "",
          "type": "uint256"
        }
      ],
      "stateMutability": "view",
      "type": "function"
    },
    {
      "inputs": [],
      "name": "zombiePrice",
      "outputs": [
        {
          "internalType": "uint256",
          "name": "",
          "type": "uint256"
        }
      ],
      "stateMutability": "view",
      "type": "function"
    },
    {
      "inputs": [
        {
          "internalType": "uint256",
          "name": "",
          "type": "uint256"
        }
      ],
      "name": "zombieToOwner",
      "outputs": [
        {
          "internalType": "address",
          "name": "",
          "type": "address"
        }
      ],
      "stateMutability": "view",
      "type": "function"
    },
    {
      "inputs": [
        {
          "internalType": "uint256",
          "name": "",
          "type": "uint256"
        }
      ],
      "name": "zombies",
      "outputs": [
        {
          "internalType": "string",
          "name": "name",
          "type": "string"
        },
        {
          "internalType": "uint256",
          "name": "dna",
          "type": "uint256"
        },
        {
          "internalType": "uint16",
          "name": "winCount",
          "type": "uint16"
        },
        {
          "internalType": "uint16",
          "name": "lossCount",
          "type": "uint16"
        },
        {
          "internalType": "uint32",
          "name": "level",
          "type": "uint32"
        },
        {
          "internalType": "uint32",
          "name": "readyTime",
          "type": "uint32"
        }
      ],
      "stateMutability": "view",
      "type": "function"
    },
    {
      "inputs": [
        {
          "internalType": "uint256",
          "name": "_attackVictoryProbability",
          "type": "uint256"
        }
      ],
      "name": "setAttackVictoryProbability",
      "outputs": [],
      "stateMutability": "nonpayable",
      "type": "function"
    },
    {
      "inputs": [
        {
          "internalType": "uint256",
          "name": "_zombieId",
          "type": "uint256"
        },
        {
          "internalType": "uint256",
          "name": "_targetId",
          "type": "uint256"
        }
      ],
      "name": "attack",
      "outputs": [
        {
          "internalType": "uint256",
          "name": "",
          "type": "uint256"
        }
      ],
      "stateMutability": "nonpayable",
      "type": "function"
    }
  ],
  "bytecode": "0x60806040526010600155600154600a6200001a9190620000f8565b60025562015180600355662386f26fc10000600455600060055566038d7ea4c68000600a556000600b556046600c553480156200005657600080fd5b50336000806101000a81548173ffffffffffffffffffffffffffffffffffffffff021916908373ffffffffffffffffffffffffffffffffffffffff1602179055506200027b565b6000808291508390505b6001851115620000ef57808604811115620000c757620000c66200023f565b5b6001851615620000d75780820291505b8081029050620000e7856200026e565b9450620000a7565b94509492505050565b6000620001058262000235565b9150620001128362000235565b9250620001417fffffffffffffffffffffffffffffffffffffffffffffffffffffffffffffffff848462000149565b905092915050565b6000826200015b57600190506200022e565b816200016b57600090506200022e565b81600181146200018457600281146200018f57620001c5565b60019150506200022e565b60ff841115620001a457620001a36200023f565b5b8360020a915084821115620001be57620001bd6200023f565b5b506200022e565b5060208310610133831016604e8410600b8410161715620001ff5782820a905083811115620001f957620001f86200023f565b5b6200022e565b6200020e84848460016200009d565b925090508184048111156200022857620002276200023f565b5b81810290505b9392505050565b6000819050919050565b7f4e487b7100000000000000000000000000000000000000000000000000000000600052601160045260246000fd5b60008160011c9050919050565b612740806200028b6000396000f3fe6080604052600436106101145760003560e01c8063ad822778116100a0578063ccf670f811610064578063ccf670f81461038a578063d521ef43146103b3578063e1fa7638146103dc578063ef6ad18b14610419578063f2fde38b1461045657610114565b8063ad822778146102c6578063b319c6b7146102ef578063b3f0ddb91461031a578063c39cbef114610336578063c4114b121461035f57610114565b8063594455f9116100e7578063594455f9146101f157806363721d6b1461021a57806383d404d8146102455780638da5cb5b14610270578063a94d153b1461029b57610114565b80630ce90ec2146101195780632052465e146101355780634412e10414610177578063528b7b8f146101b4575b600080fd5b610133600480360381019061012e9190611b9e565b61047f565b005b34801561014157600080fd5b5061015c60048036038101906101579190611b9e565b6105f3565b60405161016e96959493929190611f75565b60405180910390f35b34801561018357600080fd5b5061019e60048036038101906101999190611b0b565b610703565b6040516101ab9190611f53565b60405180910390f35b3480156101c057600080fd5b506101db60048036038101906101d69190611b9e565b6108a2565b6040516101e89190611f1d565b60405180910390f35b3480156101fd57600080fd5b5061021860048036038101906102139190611b9e565b6108d5565b005b34801561022657600080fd5b5061022f61096d565b60405161023c91906120bd565b60405180910390f35b34801561025157600080fd5b5061025a610973565b60405161026791906120bd565b60405180910390f35b34801561027c57600080fd5b50610285610979565b6040516102929190611f38565b60405180910390f35b3480156102a757600080fd5b506102b061099d565b6040516102bd91906120bd565b60405180910390f35b3480156102d257600080fd5b506102ed60048036038101906102e89190611b5d565b6109a3565b005b3480156102fb57600080fd5b50610304610a24565b60405161031191906120bd565b60405180910390f35b610334600480360381019061032f9190611b5d565b610a2a565b005b34801561034257600080fd5b5061035d60048036038101906103589190611bc7565b610ac6565b005b34801561036b57600080fd5b50610374610c72565b60405161038191906120bd565b60405180910390f35b34801561039657600080fd5b506103b160048036038101906103ac9190611b9e565b610c78565b005b3480156103bf57600080fd5b506103da60048036038101906103d59190611b9e565b610d10565b005b3480156103e857600080fd5b5061040360048036038101906103fe9190611c1f565b610da8565b60405161041091906120bd565b60405180910390f35b34801561042557600080fd5b50610440600480360381019061043b9190611b9e565b61114c565b60405161044d91906120bd565b60405180910390f35b34801561046257600080fd5b5061047d60048036038101906104789190611b34565b611164565b005b806007600082815260200190815260200160002060009054906101000a900473ffffffffffffffffffffffffffffffffffffffff1673ffffffffffffffffffffffffffffffffffffffff163373ffffffffffffffffffffffffffffffffffffffff1614610521576040517f08c379a000000000000000000000000000000000000000000000000000000000815260040161051890611fdd565b60405180910390fd5b600a543414610565576040517f08c379a000000000000000000000000000000000000000000000000000000000815260040161055c9061201d565b60405180910390fd5b6006828154811061059f577f4e487b7100000000000000000000000000000000000000000000000000000000600052603260045260246000fd5b9060005260206000209060030201600201600481819054906101000a900463ffffffff16809291906105d090612440565b91906101000a81548163ffffffff021916908363ffffffff160217905550505050565b6006818154811061060357600080fd5b906000526020600020906003020160009150905080600001805461062690612369565b80601f016020809104026020016040519081016040528092919081815260200182805461065290612369565b801561069f5780601f106106745761010080835404028352916020019161069f565b820191906000526020600020905b81548152906001019060200180831161068257829003601f168201915b5050505050908060010154908060020160009054906101000a900461ffff16908060020160029054906101000a900461ffff16908060020160049054906101000a900463ffffffff16908060020160089054906101000a900463ffffffff16905086565b60606000600860008473ffffffffffffffffffffffffffffffffffffffff1673ffffffffffffffffffffffffffffffffffffffff1681526020019081526020016000205467ffffffffffffffff811115610786577f4e487b7100000000000000000000000000000000000000000000000000000000600052604160045260246000fd5b6040519080825280602002602001820160405280156107b45781602001602082028036833780820191505090505b5090506000805b600680549050811015610897578473ffffffffffffffffffffffffffffffffffffffff166007600083815260200190815260200160002060009054906101000a900473ffffffffffffffffffffffffffffffffffffffff1673ffffffffffffffffffffffffffffffffffffffff1614156108845780838381518110610869577f4e487b7100000000000000000000000000000000000000000000000000000000600052603260045260246000fd5b6020026020010181815250508180610880906123f7565b9250505b808061088f906123f7565b9150506107bb565b508192505050919050565b60076020528060005260406000206000915054906101000a900473ffffffffffffffffffffffffffffffffffffffff1681565b60008054906101000a900473ffffffffffffffffffffffffffffffffffffffff1673ffffffffffffffffffffffffffffffffffffffff163373ffffffffffffffffffffffffffffffffffffffff1614610963576040517f08c379a000000000000000000000000000000000000000000000000000000000815260040161095a90611ffd565b60405180910390fd5b80600c8190555050565b60055481565b60045481565b60008054906101000a900473ffffffffffffffffffffffffffffffffffffffff1681565b600c5481565b6000600860003373ffffffffffffffffffffffffffffffffffffffff1673ffffffffffffffffffffffffffffffffffffffff16815260200190815260200160002054146109ef57600080fd5b60006109fa8261131f565b9050600a81610a09919061249b565b81610a149190612253565b9050610a208282611361565b5050565b60035481565b6000600860003373ffffffffffffffffffffffffffffffffffffffff1673ffffffffffffffffffffffffffffffffffffffff1681526020019081526020016000205411610a7657600080fd5b600454341015610a8557600080fd5b6000610a908261131f565b90506001600a82610aa1919061249b565b82610aac9190612253565b610ab691906121cc565b9050610ac28282611361565b5050565b6002838160068281548110610b04577f4e487b7100000000000000000000000000000000000000000000000000000000600052603260045260246000fd5b906000526020600020906003020160020160049054906101000a900463ffffffff1663ffffffff161015610b6d576040517f08c379a0000000000000000000000000000000000000000000000000000000008152600401610b649061209d565b60405180910390fd5b846007600082815260200190815260200160002060009054906101000a900473ffffffffffffffffffffffffffffffffffffffff1673ffffffffffffffffffffffffffffffffffffffff163373ffffffffffffffffffffffffffffffffffffffff1614610c0f576040517f08c379a0000000000000000000000000000000000000000000000000000000008152600401610c0690611fdd565b60405180910390fd5b848460068881548110610c4b577f4e487b7100000000000000000000000000000000000000000000000000000000600052603260045260246000fd5b90600052602060002090600302016000019190610c699291906118f1565b50505050505050565b600a5481565b60008054906101000a900473ffffffffffffffffffffffffffffffffffffffff1673ffffffffffffffffffffffffffffffffffffffff163373ffffffffffffffffffffffffffffffffffffffff1614610d06576040517f08c379a0000000000000000000000000000000000000000000000000000000008152600401610cfd90611ffd565b60405180910390fd5b80600a8190555050565b60008054906101000a900473ffffffffffffffffffffffffffffffffffffffff1673ffffffffffffffffffffffffffffffffffffffff163373ffffffffffffffffffffffffffffffffffffffff1614610d9e576040517f08c379a0000000000000000000000000000000000000000000000000000000008152600401610d9590611ffd565b60405180910390fd5b8060048190555050565b6000826007600082815260200190815260200160002060009054906101000a900473ffffffffffffffffffffffffffffffffffffffff1673ffffffffffffffffffffffffffffffffffffffff163373ffffffffffffffffffffffffffffffffffffffff1614610e4c576040517f08c379a0000000000000000000000000000000000000000000000000000000008152600401610e4390611fdd565b60405180910390fd5b6007600084815260200190815260200160002060009054906101000a900473ffffffffffffffffffffffffffffffffffffffff1673ffffffffffffffffffffffffffffffffffffffff163373ffffffffffffffffffffffffffffffffffffffff161415610eee576040517f08c379a0000000000000000000000000000000000000000000000000000000008152600401610ee59061203d565b60405180910390fd5b600060068581548110610f2a577f4e487b7100000000000000000000000000000000000000000000000000000000600052603260045260246000fd5b90600052602060002090600302019050610f43816115e8565b610f82576040517f08c379a0000000000000000000000000000000000000000000000000000000008152600401610f799061207d565b60405180910390fd5b600060068581548110610fbe577f4e487b7100000000000000000000000000000000000000000000000000000000600052603260045260246000fd5b906000526020600020906003020190506000610fda606461160f565b9050600c5481116110bb5782600201600081819054906101000a900461ffff1680929190611007906123cc565b91906101000a81548161ffff021916908361ffff1602179055505082600201600481819054906101000a900463ffffffff168092919061104690612440565b91906101000a81548163ffffffff021916908363ffffffff1602179055505081600201600281819054906101000a900461ffff1680929190611087906123cc565b91906101000a81548161ffff021916908361ffff160217905550506110b087836001015461166b565b869450505050611145565b82600201600281819054906101000a900461ffff16809291906110dd906123cc565b91906101000a81548161ffff021916908361ffff1602179055505081600201600081819054906101000a900461ffff168092919061111a906123cc565b91906101000a81548161ffff021916908361ffff1602179055505061113e83611846565b8594505050505b5092915050565b60096020528060005260406000206000915090505481565b60008054906101000a900473ffffffffffffffffffffffffffffffffffffffff1673ffffffffffffffffffffffffffffffffffffffff163373ffffffffffffffffffffffffffffffffffffffff16146111f2576040517f08c379a00000000000000000000000000000000000000000000000000000000081526004016111e990611ffd565b60405180910390fd5b600073ffffffffffffffffffffffffffffffffffffffff168173ffffffffffffffffffffffffffffffffffffffff161415611262576040517f08c379a000000000000000000000000000000000000000000000000000000000815260040161125990611ffd565b60405180910390fd5b8073ffffffffffffffffffffffffffffffffffffffff1660008054906101000a900473ffffffffffffffffffffffffffffffffffffffff1673ffffffffffffffffffffffffffffffffffffffff167f8be0079c531659141344cd1fd0a4f28419497f9722a3daafe3b4186f6b6457e060405160405180910390a3806000806101000a81548173ffffffffffffffffffffffffffffffffffffffff021916908373ffffffffffffffffffffffffffffffffffffffff16021790555050565b60006002548242604051602001611337929190611eb8565b6040516020818303038152906040528051906020012060001c61135a919061249b565b9050919050565b60066040518060c00160405280848152602001838152602001600061ffff168152602001600061ffff168152602001600163ffffffff168152602001600063ffffffff16815250908060018154018082558091505060019003906000526020600020906003020160009091909190915060008201518160000190805190602001906113ed929190611977565b506020820151816001015560408201518160020160006101000a81548161ffff021916908361ffff16021790555060608201518160020160026101000a81548161ffff021916908361ffff16021790555060808201518160020160046101000a81548163ffffffff021916908363ffffffff16021790555060a08201518160020160086101000a81548163ffffffff021916908363ffffffff1602179055505050600060016006805490506114a29190612253565b9050336007600083815260200190815260200160002060006101000a81548173ffffffffffffffffffffffffffffffffffffffff021916908373ffffffffffffffffffffffffffffffffffffffff1602179055506115496001600860003373ffffffffffffffffffffffffffffffffffffffff1673ffffffffffffffffffffffffffffffffffffffff1681526020019081526020016000205461189f90919063ffffffff16565b600860003373ffffffffffffffffffffffffffffffffffffffff1673ffffffffffffffffffffffffffffffffffffffff168152602001908152602001600020819055506115a2600160055461189f90919063ffffffff16565b6005819055507f88f026aacbbecc90c18411df4b1185fd8d9be2470f1962f192bf84a27d0704b78184846040516115db939291906120d8565b60405180910390a1505050565b6000428260020160089054906101000a900463ffffffff1663ffffffff1611159050919050565b6000600b6000815480929190611624906123f7565b9190505550814233600b5460405160200161164193929190611ee0565b6040516020818303038152906040528051906020012060001c611664919061249b565b9050919050565b816007600082815260200190815260200160002060009054906101000a900473ffffffffffffffffffffffffffffffffffffffff1673ffffffffffffffffffffffffffffffffffffffff163373ffffffffffffffffffffffffffffffffffffffff161461170d576040517f08c379a000000000000000000000000000000000000000000000000000000000815260040161170490611fdd565b60405180910390fd5b600060068481548110611749577f4e487b7100000000000000000000000000000000000000000000000000000000600052603260045260246000fd5b90600052602060002090600302019050611762816115e8565b6117a1576040517f08c379a00000000000000000000000000000000000000000000000000000000081526004016117989061205d565b60405180910390fd5b600254836117af919061249b565b9250600060028483600101546117c591906121cc565b6117cf9190612222565b90506009600a826117e0919061249b565b826117eb9190612253565b6117f591906121cc565b90506118366040518060400160405280600681526020017f4e6f4e616d65000000000000000000000000000000000000000000000000000081525082611361565b61183f82611846565b5050505050565b620151806003544261185891906121cc565b611862919061249b565b6003544261187091906121cc565b61187a9190612287565b8160020160086101000a81548163ffffffff021916908363ffffffff16021790555050565b60008082846118ae91906121cc565b9050838110156118e7577f4e487b7100000000000000000000000000000000000000000000000000000000600052600160045260246000fd5b8091505092915050565b8280546118fd90612369565b90600052602060002090601f01602090048101928261191f5760008555611966565b82601f1061193857803560ff1916838001178555611966565b82800160010185558215611966579182015b8281111561196557823582559160200191906001019061194a565b5b50905061197391906119fd565b5090565b82805461198390612369565b90600052602060002090601f0160209004810192826119a557600085556119ec565b82601f106119be57805160ff19168380011785556119ec565b828001600101855582156119ec579182015b828111156119eb5782518255916020019190600101906119d0565b5b5090506119f991906119fd565b5090565b5b80821115611a165760008160009055506001016119fe565b5090565b6000611a2d611a288461213b565b612116565b905082815260208101848484011115611a4557600080fd5b611a50848285612327565b509392505050565b600081359050611a67816126c5565b92915050565b600081359050611a7c816126dc565b92915050565b60008083601f840112611a9457600080fd5b8235905067ffffffffffffffff811115611aad57600080fd5b602083019150836001820283011115611ac557600080fd5b9250929050565b600082601f830112611add57600080fd5b8135611aed848260208601611a1a565b91505092915050565b600081359050611b05816126f3565b92915050565b600060208284031215611b1d57600080fd5b6000611b2b84828501611a58565b91505092915050565b600060208284031215611b4657600080fd5b6000611b5484828501611a6d565b91505092915050565b600060208284031215611b6f57600080fd5b600082013567ffffffffffffffff811115611b8957600080fd5b611b9584828501611acc565b91505092915050565b600060208284031215611bb057600080fd5b6000611bbe84828501611af6565b91505092915050565b600080600060408486031215611bdc57600080fd5b6000611bea86828701611af6565b935050602084013567ffffffffffffffff811115611c0757600080fd5b611c1386828701611a82565b92509250509250925092565b60008060408385031215611c3257600080fd5b6000611c4085828601611af6565b9250506020611c5185828601611af6565b9150509250929050565b6000611c678383611e74565b60208301905092915050565b611c7c816122cd565b82525050565b611c8b816122bb565b82525050565b611ca2611c9d826122bb565b61246d565b82525050565b6000611cb38261217c565b611cbd818561219f565b9350611cc88361216c565b8060005b83811015611cf9578151611ce08882611c5b565b9750611ceb83612192565b925050600181019050611ccc565b5085935050505092915050565b6000611d1182612187565b611d1b81856121b0565b9350611d2b818560208601612336565b611d3481612588565b840191505092915050565b6000611d4a82612187565b611d5481856121c1565b9350611d64818560208601612336565b80840191505092915050565b6000611d7d6013836121b0565b9150611d88826125a6565b602082019050919050565b6000611da06013836121b0565b9150611dab826125cf565b602082019050919050565b6000611dc3600f836121b0565b9150611dce826125f8565b602082019050919050565b6000611de6601b836121b0565b9150611df182612621565b602082019050919050565b6000611e096013836121b0565b9150611e148261264a565b602082019050919050565b6000611e2c6019836121b0565b9150611e3782612673565b602082019050919050565b6000611e4f6017836121b0565b9150611e5a8261269c565b602082019050919050565b611e6e816122df565b82525050565b611e7d8161230d565b82525050565b611e8c8161230d565b82525050565b611ea3611e9e8261230d565b612491565b82525050565b611eb281612317565b82525050565b6000611ec48285611d3f565b9150611ed08284611e92565b6020820191508190509392505050565b6000611eec8286611e92565b602082019150611efc8285611c91565b601482019150611f0c8284611e92565b602082019150819050949350505050565b6000602082019050611f326000830184611c82565b92915050565b6000602082019050611f4d6000830184611c73565b92915050565b60006020820190508181036000830152611f6d8184611ca8565b905092915050565b600060c0820190508181036000830152611f8f8189611d06565b9050611f9e6020830188611e83565b611fab6040830187611e65565b611fb86060830186611e65565b611fc56080830185611ea9565b611fd260a0830184611ea9565b979650505050505050565b60006020820190508181036000830152611ff681611d70565b9050919050565b6000602082019050818103600083015261201681611d93565b9050919050565b6000602082019050818103600083015261203681611db6565b9050919050565b6000602082019050818103600083015261205681611dd9565b9050919050565b6000602082019050818103600083015261207681611dfc565b9050919050565b6000602082019050818103600083015261209681611e1f565b9050919050565b600060208201905081810360008301526120b681611e42565b9050919050565b60006020820190506120d26000830184611e83565b92915050565b60006060820190506120ed6000830186611e83565b81810360208301526120ff8185611d06565b905061210e6040830184611e83565b949350505050565b6000612120612131565b905061212c828261239b565b919050565b6000604051905090565b600067ffffffffffffffff82111561215657612155612559565b5b61215f82612588565b9050602081019050919050565b6000819050602082019050919050565b600081519050919050565b600081519050919050565b6000602082019050919050565b600082825260208201905092915050565b600082825260208201905092915050565b600081905092915050565b60006121d78261230d565b91506121e28361230d565b9250827fffffffffffffffffffffffffffffffffffffffffffffffffffffffffffffffff03821115612217576122166124cc565b5b828201905092915050565b600061222d8261230d565b91506122388361230d565b925082612248576122476124fb565b5b828204905092915050565b600061225e8261230d565b91506122698361230d565b92508282101561227c5761227b6124cc565b5b828203905092915050565b600061229282612317565b915061229d83612317565b9250828210156122b0576122af6124cc565b5b828203905092915050565b60006122c6826122ed565b9050919050565b60006122d8826122ed565b9050919050565b600061ffff82169050919050565b600073ffffffffffffffffffffffffffffffffffffffff82169050919050565b6000819050919050565b600063ffffffff82169050919050565b82818337600083830152505050565b60005b83811015612354578082015181840152602081019050612339565b83811115612363576000848401525b50505050565b6000600282049050600182168061238157607f821691505b602082108114156123955761239461252a565b5b50919050565b6123a482612588565b810181811067ffffffffffffffff821117156123c3576123c2612559565b5b80604052505050565b60006123d7826122df565b915061ffff8214156123ec576123eb6124cc565b5b600182019050919050565b60006124028261230d565b91507fffffffffffffffffffffffffffffffffffffffffffffffffffffffffffffffff821415612435576124346124cc565b5b600182019050919050565b600061244b82612317565b915063ffffffff821415612462576124616124cc565b5b600182019050919050565b60006124788261247f565b9050919050565b600061248a82612599565b9050919050565b6000819050919050565b60006124a68261230d565b91506124b18361230d565b9250826124c1576124c06124fb565b5b828206905092915050565b7f4e487b7100000000000000000000000000000000000000000000000000000000600052601160045260246000fd5b7f4e487b7100000000000000000000000000000000000000000000000000000000600052601260045260246000fd5b7f4e487b7100000000000000000000000000000000000000000000000000000000600052602260045260246000fd5b7f4e487b7100000000000000000000000000000000000000000000000000000000600052604160045260246000fd5b6000601f19601f8301169050919050565b60008160601b9050919050565b7f5a6f6d626965206973206e6f7420796f75727300000000000000000000000000600082015250565b7f4d75737420636f6e7472616374206f776e657200000000000000000000000000600082015250565b7f4e6f20656e6f756768206d6f6e65790000000000000000000000000000000000600082015250565b7f54686520746172676574207a6f6d62696520697320796f757273210000000000600082015250565b7f5a6f6d626965206973206e6f7420726561647900000000000000000000000000600082015250565b7f596f7572207a6f6d626965206973206e6f742072656164792100000000000000600082015250565b7f4c6576656c206973206e6f742073756666696369656e74000000000000000000600082015250565b6126ce816122bb565b81146126d957600080fd5b50565b6126e5816122cd565b81146126f057600080fd5b50565b6126fc8161230d565b811461270757600080fd5b5056fea2646970667358221220ea3721a58e1fdec39d097c45191c892eb3bdab65e5c09d286ae404b4a2106bb064736f6c63430008040033",
  "immutableReferences": {},
  "source": "// SPDX-License-Identifier: GPL-3.0\r\npragma solidity >=0.7.0 <0.9.0;\r\n\r\nimport \"./zombieHelper.sol\";\r\n\r\ncontract ZombieAttack is ZombieHelper{\r\n    \r\n    uint randNonce = 0;\r\n    uint public attackVictoryProbability = 70;\r\n    \r\n    function randMod(uint _modulus) internal returns(uint){\r\n        randNonce++;\r\n        return uint(keccak256(abi.encodePacked(block.timestamp, msg.sender,randNonce))) % _modulus;\r\n    }\r\n    \r\n    function setAttackVictoryProbability(uint _attackVictoryProbability)public onlyOwner{\r\n        attackVictoryProbability = _attackVictoryProbability;\r\n    }\r\n    \r\n    function attack(uint _zombieId,uint _targetId)external onlyOwnerOf(_zombieId) returns(uint){\r\n        require(msg.sender != zombieToOwner[_targetId],'The target zombie is yours!');\r\n        Zombie storage myZombie = zombies[_zombieId];\r\n        require(_isReady(myZombie),'Your zombie is not ready!');\r\n        Zombie storage enemyZombie = zombies[_targetId];\r\n        uint rand = randMod(100);\r\n        if(rand<=attackVictoryProbability){\r\n            myZombie.winCount++;\r\n            myZombie.level++;\r\n            enemyZombie.lossCount++;\r\n            multiply(_zombieId,enemyZombie.dna);\r\n            return _zombieId;\r\n        }else{\r\n            myZombie.lossCount++;\r\n            enemyZombie.winCount++;\r\n            _triggerCooldown(myZombie);\r\n            return _targetId;\r\n        }\r\n    }\r\n    \r\n}",
  "sourcePath": "E:/erc20-contract/truffle_proj/contracts/zombieAttack.sol",
  "compiler": {
    "name": "solc",
    "version": "0.8.4+commit.c7e474f2.Emscripten.clang"
  },
  "schemaVersion": "3.4.1",
  "updatedAt": "2021-07-01T07:07:49.899Z",
  "devdoc": {
    "kind": "dev",
    "methods": {
      "transferOwnership(address)": {
        "details": "Allows the current owner to transfer control of the contract to a newOwner.",
        "params": {
          "newOwner": "The address to transfer ownership to."
        }
      }
    },
    "version": 1
  },
  "userdoc": {
    "kind": "user",
    "methods": {},
    "version": 1
  }
}