{
  "contractName": "ZombieMarket",
  "abi": [
    {
      "anonymous": false,
      "inputs": [
        {
          "indexed": true,
          "internalType": "address",
          "name": "_owner",
          "type": "address"
        },
        {
          "indexed": true,
          "internalType": "address",
          "name": "_approved",
          "type": "address"
        },
        {
          "indexed": false,
          "internalType": "uint256",
          "name": "_tokenId",
          "type": "uint256"
        }
      ],
      "name": "Approval",
      "type": "event"
    },
    {
      "anonymous": false,
      "inputs": [
        {
          "indexed": true,
          "internalType": "uint256",
          "name": "zombieId",
          "type": "uint256"
        },
        {
          "indexed": true,
          "internalType": "address",
          "name": "buyer",
          "type": "address"
        },
        {
          "indexed": true,
          "internalType": "address",
          "name": "seller",
          "type": "address"
        }
      ],
      "name": "BuyShopZombie",
      "type": "event"
    },
    {
      "anonymous": false,
      "inputs": [
        {
          "indexed": false,
          "internalType": "uint256",
          "name": "zombieId",
          "type": "uint256"
        },
        {
          "indexed": false,
          "internalType": "string",
          "name": "name",
          "type": "string"
        },
        {
          "indexed": false,
          "internalType": "uint256",
          "name": "dna",
          "type": "uint256"
        }
      ],
      "name": "NewZombie",
      "type": "event"
    },
    {
      "anonymous": false,
      "inputs": [
        {
          "indexed": true,
          "internalType": "address",
          "name": "previousOwner",
          "type": "address"
        },
        {
          "indexed": true,
          "internalType": "address",
          "name": "newOwner",
          "type": "address"
        }
      ],
      "name": "OwnershipTransferred",
      "type": "event"
    },
    {
      "anonymous": false,
      "inputs": [
        {
          "indexed": true,
          "internalType": "uint256",
          "name": "zombieId",
          "type": "uint256"
        },
        {
          "indexed": true,
          "internalType": "address",
          "name": "seller",
          "type": "address"
        }
      ],
      "name": "SaleZombie",
      "type": "event"
    },
    {
      "anonymous": false,
      "inputs": [
        {
          "indexed": true,
          "internalType": "address",
          "name": "_from",
          "type": "address"
        },
        {
          "indexed": true,
          "internalType": "address",
          "name": "_to",
          "type": "address"
        },
        {
          "indexed": false,
          "internalType": "uint256",
          "name": "_tokenId",
          "type": "uint256"
        }
      ],
      "name": "Transfer",
      "type": "event"
    },
    {
      "inputs": [
        {
          "internalType": "address",
          "name": "_to",
          "type": "address"
        },
        {
          "internalType": "uint256",
          "name": "_tokenId",
          "type": "uint256"
        }
      ],
      "name": "approve",
      "outputs": [],
      "stateMutability": "nonpayable",
      "type": "function"
    },
    {
      "inputs": [
        {
          "internalType": "address",
          "name": "_owner",
          "type": "address"
        }
      ],
      "name": "balanceOf",
      "outputs": [
        {
          "internalType": "uint256",
          "name": "_balance",
          "type": "uint256"
        }
      ],
      "stateMutability": "view",
      "type": "function"
    },
    {
      "inputs": [
        {
          "internalType": "string",
          "name": "_name",
          "type": "string"
        }
      ],
      "name": "buyZombie",
      "outputs": [],
      "stateMutability": "payable",
      "type": "function"
    },
    {
      "inputs": [
        {
          "internalType": "uint256",
          "name": "_zombieId",
          "type": "uint256"
        },
        {
          "internalType": "string",
          "name": "_newName",
          "type": "string"
        }
      ],
      "name": "changeName",
      "outputs": [],
      "stateMutability": "nonpayable",
      "type": "function"
    },
    {
      "inputs": [],
      "name": "cooldownTime",
      "outputs": [
        {
          "internalType": "uint256",
          "name": "",
          "type": "uint256"
        }
      ],
      "stateMutability": "view",
      "type": "function"
    },
    {
      "inputs": [
        {
          "internalType": "string",
          "name": "_name",
          "type": "string"
        }
      ],
      "name": "createZombie",
      "outputs": [],
      "stateMutability": "nonpayable",
      "type": "function"
    },
    {
      "inputs": [
        {
          "internalType": "address",
          "name": "_owner",
          "type": "address"
        }
      ],
      "name": "getZombiesByOwner",
      "outputs": [
        {
          "internalType": "uint256[]",
          "name": "",
          "type": "uint256[]"
        }
      ],
      "stateMutability": "view",
      "type": "function"
    },
    {
      "inputs": [
        {
          "internalType": "uint256",
          "name": "_zombieId",
          "type": "uint256"
        }
      ],
      "name": "levelUp",
      "outputs": [],
      "stateMutability": "payable",
      "type": "function"
    },
    {
      "inputs": [],
      "name": "levelUpFee",
      "outputs": [
        {
          "internalType": "uint256",
          "name": "",
          "type": "uint256"
        }
      ],
      "stateMutability": "view",
      "type": "function"
    },
    {
      "inputs": [],
      "name": "minPrice",
      "outputs": [
        {
          "internalType": "uint256",
          "name": "",
          "type": "uint256"
        }
      ],
      "stateMutability": "view",
      "type": "function"
    },
    {
      "inputs": [],
      "name": "owner",
      "outputs": [
        {
          "internalType": "address payable",
          "name": "",
          "type": "address"
        }
      ],
      "stateMutability": "view",
      "type": "function"
    },
    {
      "inputs": [
        {
          "internalType": "uint256",
          "name": "_tokenId",
          "type": "uint256"
        }
      ],
      "name": "ownerOf",
      "outputs": [
        {
          "internalType": "address",
          "name": "_owner",
          "type": "address"
        }
      ],
      "stateMutability": "view",
      "type": "function"
    },
    {
      "inputs": [
        {
          "internalType": "uint256",
          "name": "_fee",
          "type": "uint256"
        }
      ],
      "name": "setLevelUpFee",
      "outputs": [],
      "stateMutability": "nonpayable",
      "type": "function"
    },
    {
      "inputs": [
        {
          "internalType": "uint256",
          "name": "_price",
          "type": "uint256"
        }
      ],
      "name": "setZombiePrice",
      "outputs": [],
      "stateMutability": "nonpayable",
      "type": "function"
    },
    {
      "inputs": [
        {
          "internalType": "uint256",
          "name": "_tokenId",
          "type": "uint256"
        }
      ],
      "name": "takeOwnership",
      "outputs": [],
      "stateMutability": "nonpayable",
      "type": "function"
    },
    {
      "inputs": [],
      "name": "tax",
      "outputs": [
        {
          "internalType": "uint256",
          "name": "",
          "type": "uint256"
        }
      ],
      "stateMutability": "view",
      "type": "function"
    },
    {
      "inputs": [
        {
          "internalType": "address",
          "name": "_to",
          "type": "address"
        },
        {
          "internalType": "uint256",
          "name": "_tokenId",
          "type": "uint256"
        }
      ],
      "name": "transfer",
      "outputs": [],
      "stateMutability": "nonpayable",
      "type": "function"
    },
    {
      "inputs": [
        {
          "internalType": "address payable",
          "name": "newOwner",
          "type": "address"
        }
      ],
      "name": "transferOwnership",
      "outputs": [],
      "stateMutability": "nonpayable",
      "type": "function"
    },
    {
      "inputs": [],
      "name": "zombieCount",
      "outputs": [
        {
          "internalType": "uint256",
          "name": "",
          "type": "uint256"
        }
      ],
      "stateMutability": "view",
      "type": "function"
    },
    {
      "inputs": [
        {
          "internalType": "uint256",
          "name": "",
          "type": "uint256"
        }
      ],
      "name": "zombieFeedTimes",
      "outputs": [
        {
          "internalType": "uint256",
          "name": "",
          "type": "uint256"
        }
      ],
      "stateMutability": "view",
      "type": "function"
    },
    {
      "inputs": [],
      "name": "zombiePrice",
      "outputs": [
        {
          "internalType": "uint256",
          "name": "",
          "type": "uint256"
        }
      ],
      "stateMutability": "view",
      "type": "function"
    },
    {
      "inputs": [
        {
          "internalType": "uint256",
          "name": "",
          "type": "uint256"
        }
      ],
      "name": "zombieShop",
      "outputs": [
        {
          "internalType": "address payable",
          "name": "seller",
          "type": "address"
        },
        {
          "internalType": "uint256",
          "name": "price",
          "type": "uint256"
        }
      ],
      "stateMutability": "view",
      "type": "function"
    },
    {
      "inputs": [
        {
          "internalType": "uint256",
          "name": "",
          "type": "uint256"
        }
      ],
      "name": "zombieToOwner",
      "outputs": [
        {
          "internalType": "address",
          "name": "",
          "type": "address"
        }
      ],
      "stateMutability": "view",
      "type": "function"
    },
    {
      "inputs": [
        {
          "internalType": "uint256",
          "name": "",
          "type": "uint256"
        }
      ],
      "name": "zombies",
      "outputs": [
        {
          "internalType": "string",
          "name": "name",
          "type": "string"
        },
        {
          "internalType": "uint256",
          "name": "dna",
          "type": "uint256"
        },
        {
          "internalType": "uint16",
          "name": "winCount",
          "type": "uint16"
        },
        {
          "internalType": "uint16",
          "name": "lossCount",
          "type": "uint16"
        },
        {
          "internalType": "uint32",
          "name": "level",
          "type": "uint32"
        },
        {
          "internalType": "uint32",
          "name": "readyTime",
          "type": "uint32"
        }
      ],
      "stateMutability": "view",
      "type": "function"
    },
    {
      "inputs": [
        {
          "internalType": "uint256",
          "name": "_zombieId",
          "type": "uint256"
        },
        {
          "internalType": "uint256",
          "name": "_price",
          "type": "uint256"
        }
      ],
      "name": "saleMyZombie",
      "outputs": [],
      "stateMutability": "nonpayable",
      "type": "function"
    },
    {
      "inputs": [
        {
          "internalType": "uint256",
          "name": "_zombieId",
          "type": "uint256"
        }
      ],
      "name": "buyShopZombie",
      "outputs": [],
      "stateMutability": "payable",
      "type": "function"
    },
    {
      "inputs": [],
      "name": "getShopZombies",
      "outputs": [
        {
          "internalType": "uint256[]",
          "name": "",
          "type": "uint256[]"
        }
      ],
      "stateMutability": "view",
      "type": "function"
    },
    {
      "inputs": [
        {
          "internalType": "uint256",
          "name": "_value",
          "type": "uint256"
        }
      ],
      "name": "setTax",
      "outputs": [],
      "stateMutability": "nonpayable",
      "type": "function"
    },
    {
      "inputs": [
        {
          "internalType": "uint256",
          "name": "_value",
          "type": "uint256"
        }
      ],
      "name": "setMinPrice",
      "outputs": [],
      "stateMutability": "nonpayable",
      "type": "function"
    }
  ],
  "bytecode": "0x60806040526010600155600154600a6200001a9190620000f8565b60025562015180600355662386f26fc10000600455600060055566038d7ea4c68000600a556001600e556001600f553480156200005657600080fd5b50336000806101000a81548173ffffffffffffffffffffffffffffffffffffffff021916908373ffffffffffffffffffffffffffffffffffffffff1602179055506200027b565b6000808291508390505b6001851115620000ef57808604811115620000c757620000c66200023f565b5b6001851615620000d75780820291505b8081029050620000e7856200026e565b9450620000a7565b94509492505050565b6000620001058262000235565b9150620001128362000235565b9250620001417fffffffffffffffffffffffffffffffffffffffffffffffffffffffffffffffff848462000149565b905092915050565b6000826200015b57600190506200022e565b816200016b57600090506200022e565b81600181146200018457600281146200018f57620001c5565b60019150506200022e565b60ff841115620001a457620001a36200023f565b5b8360020a915084821115620001be57620001bd6200023f565b5b506200022e565b5060208310610133831016604e8410600b8410161715620001ff5782820a905083811115620001f957620001f86200023f565b5b6200022e565b6200020e84848460016200009d565b925090508184048111156200022857620002276200023f565b5b81810290505b9392505050565b6000819050919050565b7f4e487b7100000000000000000000000000000000000000000000000000000000600052601160045260246000fd5b60008160011c9050919050565b612cab806200028b6000396000f3fe6080604052600436106101c25760003560e01c80638da5cb5b116100f7578063b3f0ddb911610095578063d521ef4311610064578063d521ef431461062d578063e45be8eb14610656578063ef6ad18b14610681578063f2fde38b146106be576101c2565b8063b3f0ddb914610594578063c39cbef1146105b0578063c4114b12146105d9578063ccf670f814610604576101c2565b8063ad822778116100d1578063ad822778146104ee578063b2e6ceeb14610517578063b319c6b714610540578063b32c012d1461056b576101c2565b80638da5cb5b1461046f57806399c8d5561461049a578063a9059cbb146104c5576101c2565b8063528b7b8f1161016457806363721d6b1161013e57806363721d6b146103b15780636cc29f2e146103dc57806370a082311461040757806383d404d814610444576101c2565b8063528b7b8f1461030e5780635ea8cd121461034b5780636352211e14610374576101c2565b8063208c750e116101a0578063208c750e1461024e5780632e5bb6ff1461026a5780634412e1041461029357806345c6ba39146102d0576101c2565b8063095ea7b3146101c75780630ce90ec2146101f05780632052465e1461020c575b600080fd5b3480156101d357600080fd5b506101ee60048036038101906101e99190612250565b6106e7565b005b61020a600480360381019061020591906122cd565b610845565b005b34801561021857600080fd5b50610233600480360381019061022e91906122cd565b6109b9565b60405161024596959493929190612633565b60405180910390f35b610268600480360381019061026391906122cd565b610ac9565b005b34801561027657600080fd5b50610291600480360381019061028c91906122cd565b610cdb565b005b34801561029f57600080fd5b506102ba60048036038101906102b591906121fe565b610d73565b6040516102c79190612611565b60405180910390f35b3480156102dc57600080fd5b506102f760048036038101906102f291906122cd565b610f12565b6040516103059291906125e8565b60405180910390f35b34801561031a57600080fd5b50610335600480360381019061033091906122cd565b610f56565b60405161034291906125b2565b60405180910390f35b34801561035757600080fd5b50610372600480360381019061036d91906122cd565b610f89565b005b34801561038057600080fd5b5061039b600480360381019061039691906122cd565b611021565b6040516103a891906125b2565b60405180910390f35b3480156103bd57600080fd5b506103c661105e565b6040516103d3919061273b565b60405180910390f35b3480156103e857600080fd5b506103f1611064565b6040516103fe9190612611565b60405180910390f35b34801561041357600080fd5b5061042e600480360381019061042991906121fe565b61117b565b60405161043b919061273b565b60405180910390f35b34801561045057600080fd5b506104596111c4565b604051610466919061273b565b60405180910390f35b34801561047b57600080fd5b506104846111ca565b60405161049191906125cd565b60405180910390f35b3480156104a657600080fd5b506104af6111ee565b6040516104bc919061273b565b60405180910390f35b3480156104d157600080fd5b506104ec60048036038101906104e79190612250565b6111f4565b005b3480156104fa57600080fd5b506105156004803603810190610510919061228c565b6112a6565b005b34801561052357600080fd5b5061053e600480360381019061053991906122cd565b611327565b005b34801561054c57600080fd5b506105556113ae565b604051610562919061273b565b60405180910390f35b34801561057757600080fd5b50610592600480360381019061058d919061234e565b6113b4565b005b6105ae60048036038101906105a9919061228c565b611598565b005b3480156105bc57600080fd5b506105d760048036038101906105d291906122f6565b611634565b005b3480156105e557600080fd5b506105ee6117e0565b6040516105fb919061273b565b60405180910390f35b34801561061057600080fd5b5061062b600480360381019061062691906122cd565b6117e6565b005b34801561063957600080fd5b50610654600480360381019061064f91906122cd565b61187e565b005b34801561066257600080fd5b5061066b611916565b604051610678919061273b565b60405180910390f35b34801561068d57600080fd5b506106a860048036038101906106a391906122cd565b61191c565b6040516106b5919061273b565b60405180910390f35b3480156106ca57600080fd5b506106e560048036038101906106e09190612227565b611934565b005b806007600082815260200190815260200160002060009054906101000a900473ffffffffffffffffffffffffffffffffffffffff1673ffffffffffffffffffffffffffffffffffffffff163373ffffffffffffffffffffffffffffffffffffffff1614610789576040517f08c379a00000000000000000000000000000000000000000000000000000000081526004016107809061269b565b60405180910390fd5b82600b600084815260200190815260200160002060006101000a81548173ffffffffffffffffffffffffffffffffffffffff021916908373ffffffffffffffffffffffffffffffffffffffff1602179055508273ffffffffffffffffffffffffffffffffffffffff163373ffffffffffffffffffffffffffffffffffffffff167f8c5be1e5ebec7d5bd14f71427d1e84f3dd0314c0f7b2291e5b200ac8c7c3b92584604051610838919061273b565b60405180910390a3505050565b806007600082815260200190815260200160002060009054906101000a900473ffffffffffffffffffffffffffffffffffffffff1673ffffffffffffffffffffffffffffffffffffffff163373ffffffffffffffffffffffffffffffffffffffff16146108e7576040517f08c379a00000000000000000000000000000000000000000000000000000000081526004016108de9061269b565b60405180910390fd5b600a54341461092b576040517f08c379a0000000000000000000000000000000000000000000000000000000008152600401610922906126fb565b60405180910390fd5b60068281548110610965577f4e487b7100000000000000000000000000000000000000000000000000000000600052603260045260246000fd5b9060005260206000209060030201600201600481819054906101000a900463ffffffff168092919061099690612a2e565b91906101000a81548163ffffffff021916908363ffffffff160217905550505050565b600681815481106109c957600080fd5b90600052602060002090600302016000915090508060000180546109ec90612982565b80601f0160208091040260200160405190810160405280929190818152602001828054610a1890612982565b8015610a655780601f10610a3a57610100808354040283529160200191610a65565b820191906000526020600020905b815481529060010190602001808311610a4857829003601f168201915b5050505050908060010154908060020160009054906101000a900461ffff16908060020160029054906101000a900461ffff16908060020160049054906101000a900463ffffffff16908060020160089054906101000a900463ffffffff16905086565b600c600082815260200190815260200160002060010154341015610b22576040517f08c379a0000000000000000000000000000000000000000000000000000000008152600401610b19906126fb565b60405180910390fd5b610b63600c600083815260200190815260200160002060000160009054906101000a900473ffffffffffffffffffffffffffffffffffffffff163383611aef565b600c600082815260200190815260200160002060000160009054906101000a900473ffffffffffffffffffffffffffffffffffffffff1673ffffffffffffffffffffffffffffffffffffffff166108fc600e5434610bc191906128a0565b9081150290604051600060405180830381858888f19350505050158015610bec573d6000803e3d6000fd5b50600c6000828152602001908152602001600020600080820160006101000a81549073ffffffffffffffffffffffffffffffffffffffff0219169055600182016000905550506001600d54610c4191906128a0565b600d81905550600c600082815260200190815260200160002060000160009054906101000a900473ffffffffffffffffffffffffffffffffffffffff1673ffffffffffffffffffffffffffffffffffffffff163373ffffffffffffffffffffffffffffffffffffffff16827f2705da8f1145dc87c9e6b9aa3ecd69d3d64da132acba45c803563ad52f5c2b5f60405160405180910390a450565b60008054906101000a900473ffffffffffffffffffffffffffffffffffffffff1673ffffffffffffffffffffffffffffffffffffffff163373ffffffffffffffffffffffffffffffffffffffff1614610d69576040517f08c379a0000000000000000000000000000000000000000000000000000000008152600401610d60906126db565b60405180910390fd5b80600e8190555050565b60606000600860008473ffffffffffffffffffffffffffffffffffffffff1673ffffffffffffffffffffffffffffffffffffffff1681526020019081526020016000205467ffffffffffffffff811115610df6577f4e487b7100000000000000000000000000000000000000000000000000000000600052604160045260246000fd5b604051908082528060200260200182016040528015610e245781602001602082028036833780820191505090505b5090506000805b600680549050811015610f07578473ffffffffffffffffffffffffffffffffffffffff166007600083815260200190815260200160002060009054906101000a900473ffffffffffffffffffffffffffffffffffffffff1673ffffffffffffffffffffffffffffffffffffffff161415610ef45780838381518110610ed9577f4e487b7100000000000000000000000000000000000000000000000000000000600052603260045260246000fd5b6020026020010181815250508180610ef0906129e5565b9250505b8080610eff906129e5565b915050610e2b565b508192505050919050565b600c6020528060005260406000206000915090508060000160009054906101000a900473ffffffffffffffffffffffffffffffffffffffff16908060010154905082565b60076020528060005260406000206000915054906101000a900473ffffffffffffffffffffffffffffffffffffffff1681565b60008054906101000a900473ffffffffffffffffffffffffffffffffffffffff1673ffffffffffffffffffffffffffffffffffffffff163373ffffffffffffffffffffffffffffffffffffffff1614611017576040517f08c379a000000000000000000000000000000000000000000000000000000000815260040161100e906126db565b60405180910390fd5b80600f8190555050565b60006007600083815260200190815260200160002060009054906101000a900473ffffffffffffffffffffffffffffffffffffffff169050919050565b60055481565b60606000600d5467ffffffffffffffff8111156110aa577f4e487b7100000000000000000000000000000000000000000000000000000000600052604160045260246000fd5b6040519080825280602002602001820160405280156110d85781602001602082028036833780820191505090505b5090506000805b600680549050811015611172576000600c6000838152602001908152602001600020600101541461115f5780838381518110611144577f4e487b7100000000000000000000000000000000000000000000000000000000600052603260045260246000fd5b602002602001018181525050818061115b906129e5565b9250505b808061116a906129e5565b9150506110df565b50819250505090565b6000600860008373ffffffffffffffffffffffffffffffffffffffff1673ffffffffffffffffffffffffffffffffffffffff168152602001908152602001600020549050919050565b60045481565b60008054906101000a900473ffffffffffffffffffffffffffffffffffffffff1681565b600e5481565b806007600082815260200190815260200160002060009054906101000a900473ffffffffffffffffffffffffffffffffffffffff1673ffffffffffffffffffffffffffffffffffffffff163373ffffffffffffffffffffffffffffffffffffffff1614611296576040517f08c379a000000000000000000000000000000000000000000000000000000000815260040161128d9061269b565b60405180910390fd5b6112a1338484611aef565b505050565b6000600860003373ffffffffffffffffffffffffffffffffffffffff1673ffffffffffffffffffffffffffffffffffffffff16815260200190815260200160002054146112f257600080fd5b60006112fd82611cc9565b9050600a8161130c9190612a65565b8161131791906128a0565b90506113238282611d0b565b5050565b3373ffffffffffffffffffffffffffffffffffffffff16600b600083815260200190815260200160002060009054906101000a900473ffffffffffffffffffffffffffffffffffffffff1673ffffffffffffffffffffffffffffffffffffffff161461139257600080fd5b600061139d82611021565b90506113aa813384611aef565b5050565b60035481565b816007600082815260200190815260200160002060009054906101000a900473ffffffffffffffffffffffffffffffffffffffff1673ffffffffffffffffffffffffffffffffffffffff163373ffffffffffffffffffffffffffffffffffffffff1614611456576040517f08c379a000000000000000000000000000000000000000000000000000000000815260040161144d9061269b565b60405180910390fd5b600e54600f54611466919061284a565b8210156114a8576040517f08c379a000000000000000000000000000000000000000000000000000000000815260040161149f906126bb565b60405180910390fd5b60405180604001604052803373ffffffffffffffffffffffffffffffffffffffff16815260200183815250600c600085815260200190815260200160002060008201518160000160006101000a81548173ffffffffffffffffffffffffffffffffffffffff021916908373ffffffffffffffffffffffffffffffffffffffff160217905550602082015181600101559050506001600d54611549919061284a565b600d819055503373ffffffffffffffffffffffffffffffffffffffff16837f8255874bbfafedc95b8c7b0748890e52f2b7ce1f677df50d51a25a9843b8ff4960405160405180910390a3505050565b6000600860003373ffffffffffffffffffffffffffffffffffffffff1673ffffffffffffffffffffffffffffffffffffffff16815260200190815260200160002054116115e457600080fd5b6004543410156115f357600080fd5b60006115fe82611cc9565b90506001600a8261160f9190612a65565b8261161a91906128a0565b611624919061284a565b90506116308282611d0b565b5050565b6002838160068281548110611672577f4e487b7100000000000000000000000000000000000000000000000000000000600052603260045260246000fd5b906000526020600020906003020160020160049054906101000a900463ffffffff1663ffffffff1610156116db576040517f08c379a00000000000000000000000000000000000000000000000000000000081526004016116d29061271b565b60405180910390fd5b846007600082815260200190815260200160002060009054906101000a900473ffffffffffffffffffffffffffffffffffffffff1673ffffffffffffffffffffffffffffffffffffffff163373ffffffffffffffffffffffffffffffffffffffff161461177d576040517f08c379a00000000000000000000000000000000000000000000000000000000081526004016117749061269b565b60405180910390fd5b8484600688815481106117b9577f4e487b7100000000000000000000000000000000000000000000000000000000600052603260045260246000fd5b906000526020600020906003020160000191906117d7929190611fe4565b50505050505050565b600a5481565b60008054906101000a900473ffffffffffffffffffffffffffffffffffffffff1673ffffffffffffffffffffffffffffffffffffffff163373ffffffffffffffffffffffffffffffffffffffff1614611874576040517f08c379a000000000000000000000000000000000000000000000000000000000815260040161186b906126db565b60405180910390fd5b80600a8190555050565b60008054906101000a900473ffffffffffffffffffffffffffffffffffffffff1673ffffffffffffffffffffffffffffffffffffffff163373ffffffffffffffffffffffffffffffffffffffff161461190c576040517f08c379a0000000000000000000000000000000000000000000000000000000008152600401611903906126db565b60405180910390fd5b8060048190555050565b600f5481565b60096020528060005260406000206000915090505481565b60008054906101000a900473ffffffffffffffffffffffffffffffffffffffff1673ffffffffffffffffffffffffffffffffffffffff163373ffffffffffffffffffffffffffffffffffffffff16146119c2576040517f08c379a00000000000000000000000000000000000000000000000000000000081526004016119b9906126db565b60405180910390fd5b600073ffffffffffffffffffffffffffffffffffffffff168173ffffffffffffffffffffffffffffffffffffffff161415611a32576040517f08c379a0000000000000000000000000000000000000000000000000000000008152600401611a29906126db565b60405180910390fd5b8073ffffffffffffffffffffffffffffffffffffffff1660008054906101000a900473ffffffffffffffffffffffffffffffffffffffff1673ffffffffffffffffffffffffffffffffffffffff167f8be0079c531659141344cd1fd0a4f28419497f9722a3daafe3b4186f6b6457e060405160405180910390a3806000806101000a81548173ffffffffffffffffffffffffffffffffffffffff021916908373ffffffffffffffffffffffffffffffffffffffff16021790555050565b6001600860008473ffffffffffffffffffffffffffffffffffffffff1673ffffffffffffffffffffffffffffffffffffffff16815260200190815260200160002054611b3b919061284a565b600860008473ffffffffffffffffffffffffffffffffffffffff1673ffffffffffffffffffffffffffffffffffffffff168152602001908152602001600020819055506001600860008573ffffffffffffffffffffffffffffffffffffffff1673ffffffffffffffffffffffffffffffffffffffff16815260200190815260200160002054611bca91906128a0565b600860008573ffffffffffffffffffffffffffffffffffffffff1673ffffffffffffffffffffffffffffffffffffffff16815260200190815260200160002081905550816007600083815260200190815260200160002060006101000a81548173ffffffffffffffffffffffffffffffffffffffff021916908373ffffffffffffffffffffffffffffffffffffffff1602179055508173ffffffffffffffffffffffffffffffffffffffff168373ffffffffffffffffffffffffffffffffffffffff167fddf252ad1be2c89b69c2b068fc378daa952ba7f163c4a11628f55a4df523b3ef83604051611cbc919061273b565b60405180910390a3505050565b60006002548242604051602001611ce192919061258a565b6040516020818303038152906040528051906020012060001c611d049190612a65565b9050919050565b60066040518060c00160405280848152602001838152602001600061ffff168152602001600061ffff168152602001600163ffffffff168152602001600063ffffffff1681525090806001815401808255809150506001900390600052602060002090600302016000909190919091506000820151816000019080519060200190611d9792919061206a565b506020820151816001015560408201518160020160006101000a81548161ffff021916908361ffff16021790555060608201518160020160026101000a81548161ffff021916908361ffff16021790555060808201518160020160046101000a81548163ffffffff021916908363ffffffff16021790555060a08201518160020160086101000a81548163ffffffff021916908363ffffffff160217905550505060006001600680549050611e4c91906128a0565b9050336007600083815260200190815260200160002060006101000a81548173ffffffffffffffffffffffffffffffffffffffff021916908373ffffffffffffffffffffffffffffffffffffffff160217905550611ef36001600860003373ffffffffffffffffffffffffffffffffffffffff1673ffffffffffffffffffffffffffffffffffffffff16815260200190815260200160002054611f9290919063ffffffff16565b600860003373ffffffffffffffffffffffffffffffffffffffff1673ffffffffffffffffffffffffffffffffffffffff16815260200190815260200160002081905550611f4c6001600554611f9290919063ffffffff16565b6005819055507f88f026aacbbecc90c18411df4b1185fd8d9be2470f1962f192bf84a27d0704b7818484604051611f8593929190612756565b60405180910390a1505050565b6000808284611fa1919061284a565b905083811015611fda577f4e487b7100000000000000000000000000000000000000000000000000000000600052600160045260246000fd5b8091505092915050565b828054611ff090612982565b90600052602060002090601f0160209004810192826120125760008555612059565b82601f1061202b57803560ff1916838001178555612059565b82800160010185558215612059579182015b8281111561205857823582559160200191906001019061203d565b5b50905061206691906120f0565b5090565b82805461207690612982565b90600052602060002090601f01602090048101928261209857600085556120df565b82601f106120b157805160ff19168380011785556120df565b828001600101855582156120df579182015b828111156120de5782518255916020019190600101906120c3565b5b5090506120ec91906120f0565b5090565b5b808211156121095760008160009055506001016120f1565b5090565b600061212061211b846127b9565b612794565b90508281526020810184848401111561213857600080fd5b612143848285612940565b509392505050565b60008135905061215a81612c30565b92915050565b60008135905061216f81612c47565b92915050565b60008083601f84011261218757600080fd5b8235905067ffffffffffffffff8111156121a057600080fd5b6020830191508360018202830111156121b857600080fd5b9250929050565b600082601f8301126121d057600080fd5b81356121e084826020860161210d565b91505092915050565b6000813590506121f881612c5e565b92915050565b60006020828403121561221057600080fd5b600061221e8482850161214b565b91505092915050565b60006020828403121561223957600080fd5b600061224784828501612160565b91505092915050565b6000806040838503121561226357600080fd5b60006122718582860161214b565b9250506020612282858286016121e9565b9150509250929050565b60006020828403121561229e57600080fd5b600082013567ffffffffffffffff8111156122b857600080fd5b6122c4848285016121bf565b91505092915050565b6000602082840312156122df57600080fd5b60006122ed848285016121e9565b91505092915050565b60008060006040848603121561230b57600080fd5b6000612319868287016121e9565b935050602084013567ffffffffffffffff81111561233657600080fd5b61234286828701612175565b92509250509250925092565b6000806040838503121561236157600080fd5b600061236f858286016121e9565b9250506020612380858286016121e9565b9150509250929050565b60006123968383612546565b60208301905092915050565b6123ab816128e6565b82525050565b6123ba816128d4565b82525050565b60006123cb826127fa565b6123d5818561281d565b93506123e0836127ea565b8060005b838110156124115781516123f8888261238a565b975061240383612810565b9250506001810190506123e4565b5085935050505092915050565b600061242982612805565b612433818561282e565b935061244381856020860161294f565b61244c81612b52565b840191505092915050565b600061246282612805565b61246c818561283f565b935061247c81856020860161294f565b80840191505092915050565b600061249560138361282e565b91506124a082612b63565b602082019050919050565b60006124b8601e8361282e565b91506124c382612b8c565b602082019050919050565b60006124db60138361282e565b91506124e682612bb5565b602082019050919050565b60006124fe600f8361282e565b915061250982612bde565b602082019050919050565b600061252160178361282e565b915061252c82612c07565b602082019050919050565b612540816128f8565b82525050565b61254f81612926565b82525050565b61255e81612926565b82525050565b61257561257082612926565b612a5b565b82525050565b61258481612930565b82525050565b60006125968285612457565b91506125a28284612564565b6020820191508190509392505050565b60006020820190506125c760008301846123b1565b92915050565b60006020820190506125e260008301846123a2565b92915050565b60006040820190506125fd60008301856123a2565b61260a6020830184612555565b9392505050565b6000602082019050818103600083015261262b81846123c0565b905092915050565b600060c082019050818103600083015261264d818961241e565b905061265c6020830188612555565b6126696040830187612537565b6126766060830186612537565b612683608083018561257b565b61269060a083018461257b565b979650505050505050565b600060208201905081810360008301526126b481612488565b9050919050565b600060208201905081810360008301526126d4816124ab565b9050919050565b600060208201905081810360008301526126f4816124ce565b9050919050565b60006020820190508181036000830152612714816124f1565b9050919050565b6000602082019050818103600083015261273481612514565b9050919050565b60006020820190506127506000830184612555565b92915050565b600060608201905061276b6000830186612555565b818103602083015261277d818561241e565b905061278c6040830184612555565b949350505050565b600061279e6127af565b90506127aa82826129b4565b919050565b6000604051905090565b600067ffffffffffffffff8211156127d4576127d3612b23565b5b6127dd82612b52565b9050602081019050919050565b6000819050602082019050919050565b600081519050919050565b600081519050919050565b6000602082019050919050565b600082825260208201905092915050565b600082825260208201905092915050565b600081905092915050565b600061285582612926565b915061286083612926565b9250827fffffffffffffffffffffffffffffffffffffffffffffffffffffffffffffffff0382111561289557612894612a96565b5b828201905092915050565b60006128ab82612926565b91506128b683612926565b9250828210156128c9576128c8612a96565b5b828203905092915050565b60006128df82612906565b9050919050565b60006128f182612906565b9050919050565b600061ffff82169050919050565b600073ffffffffffffffffffffffffffffffffffffffff82169050919050565b6000819050919050565b600063ffffffff82169050919050565b82818337600083830152505050565b60005b8381101561296d578082015181840152602081019050612952565b8381111561297c576000848401525b50505050565b6000600282049050600182168061299a57607f821691505b602082108114156129ae576129ad612af4565b5b50919050565b6129bd82612b52565b810181811067ffffffffffffffff821117156129dc576129db612b23565b5b80604052505050565b60006129f082612926565b91507fffffffffffffffffffffffffffffffffffffffffffffffffffffffffffffffff821415612a2357612a22612a96565b5b600182019050919050565b6000612a3982612930565b915063ffffffff821415612a5057612a4f612a96565b5b600182019050919050565b6000819050919050565b6000612a7082612926565b9150612a7b83612926565b925082612a8b57612a8a612ac5565b5b828206905092915050565b7f4e487b7100000000000000000000000000000000000000000000000000000000600052601160045260246000fd5b7f4e487b7100000000000000000000000000000000000000000000000000000000600052601260045260246000fd5b7f4e487b7100000000000000000000000000000000000000000000000000000000600052602260045260246000fd5b7f4e487b7100000000000000000000000000000000000000000000000000000000600052604160045260246000fd5b6000601f19601f8301169050919050565b7f5a6f6d626965206973206e6f7420796f75727300000000000000000000000000600082015250565b7f596f7572207072696365206d757374203e206d696e50726963652b7461780000600082015250565b7f4d75737420636f6e7472616374206f776e657200000000000000000000000000600082015250565b7f4e6f20656e6f756768206d6f6e65790000000000000000000000000000000000600082015250565b7f4c6576656c206973206e6f742073756666696369656e74000000000000000000600082015250565b612c39816128d4565b8114612c4457600080fd5b50565b612c50816128e6565b8114612c5b57600080fd5b50565b612c6781612926565b8114612c7257600080fd5b5056fea2646970667358221220a657737e4c731d2dbfa3618be93eaed95fc01fc5b79eb86f8e23c8efe56bc99264736f6c63430008040033",
  "immutableReferences": {},
  "source": "// SPDX-License-Identifier: GPL-3.0\r\npragma solidity >=0.7.0 <0.9.0;\r\n\r\nimport \"./zombieOwnership.sol\";\r\n\r\ncontract ZombieMarket is ZombieOwnership {\r\n    struct zombieSales{\r\n        address payable seller;\r\n        uint price;\r\n    }\r\n    mapping(uint=>zombieSales) public zombieShop;\r\n    uint shopZombieCount;\r\n    uint public tax = 1;\r\n    uint public minPrice = 1;\r\n\r\n    event SaleZombie(uint indexed zombieId,address indexed seller);\r\n    event BuyShopZombie(uint indexed zombieId,address indexed buyer,address indexed seller);\r\n\r\n    function saleMyZombie(uint _zombieId,uint _price)public onlyOwnerOf(_zombieId){\r\n        require(_price>=minPrice+tax,'Your price must > minPrice+tax');\r\n        zombieShop[_zombieId] = zombieSales(payable(msg.sender), _price);\r\n        shopZombieCount = shopZombieCount + 1;\r\n        emit SaleZombie(_zombieId,msg.sender);\r\n    }\r\n    function buyShopZombie(uint _zombieId)public payable{\r\n        require(msg.value >= zombieShop[_zombieId].price,'No enough money');\r\n        _transfer(zombieShop[_zombieId].seller,msg.sender, _zombieId);\r\n        zombieShop[_zombieId].seller.transfer(msg.value - tax);\r\n        delete zombieShop[_zombieId];\r\n        shopZombieCount = shopZombieCount - 1;\r\n        emit BuyShopZombie(_zombieId,msg.sender,zombieShop[_zombieId].seller);\r\n    }\r\n    function getShopZombies() external view returns(uint[] memory) {\r\n        uint[] memory result = new uint[](shopZombieCount);\r\n        uint counter = 0;\r\n        for (uint i = 0; i < zombies.length; i++) {\r\n            if (zombieShop[i].price != 0) {\r\n                result[counter] = i;\r\n                counter++;\r\n            }\r\n        }\r\n        return result;\r\n    }\r\n\r\n    function setTax(uint _value)public onlyOwner{\r\n        tax = _value;\r\n    }\r\n    function setMinPrice(uint _value)public onlyOwner{\r\n        minPrice = _value;\r\n    }\r\n}\r\n",
  "sourcePath": "E:/erc20-contract/truffle_proj/contracts/zombieMarket.sol",
  "compiler": {
    "name": "solc",
    "version": "0.8.4+commit.c7e474f2.Emscripten.clang"
  },
  "schemaVersion": "3.4.1",
  "updatedAt": "2021-07-01T07:07:49.940Z",
  "devdoc": {
    "kind": "dev",
    "methods": {
      "transferOwnership(address)": {
        "details": "Allows the current owner to transfer control of the contract to a newOwner.",
        "params": {
          "newOwner": "The address to transfer ownership to."
        }
      }
    },
    "version": 1
  },
  "userdoc": {
    "kind": "user",
    "methods": {},
    "version": 1
  }
}