{
  "contractName": "ZombieCore",
  "abi": [
    {
      "anonymous": false,
      "inputs": [
        {
          "indexed": true,
          "internalType": "address",
          "name": "_owner",
          "type": "address"
        },
        {
          "indexed": true,
          "internalType": "address",
          "name": "_approved",
          "type": "address"
        },
        {
          "indexed": false,
          "internalType": "uint256",
          "name": "_tokenId",
          "type": "uint256"
        }
      ],
      "name": "Approval",
      "type": "event"
    },
    {
      "anonymous": false,
      "inputs": [
        {
          "indexed": true,
          "internalType": "uint256",
          "name": "zombieId",
          "type": "uint256"
        },
        {
          "indexed": true,
          "internalType": "address",
          "name": "buyer",
          "type": "address"
        },
        {
          "indexed": true,
          "internalType": "address",
          "name": "seller",
          "type": "address"
        }
      ],
      "name": "BuyShopZombie",
      "type": "event"
    },
    {
      "anonymous": false,
      "inputs": [
        {
          "indexed": false,
          "internalType": "uint256",
          "name": "zombieId",
          "type": "uint256"
        },
        {
          "indexed": false,
          "internalType": "string",
          "name": "name",
          "type": "string"
        },
        {
          "indexed": false,
          "internalType": "uint256",
          "name": "dna",
          "type": "uint256"
        }
      ],
      "name": "NewZombie",
      "type": "event"
    },
    {
      "anonymous": false,
      "inputs": [
        {
          "indexed": true,
          "internalType": "address",
          "name": "previousOwner",
          "type": "address"
        },
        {
          "indexed": true,
          "internalType": "address",
          "name": "newOwner",
          "type": "address"
        }
      ],
      "name": "OwnershipTransferred",
      "type": "event"
    },
    {
      "anonymous": false,
      "inputs": [
        {
          "indexed": true,
          "internalType": "uint256",
          "name": "zombieId",
          "type": "uint256"
        },
        {
          "indexed": true,
          "internalType": "address",
          "name": "seller",
          "type": "address"
        }
      ],
      "name": "SaleZombie",
      "type": "event"
    },
    {
      "anonymous": false,
      "inputs": [
        {
          "indexed": true,
          "internalType": "address",
          "name": "_from",
          "type": "address"
        },
        {
          "indexed": true,
          "internalType": "address",
          "name": "_to",
          "type": "address"
        },
        {
          "indexed": false,
          "internalType": "uint256",
          "name": "_tokenId",
          "type": "uint256"
        }
      ],
      "name": "Transfer",
      "type": "event"
    },
    {
      "stateMutability": "payable",
      "type": "fallback",
      "payable": true
    },
    {
      "inputs": [
        {
          "internalType": "address",
          "name": "_to",
          "type": "address"
        },
        {
          "internalType": "uint256",
          "name": "_tokenId",
          "type": "uint256"
        }
      ],
      "name": "approve",
      "outputs": [],
      "stateMutability": "nonpayable",
      "type": "function"
    },
    {
      "inputs": [
        {
          "internalType": "uint256",
          "name": "_zombieId",
          "type": "uint256"
        },
        {
          "internalType": "uint256",
          "name": "_targetId",
          "type": "uint256"
        }
      ],
      "name": "attack",
      "outputs": [
        {
          "internalType": "uint256",
          "name": "",
          "type": "uint256"
        }
      ],
      "stateMutability": "nonpayable",
      "type": "function"
    },
    {
      "inputs": [],
      "name": "attackVictoryProbability",
      "outputs": [
        {
          "internalType": "uint256",
          "name": "",
          "type": "uint256"
        }
      ],
      "stateMutability": "view",
      "type": "function",
      "constant": true
    },
    {
      "inputs": [
        {
          "internalType": "address",
          "name": "_owner",
          "type": "address"
        }
      ],
      "name": "balanceOf",
      "outputs": [
        {
          "internalType": "uint256",
          "name": "_balance",
          "type": "uint256"
        }
      ],
      "stateMutability": "view",
      "type": "function",
      "constant": true
    },
    {
      "inputs": [
        {
          "internalType": "uint256",
          "name": "_zombieId",
          "type": "uint256"
        }
      ],
      "name": "buyShopZombie",
      "outputs": [],
      "stateMutability": "payable",
      "type": "function",
      "payable": true
    },
    {
      "inputs": [
        {
          "internalType": "string",
          "name": "_name",
          "type": "string"
        }
      ],
      "name": "buyZombie",
      "outputs": [],
      "stateMutability": "payable",
      "type": "function",
      "payable": true
    },
    {
      "inputs": [
        {
          "internalType": "uint256",
          "name": "_zombieId",
          "type": "uint256"
        },
        {
          "internalType": "string",
          "name": "_newName",
          "type": "string"
        }
      ],
      "name": "changeName",
      "outputs": [],
      "stateMutability": "nonpayable",
      "type": "function"
    },
    {
      "inputs": [],
      "name": "cooldownTime",
      "outputs": [
        {
          "internalType": "uint256",
          "name": "",
          "type": "uint256"
        }
      ],
      "stateMutability": "view",
      "type": "function",
      "constant": true
    },
    {
      "inputs": [
        {
          "internalType": "string",
          "name": "_name",
          "type": "string"
        }
      ],
      "name": "createZombie",
      "outputs": [],
      "stateMutability": "nonpayable",
      "type": "function"
    },
    {
      "inputs": [
        {
          "internalType": "uint256",
          "name": "_zombieId",
          "type": "uint256"
        }
      ],
      "name": "feed",
      "outputs": [],
      "stateMutability": "nonpayable",
      "type": "function"
    },
    {
      "inputs": [],
      "name": "getShopZombies",
      "outputs": [
        {
          "internalType": "uint256[]",
          "name": "",
          "type": "uint256[]"
        }
      ],
      "stateMutability": "view",
      "type": "function",
      "constant": true
    },
    {
      "inputs": [
        {
          "internalType": "address",
          "name": "_owner",
          "type": "address"
        }
      ],
      "name": "getZombiesByOwner",
      "outputs": [
        {
          "internalType": "uint256[]",
          "name": "",
          "type": "uint256[]"
        }
      ],
      "stateMutability": "view",
      "type": "function",
      "constant": true
    },
    {
      "inputs": [
        {
          "internalType": "uint256",
          "name": "_zombieId",
          "type": "uint256"
        }
      ],
      "name": "levelUp",
      "outputs": [],
      "stateMutability": "payable",
      "type": "function",
      "payable": true
    },
    {
      "inputs": [],
      "name": "levelUpFee",
      "outputs": [
        {
          "internalType": "uint256",
          "name": "",
          "type": "uint256"
        }
      ],
      "stateMutability": "view",
      "type": "function",
      "constant": true
    },
    {
      "inputs": [],
      "name": "minPrice",
      "outputs": [
        {
          "internalType": "uint256",
          "name": "",
          "type": "uint256"
        }
      ],
      "stateMutability": "view",
      "type": "function",
      "constant": true
    },
    {
      "inputs": [],
      "name": "name",
      "outputs": [
        {
          "internalType": "string",
          "name": "",
          "type": "string"
        }
      ],
      "stateMutability": "view",
      "type": "function",
      "constant": true
    },
    {
      "inputs": [],
      "name": "owner",
      "outputs": [
        {
          "internalType": "address payable",
          "name": "",
          "type": "address"
        }
      ],
      "stateMutability": "view",
      "type": "function",
      "constant": true
    },
    {
      "inputs": [
        {
          "internalType": "uint256",
          "name": "_tokenId",
          "type": "uint256"
        }
      ],
      "name": "ownerOf",
      "outputs": [
        {
          "internalType": "address",
          "name": "_owner",
          "type": "address"
        }
      ],
      "stateMutability": "view",
      "type": "function",
      "constant": true
    },
    {
      "inputs": [
        {
          "internalType": "uint256",
          "name": "_zombieId",
          "type": "uint256"
        },
        {
          "internalType": "uint256",
          "name": "_price",
          "type": "uint256"
        }
      ],
      "name": "saleMyZombie",
      "outputs": [],
      "stateMutability": "nonpayable",
      "type": "function"
    },
    {
      "inputs": [
        {
          "internalType": "uint256",
          "name": "_attackVictoryProbability",
          "type": "uint256"
        }
      ],
      "name": "setAttackVictoryProbability",
      "outputs": [],
      "stateMutability": "nonpayable",
      "type": "function"
    },
    {
      "inputs": [
        {
          "internalType": "uint256",
          "name": "_fee",
          "type": "uint256"
        }
      ],
      "name": "setLevelUpFee",
      "outputs": [],
      "stateMutability": "nonpayable",
      "type": "function"
    },
    {
      "inputs": [
        {
          "internalType": "uint256",
          "name": "_value",
          "type": "uint256"
        }
      ],
      "name": "setMinPrice",
      "outputs": [],
      "stateMutability": "nonpayable",
      "type": "function"
    },
    {
      "inputs": [
        {
          "internalType": "uint256",
          "name": "_value",
          "type": "uint256"
        }
      ],
      "name": "setTax",
      "outputs": [],
      "stateMutability": "nonpayable",
      "type": "function"
    },
    {
      "inputs": [
        {
          "internalType": "uint256",
          "name": "_price",
          "type": "uint256"
        }
      ],
      "name": "setZombiePrice",
      "outputs": [],
      "stateMutability": "nonpayable",
      "type": "function"
    },
    {
      "inputs": [],
      "name": "symbol",
      "outputs": [
        {
          "internalType": "string",
          "name": "",
          "type": "string"
        }
      ],
      "stateMutability": "view",
      "type": "function",
      "constant": true
    },
    {
      "inputs": [
        {
          "internalType": "uint256",
          "name": "_tokenId",
          "type": "uint256"
        }
      ],
      "name": "takeOwnership",
      "outputs": [],
      "stateMutability": "nonpayable",
      "type": "function"
    },
    {
      "inputs": [],
      "name": "tax",
      "outputs": [
        {
          "internalType": "uint256",
          "name": "",
          "type": "uint256"
        }
      ],
      "stateMutability": "view",
      "type": "function",
      "constant": true
    },
    {
      "inputs": [
        {
          "internalType": "address",
          "name": "_to",
          "type": "address"
        },
        {
          "internalType": "uint256",
          "name": "_tokenId",
          "type": "uint256"
        }
      ],
      "name": "transfer",
      "outputs": [],
      "stateMutability": "nonpayable",
      "type": "function"
    },
    {
      "inputs": [
        {
          "internalType": "address payable",
          "name": "newOwner",
          "type": "address"
        }
      ],
      "name": "transferOwnership",
      "outputs": [],
      "stateMutability": "nonpayable",
      "type": "function"
    },
    {
      "inputs": [],
      "name": "zombieCount",
      "outputs": [
        {
          "internalType": "uint256",
          "name": "",
          "type": "uint256"
        }
      ],
      "stateMutability": "view",
      "type": "function",
      "constant": true
    },
    {
      "inputs": [
        {
          "internalType": "uint256",
          "name": "",
          "type": "uint256"
        }
      ],
      "name": "zombieFeedTimes",
      "outputs": [
        {
          "internalType": "uint256",
          "name": "",
          "type": "uint256"
        }
      ],
      "stateMutability": "view",
      "type": "function",
      "constant": true
    },
    {
      "inputs": [],
      "name": "zombiePrice",
      "outputs": [
        {
          "internalType": "uint256",
          "name": "",
          "type": "uint256"
        }
      ],
      "stateMutability": "view",
      "type": "function",
      "constant": true
    },
    {
      "inputs": [
        {
          "internalType": "uint256",
          "name": "",
          "type": "uint256"
        }
      ],
      "name": "zombieShop",
      "outputs": [
        {
          "internalType": "address payable",
          "name": "seller",
          "type": "address"
        },
        {
          "internalType": "uint256",
          "name": "price",
          "type": "uint256"
        }
      ],
      "stateMutability": "view",
      "type": "function",
      "constant": true
    },
    {
      "inputs": [
        {
          "internalType": "uint256",
          "name": "",
          "type": "uint256"
        }
      ],
      "name": "zombieToOwner",
      "outputs": [
        {
          "internalType": "address",
          "name": "",
          "type": "address"
        }
      ],
      "stateMutability": "view",
      "type": "function",
      "constant": true
    },
    {
      "inputs": [
        {
          "internalType": "uint256",
          "name": "",
          "type": "uint256"
        }
      ],
      "name": "zombies",
      "outputs": [
        {
          "internalType": "string",
          "name": "name",
          "type": "string"
        },
        {
          "internalType": "uint256",
          "name": "dna",
          "type": "uint256"
        },
        {
          "internalType": "uint16",
          "name": "winCount",
          "type": "uint16"
        },
        {
          "internalType": "uint16",
          "name": "lossCount",
          "type": "uint16"
        },
        {
          "internalType": "uint32",
          "name": "level",
          "type": "uint32"
        },
        {
          "internalType": "uint32",
          "name": "readyTime",
          "type": "uint32"
        }
      ],
      "stateMutability": "view",
      "type": "function",
      "constant": true
    },
    {
      "inputs": [],
      "name": "withdraw",
      "outputs": [],
      "stateMutability": "nonpayable",
      "type": "function"
    },
    {
      "inputs": [],
      "name": "checkBalance",
      "outputs": [
        {
          "internalType": "uint256",
          "name": "",
          "type": "uint256"
        }
      ],
      "stateMutability": "view",
      "type": "function",
      "constant": true
    }
  ],
  "bytecode": "0x60806040526010600155600154600a6200001a919062000102565b60025562015180600355662386f26fc10000600455600060055566038d7ea4c68000600a556001600e556001600f55600060105560466011553480156200006057600080fd5b50336000806101000a81548173ffffffffffffffffffffffffffffffffffffffff021916908373ffffffffffffffffffffffffffffffffffffffff16021790555062000285565b6000808291508390505b6001851115620000f957808604811115620000d157620000d062000249565b5b6001851615620000e15780820291505b8081029050620000f18562000278565b9450620000b1565b94509492505050565b60006200010f826200023f565b91506200011c836200023f565b92506200014b7fffffffffffffffffffffffffffffffffffffffffffffffffffffffffffffffff848462000153565b905092915050565b60008262000165576001905062000238565b8162000175576000905062000238565b81600181146200018e57600281146200019957620001cf565b600191505062000238565b60ff841115620001ae57620001ad62000249565b5b8360020a915084821115620001c857620001c762000249565b5b5062000238565b5060208310610133831016604e8410600b8410161715620002095782820a90508381111562000203576200020262000249565b5b62000238565b620002188484846001620000a7565b9250905081840481111562000232576200023162000249565b5b81810290505b9392505050565b6000819050919050565b7f4e487b7100000000000000000000000000000000000000000000000000000000600052601160045260246000fd5b60008160011c9050919050565b613ba980620002956000396000f3fe60806040526004361061021e5760003560e01c806395d89b4111610123578063c39cbef1116100ab578063e1fa76381161006f578063e1fa76381461079c578063e45be8eb146107d9578063ef6ad18b14610804578063f2fde38b14610841578063f59dfdfb1461086a5761021f565b8063c39cbef1146106cb578063c4114b12146106f4578063c71daccb1461071f578063ccf670f81461074a578063d521ef43146107735761021f565b8063ad822778116100f2578063ad82277814610609578063b2e6ceeb14610632578063b319c6b71461065b578063b32c012d14610686578063b3f0ddb9146106af5761021f565b806395d89b411461055f57806399c8d5561461058a578063a9059cbb146105b5578063a94d153b146105de5761021f565b8063528b7b8f116101a657806363721d6b1161017557806363721d6b146104765780636cc29f2e146104a157806370a08231146104cc57806383d404d8146105095780638da5cb5b146105345761021f565b8063528b7b8f146103aa578063594455f9146103e75780635ea8cd12146104105780636352211e146104395761021f565b8063208c750e116101ed578063208c750e146102d35780632e5bb6ff146102ef5780633ccfd60b146103185780634412e1041461032f57806345c6ba391461036c5761021f565b806306fdde0314610221578063095ea7b31461024c5780630ce90ec2146102755780632052465e146102915761021f565b5b005b34801561022d57600080fd5b50610236610893565b6040516102439190613373565b60405180910390f35b34801561025857600080fd5b50610273600480360381019061026e9190612ed3565b6108cc565b005b61028f600480360381019061028a9190612f50565b610a2a565b005b34801561029d57600080fd5b506102b860048036038101906102b39190612f50565b610b9e565b6040516102ca96959493929190613395565b60405180910390f35b6102ed60048036038101906102e89190612f50565b610cae565b005b3480156102fb57600080fd5b5061031660048036038101906103119190612f50565b610ec0565b005b34801561032457600080fd5b5061032d610f58565b005b34801561033b57600080fd5b5061035660048036038101906103519190612e81565b61104f565b6040516103639190613351565b60405180910390f35b34801561037857600080fd5b50610393600480360381019061038e9190612f50565b6111ee565b6040516103a1929190613328565b60405180910390f35b3480156103b657600080fd5b506103d160048036038101906103cc9190612f50565b611232565b6040516103de91906132f2565b60405180910390f35b3480156103f357600080fd5b5061040e60048036038101906104099190612f50565b611265565b005b34801561041c57600080fd5b5061043760048036038101906104329190612f50565b6112fd565b005b34801561044557600080fd5b50610460600480360381019061045b9190612f50565b611395565b60405161046d91906132f2565b60405180910390f35b34801561048257600080fd5b5061048b6113d2565b60405161049891906134fd565b60405180910390f35b3480156104ad57600080fd5b506104b66113d8565b6040516104c39190613351565b60405180910390f35b3480156104d857600080fd5b506104f360048036038101906104ee9190612e81565b6114ef565b60405161050091906134fd565b60405180910390f35b34801561051557600080fd5b5061051e611538565b60405161052b91906134fd565b60405180910390f35b34801561054057600080fd5b5061054961153e565b604051610556919061330d565b60405180910390f35b34801561056b57600080fd5b50610574611562565b6040516105819190613373565b60405180910390f35b34801561059657600080fd5b5061059f61159b565b6040516105ac91906134fd565b60405180910390f35b3480156105c157600080fd5b506105dc60048036038101906105d79190612ed3565b6115a1565b005b3480156105ea57600080fd5b506105f3611653565b60405161060091906134fd565b60405180910390f35b34801561061557600080fd5b50610630600480360381019061062b9190612f0f565b611659565b005b34801561063e57600080fd5b5061065960048036038101906106549190612f50565b6116da565b005b34801561066757600080fd5b50610670611761565b60405161067d91906134fd565b60405180910390f35b34801561069257600080fd5b506106ad60048036038101906106a89190612fd1565b611767565b005b6106c960048036038101906106c49190612f0f565b61194b565b005b3480156106d757600080fd5b506106f260048036038101906106ed9190612f79565b6119e7565b005b34801561070057600080fd5b50610709611b93565b60405161071691906134fd565b60405180910390f35b34801561072b57600080fd5b50610734611b99565b60405161074191906134fd565b60405180910390f35b34801561075657600080fd5b50610771600480360381019061076c9190612f50565b611c30565b005b34801561077f57600080fd5b5061079a60048036038101906107959190612f50565b611cc8565b005b3480156107a857600080fd5b506107c360048036038101906107be9190612fd1565b611d60565b6040516107d091906134fd565b60405180910390f35b3480156107e557600080fd5b506107ee612104565b6040516107fb91906134fd565b60405180910390f35b34801561081057600080fd5b5061082b60048036038101906108269190612f50565b61210a565b60405161083891906134fd565b60405180910390f35b34801561084d57600080fd5b5061086860048036038101906108639190612eaa565b612122565b005b34801561087657600080fd5b50610891600480360381019061088c9190612f50565b6122dd565b005b6040518060400160405280600e81526020017f4d7943727970746f5a6f6d62696500000000000000000000000000000000000081525081565b806007600082815260200190815260200160002060009054906101000a900473ffffffffffffffffffffffffffffffffffffffff1673ffffffffffffffffffffffffffffffffffffffff163373ffffffffffffffffffffffffffffffffffffffff161461096e576040517f08c379a0000000000000000000000000000000000000000000000000000000008152600401610965906133fd565b60405180910390fd5b82600b600084815260200190815260200160002060006101000a81548173ffffffffffffffffffffffffffffffffffffffff021916908373ffffffffffffffffffffffffffffffffffffffff1602179055508273ffffffffffffffffffffffffffffffffffffffff163373ffffffffffffffffffffffffffffffffffffffff167f8c5be1e5ebec7d5bd14f71427d1e84f3dd0314c0f7b2291e5b200ac8c7c3b92584604051610a1d91906134fd565b60405180910390a3505050565b806007600082815260200190815260200160002060009054906101000a900473ffffffffffffffffffffffffffffffffffffffff1673ffffffffffffffffffffffffffffffffffffffff163373ffffffffffffffffffffffffffffffffffffffff1614610acc576040517f08c379a0000000000000000000000000000000000000000000000000000000008152600401610ac3906133fd565b60405180910390fd5b600a543414610b10576040517f08c379a0000000000000000000000000000000000000000000000000000000008152600401610b079061345d565b60405180910390fd5b60068281548110610b4a577f4e487b7100000000000000000000000000000000000000000000000000000000600052603260045260246000fd5b9060005260206000209060030201600201600481819054906101000a900463ffffffff1680929190610b7b90613880565b91906101000a81548163ffffffff021916908363ffffffff160217905550505050565b60068181548110610bae57600080fd5b9060005260206000209060030201600091509050806000018054610bd1906137a9565b80601f0160208091040260200160405190810160405280929190818152602001828054610bfd906137a9565b8015610c4a5780601f10610c1f57610100808354040283529160200191610c4a565b820191906000526020600020905b815481529060010190602001808311610c2d57829003601f168201915b5050505050908060010154908060020160009054906101000a900461ffff16908060020160029054906101000a900461ffff16908060020160049054906101000a900463ffffffff16908060020160089054906101000a900463ffffffff16905086565b600c600082815260200190815260200160002060010154341015610d07576040517f08c379a0000000000000000000000000000000000000000000000000000000008152600401610cfe9061345d565b60405180910390fd5b610d48600c600083815260200190815260200160002060000160009054906101000a900473ffffffffffffffffffffffffffffffffffffffff1633836124bb565b600c600082815260200190815260200160002060000160009054906101000a900473ffffffffffffffffffffffffffffffffffffffff1673ffffffffffffffffffffffffffffffffffffffff166108fc600e5434610da69190613693565b9081150290604051600060405180830381858888f19350505050158015610dd1573d6000803e3d6000fd5b50600c6000828152602001908152602001600020600080820160006101000a81549073ffffffffffffffffffffffffffffffffffffffff0219169055600182016000905550506001600d54610e269190613693565b600d81905550600c600082815260200190815260200160002060000160009054906101000a900473ffffffffffffffffffffffffffffffffffffffff1673ffffffffffffffffffffffffffffffffffffffff163373ffffffffffffffffffffffffffffffffffffffff16827f2705da8f1145dc87c9e6b9aa3ecd69d3d64da132acba45c803563ad52f5c2b5f60405160405180910390a450565b60008054906101000a900473ffffffffffffffffffffffffffffffffffffffff1673ffffffffffffffffffffffffffffffffffffffff163373ffffffffffffffffffffffffffffffffffffffff1614610f4e576040517f08c379a0000000000000000000000000000000000000000000000000000000008152600401610f459061343d565b60405180910390fd5b80600e8190555050565b60008054906101000a900473ffffffffffffffffffffffffffffffffffffffff1673ffffffffffffffffffffffffffffffffffffffff163373ffffffffffffffffffffffffffffffffffffffff1614610fe6576040517f08c379a0000000000000000000000000000000000000000000000000000000008152600401610fdd9061343d565b60405180910390fd5b60008054906101000a900473ffffffffffffffffffffffffffffffffffffffff1673ffffffffffffffffffffffffffffffffffffffff166108fc479081150290604051600060405180830381858888f1935050505015801561104c573d6000803e3d6000fd5b50565b60606000600860008473ffffffffffffffffffffffffffffffffffffffff1673ffffffffffffffffffffffffffffffffffffffff1681526020019081526020016000205467ffffffffffffffff8111156110d2577f4e487b7100000000000000000000000000000000000000000000000000000000600052604160045260246000fd5b6040519080825280602002602001820160405280156111005781602001602082028036833780820191505090505b5090506000805b6006805490508110156111e3578473ffffffffffffffffffffffffffffffffffffffff166007600083815260200190815260200160002060009054906101000a900473ffffffffffffffffffffffffffffffffffffffff1673ffffffffffffffffffffffffffffffffffffffff1614156111d057808383815181106111b5577f4e487b7100000000000000000000000000000000000000000000000000000000600052603260045260246000fd5b60200260200101818152505081806111cc90613837565b9250505b80806111db90613837565b915050611107565b508192505050919050565b600c6020528060005260406000206000915090508060000160009054906101000a900473ffffffffffffffffffffffffffffffffffffffff16908060010154905082565b60076020528060005260406000206000915054906101000a900473ffffffffffffffffffffffffffffffffffffffff1681565b60008054906101000a900473ffffffffffffffffffffffffffffffffffffffff1673ffffffffffffffffffffffffffffffffffffffff163373ffffffffffffffffffffffffffffffffffffffff16146112f3576040517f08c379a00000000000000000000000000000000000000000000000000000000081526004016112ea9061343d565b60405180910390fd5b8060118190555050565b60008054906101000a900473ffffffffffffffffffffffffffffffffffffffff1673ffffffffffffffffffffffffffffffffffffffff163373ffffffffffffffffffffffffffffffffffffffff161461138b576040517f08c379a00000000000000000000000000000000000000000000000000000000081526004016113829061343d565b60405180910390fd5b80600f8190555050565b60006007600083815260200190815260200160002060009054906101000a900473ffffffffffffffffffffffffffffffffffffffff169050919050565b60055481565b60606000600d5467ffffffffffffffff81111561141e577f4e487b7100000000000000000000000000000000000000000000000000000000600052604160045260246000fd5b60405190808252806020026020018201604052801561144c5781602001602082028036833780820191505090505b5090506000805b6006805490508110156114e6576000600c600083815260200190815260200160002060010154146114d357808383815181106114b8577f4e487b7100000000000000000000000000000000000000000000000000000000600052603260045260246000fd5b60200260200101818152505081806114cf90613837565b9250505b80806114de90613837565b915050611453565b50819250505090565b6000600860008373ffffffffffffffffffffffffffffffffffffffff1673ffffffffffffffffffffffffffffffffffffffff168152602001908152602001600020549050919050565b60045481565b60008054906101000a900473ffffffffffffffffffffffffffffffffffffffff1681565b6040518060400160405280600381526020017f4d435a000000000000000000000000000000000000000000000000000000000081525081565b600e5481565b806007600082815260200190815260200160002060009054906101000a900473ffffffffffffffffffffffffffffffffffffffff1673ffffffffffffffffffffffffffffffffffffffff163373ffffffffffffffffffffffffffffffffffffffff1614611643576040517f08c379a000000000000000000000000000000000000000000000000000000000815260040161163a906133fd565b60405180910390fd5b61164e3384846124bb565b505050565b60115481565b6000600860003373ffffffffffffffffffffffffffffffffffffffff1673ffffffffffffffffffffffffffffffffffffffff16815260200190815260200160002054146116a557600080fd5b60006116b082612695565b9050600a816116bf91906138db565b816116ca9190613693565b90506116d682826126d7565b5050565b3373ffffffffffffffffffffffffffffffffffffffff16600b600083815260200190815260200160002060009054906101000a900473ffffffffffffffffffffffffffffffffffffffff1673ffffffffffffffffffffffffffffffffffffffff161461174557600080fd5b600061175082611395565b905061175d8133846124bb565b5050565b60035481565b816007600082815260200190815260200160002060009054906101000a900473ffffffffffffffffffffffffffffffffffffffff1673ffffffffffffffffffffffffffffffffffffffff163373ffffffffffffffffffffffffffffffffffffffff1614611809576040517f08c379a0000000000000000000000000000000000000000000000000000000008152600401611800906133fd565b60405180910390fd5b600e54600f54611819919061360c565b82101561185b576040517f08c379a00000000000000000000000000000000000000000000000000000000081526004016118529061341d565b60405180910390fd5b60405180604001604052803373ffffffffffffffffffffffffffffffffffffffff16815260200183815250600c600085815260200190815260200160002060008201518160000160006101000a81548173ffffffffffffffffffffffffffffffffffffffff021916908373ffffffffffffffffffffffffffffffffffffffff160217905550602082015181600101559050506001600d546118fc919061360c565b600d819055503373ffffffffffffffffffffffffffffffffffffffff16837f8255874bbfafedc95b8c7b0748890e52f2b7ce1f677df50d51a25a9843b8ff4960405160405180910390a3505050565b6000600860003373ffffffffffffffffffffffffffffffffffffffff1673ffffffffffffffffffffffffffffffffffffffff168152602001908152602001600020541161199757600080fd5b6004543410156119a657600080fd5b60006119b182612695565b90506001600a826119c291906138db565b826119cd9190613693565b6119d7919061360c565b90506119e382826126d7565b5050565b6002838160068281548110611a25577f4e487b7100000000000000000000000000000000000000000000000000000000600052603260045260246000fd5b906000526020600020906003020160020160049054906101000a900463ffffffff1663ffffffff161015611a8e576040517f08c379a0000000000000000000000000000000000000000000000000000000008152600401611a85906134dd565b60405180910390fd5b846007600082815260200190815260200160002060009054906101000a900473ffffffffffffffffffffffffffffffffffffffff1673ffffffffffffffffffffffffffffffffffffffff163373ffffffffffffffffffffffffffffffffffffffff1614611b30576040517f08c379a0000000000000000000000000000000000000000000000000000000008152600401611b27906133fd565b60405180910390fd5b848460068881548110611b6c577f4e487b7100000000000000000000000000000000000000000000000000000000600052603260045260246000fd5b90600052602060002090600302016000019190611b8a929190612c67565b50505050505050565b600a5481565b60008060009054906101000a900473ffffffffffffffffffffffffffffffffffffffff1673ffffffffffffffffffffffffffffffffffffffff163373ffffffffffffffffffffffffffffffffffffffff1614611c2a576040517f08c379a0000000000000000000000000000000000000000000000000000000008152600401611c219061343d565b60405180910390fd5b47905090565b60008054906101000a900473ffffffffffffffffffffffffffffffffffffffff1673ffffffffffffffffffffffffffffffffffffffff163373ffffffffffffffffffffffffffffffffffffffff1614611cbe576040517f08c379a0000000000000000000000000000000000000000000000000000000008152600401611cb59061343d565b60405180910390fd5b80600a8190555050565b60008054906101000a900473ffffffffffffffffffffffffffffffffffffffff1673ffffffffffffffffffffffffffffffffffffffff163373ffffffffffffffffffffffffffffffffffffffff1614611d56576040517f08c379a0000000000000000000000000000000000000000000000000000000008152600401611d4d9061343d565b60405180910390fd5b8060048190555050565b6000826007600082815260200190815260200160002060009054906101000a900473ffffffffffffffffffffffffffffffffffffffff1673ffffffffffffffffffffffffffffffffffffffff163373ffffffffffffffffffffffffffffffffffffffff1614611e04576040517f08c379a0000000000000000000000000000000000000000000000000000000008152600401611dfb906133fd565b60405180910390fd5b6007600084815260200190815260200160002060009054906101000a900473ffffffffffffffffffffffffffffffffffffffff1673ffffffffffffffffffffffffffffffffffffffff163373ffffffffffffffffffffffffffffffffffffffff161415611ea6576040517f08c379a0000000000000000000000000000000000000000000000000000000008152600401611e9d9061347d565b60405180910390fd5b600060068581548110611ee2577f4e487b7100000000000000000000000000000000000000000000000000000000600052603260045260246000fd5b90600052602060002090600302019050611efb8161295e565b611f3a576040517f08c379a0000000000000000000000000000000000000000000000000000000008152600401611f31906134bd565b60405180910390fd5b600060068581548110611f76577f4e487b7100000000000000000000000000000000000000000000000000000000600052603260045260246000fd5b906000526020600020906003020190506000611f926064612985565b905060115481116120735782600201600081819054906101000a900461ffff1680929190611fbf9061380c565b91906101000a81548161ffff021916908361ffff1602179055505082600201600481819054906101000a900463ffffffff1680929190611ffe90613880565b91906101000a81548163ffffffff021916908363ffffffff1602179055505081600201600281819054906101000a900461ffff168092919061203f9061380c565b91906101000a81548161ffff021916908361ffff160217905550506120688783600101546129e1565b8694505050506120fd565b82600201600281819054906101000a900461ffff16809291906120959061380c565b91906101000a81548161ffff021916908361ffff1602179055505081600201600081819054906101000a900461ffff16809291906120d29061380c565b91906101000a81548161ffff021916908361ffff160217905550506120f683612bbc565b8594505050505b5092915050565b600f5481565b60096020528060005260406000206000915090505481565b60008054906101000a900473ffffffffffffffffffffffffffffffffffffffff1673ffffffffffffffffffffffffffffffffffffffff163373ffffffffffffffffffffffffffffffffffffffff16146121b0576040517f08c379a00000000000000000000000000000000000000000000000000000000081526004016121a79061343d565b60405180910390fd5b600073ffffffffffffffffffffffffffffffffffffffff168173ffffffffffffffffffffffffffffffffffffffff161415612220576040517f08c379a00000000000000000000000000000000000000000000000000000000081526004016122179061343d565b60405180910390fd5b8073ffffffffffffffffffffffffffffffffffffffff1660008054906101000a900473ffffffffffffffffffffffffffffffffffffffff1673ffffffffffffffffffffffffffffffffffffffff167f8be0079c531659141344cd1fd0a4f28419497f9722a3daafe3b4186f6b6457e060405160405180910390a3806000806101000a81548173ffffffffffffffffffffffffffffffffffffffff021916908373ffffffffffffffffffffffffffffffffffffffff16021790555050565b806007600082815260200190815260200160002060009054906101000a900473ffffffffffffffffffffffffffffffffffffffff1673ffffffffffffffffffffffffffffffffffffffff163373ffffffffffffffffffffffffffffffffffffffff161461237f576040517f08c379a0000000000000000000000000000000000000000000000000000000008152600401612376906133fd565b60405180910390fd5b6000600683815481106123bb577f4e487b7100000000000000000000000000000000000000000000000000000000600052603260045260246000fd5b906000526020600020906003020190506123d48161295e565b6123dd57600080fd5b600160096000858152602001908152602001600020546123fd919061360c565b600960008581526020019081526020016000208190555061241d81612bbc565b6000600a600960008681526020019081526020016000205461243f91906138db565b14156124b65760006008600a836001015461245a91906138db565b83600101546124699190613693565b612473919061360c565b90506124b46040518060400160405280600c81526020017f7a6f6d626965277320736f6e0000000000000000000000000000000000000000815250826126d7565b505b505050565b6001600860008473ffffffffffffffffffffffffffffffffffffffff1673ffffffffffffffffffffffffffffffffffffffff16815260200190815260200160002054612507919061360c565b600860008473ffffffffffffffffffffffffffffffffffffffff1673ffffffffffffffffffffffffffffffffffffffff168152602001908152602001600020819055506001600860008573ffffffffffffffffffffffffffffffffffffffff1673ffffffffffffffffffffffffffffffffffffffff168152602001908152602001600020546125969190613693565b600860008573ffffffffffffffffffffffffffffffffffffffff1673ffffffffffffffffffffffffffffffffffffffff16815260200190815260200160002081905550816007600083815260200190815260200160002060006101000a81548173ffffffffffffffffffffffffffffffffffffffff021916908373ffffffffffffffffffffffffffffffffffffffff1602179055508173ffffffffffffffffffffffffffffffffffffffff168373ffffffffffffffffffffffffffffffffffffffff167fddf252ad1be2c89b69c2b068fc378daa952ba7f163c4a11628f55a4df523b3ef8360405161268891906134fd565b60405180910390a3505050565b600060025482426040516020016126ad92919061328d565b6040516020818303038152906040528051906020012060001c6126d091906138db565b9050919050565b60066040518060c00160405280848152602001838152602001600061ffff168152602001600061ffff168152602001600163ffffffff168152602001600063ffffffff1681525090806001815401808255809150506001900390600052602060002090600302016000909190919091506000820151816000019080519060200190612763929190612ced565b506020820151816001015560408201518160020160006101000a81548161ffff021916908361ffff16021790555060608201518160020160026101000a81548161ffff021916908361ffff16021790555060808201518160020160046101000a81548163ffffffff021916908363ffffffff16021790555060a08201518160020160086101000a81548163ffffffff021916908363ffffffff1602179055505050600060016006805490506128189190613693565b9050336007600083815260200190815260200160002060006101000a81548173ffffffffffffffffffffffffffffffffffffffff021916908373ffffffffffffffffffffffffffffffffffffffff1602179055506128bf6001600860003373ffffffffffffffffffffffffffffffffffffffff1673ffffffffffffffffffffffffffffffffffffffff16815260200190815260200160002054612c1590919063ffffffff16565b600860003373ffffffffffffffffffffffffffffffffffffffff1673ffffffffffffffffffffffffffffffffffffffff168152602001908152602001600020819055506129186001600554612c1590919063ffffffff16565b6005819055507f88f026aacbbecc90c18411df4b1185fd8d9be2470f1962f192bf84a27d0704b781848460405161295193929190613518565b60405180910390a1505050565b6000428260020160089054906101000a900463ffffffff1663ffffffff1611159050919050565b60006010600081548092919061299a90613837565b91905055508142336010546040516020016129b7939291906132b5565b6040516020818303038152906040528051906020012060001c6129da91906138db565b9050919050565b816007600082815260200190815260200160002060009054906101000a900473ffffffffffffffffffffffffffffffffffffffff1673ffffffffffffffffffffffffffffffffffffffff163373ffffffffffffffffffffffffffffffffffffffff1614612a83576040517f08c379a0000000000000000000000000000000000000000000000000000000008152600401612a7a906133fd565b60405180910390fd5b600060068481548110612abf577f4e487b7100000000000000000000000000000000000000000000000000000000600052603260045260246000fd5b90600052602060002090600302019050612ad88161295e565b612b17576040517f08c379a0000000000000000000000000000000000000000000000000000000008152600401612b0e9061349d565b60405180910390fd5b60025483612b2591906138db565b925060006002848360010154612b3b919061360c565b612b459190613662565b90506009600a82612b5691906138db565b82612b619190613693565b612b6b919061360c565b9050612bac6040518060400160405280600681526020017f4e6f4e616d650000000000000000000000000000000000000000000000000000815250826126d7565b612bb582612bbc565b5050505050565b6201518060035442612bce919061360c565b612bd891906138db565b60035442612be6919061360c565b612bf091906136c7565b8160020160086101000a81548163ffffffff021916908363ffffffff16021790555050565b6000808284612c24919061360c565b905083811015612c5d577f4e487b7100000000000000000000000000000000000000000000000000000000600052600160045260246000fd5b8091505092915050565b828054612c73906137a9565b90600052602060002090601f016020900481019282612c955760008555612cdc565b82601f10612cae57803560ff1916838001178555612cdc565b82800160010185558215612cdc579182015b82811115612cdb578235825591602001919060010190612cc0565b5b509050612ce99190612d73565b5090565b828054612cf9906137a9565b90600052602060002090601f016020900481019282612d1b5760008555612d62565b82601f10612d3457805160ff1916838001178555612d62565b82800160010185558215612d62579182015b82811115612d61578251825591602001919060010190612d46565b5b509050612d6f9190612d73565b5090565b5b80821115612d8c576000816000905550600101612d74565b5090565b6000612da3612d9e8461357b565b613556565b905082815260208101848484011115612dbb57600080fd5b612dc6848285613767565b509392505050565b600081359050612ddd81613b2e565b92915050565b600081359050612df281613b45565b92915050565b60008083601f840112612e0a57600080fd5b8235905067ffffffffffffffff811115612e2357600080fd5b602083019150836001820283011115612e3b57600080fd5b9250929050565b600082601f830112612e5357600080fd5b8135612e63848260208601612d90565b91505092915050565b600081359050612e7b81613b5c565b92915050565b600060208284031215612e9357600080fd5b6000612ea184828501612dce565b91505092915050565b600060208284031215612ebc57600080fd5b6000612eca84828501612de3565b91505092915050565b60008060408385031215612ee657600080fd5b6000612ef485828601612dce565b9250506020612f0585828601612e6c565b9150509250929050565b600060208284031215612f2157600080fd5b600082013567ffffffffffffffff811115612f3b57600080fd5b612f4784828501612e42565b91505092915050565b600060208284031215612f6257600080fd5b6000612f7084828501612e6c565b91505092915050565b600080600060408486031215612f8e57600080fd5b6000612f9c86828701612e6c565b935050602084013567ffffffffffffffff811115612fb957600080fd5b612fc586828701612df8565b92509250509250925092565b60008060408385031215612fe457600080fd5b6000612ff285828601612e6c565b925050602061300385828601612e6c565b9150509250929050565b60006130198383613249565b60208301905092915050565b61302e8161370d565b82525050565b61303d816136fb565b82525050565b61305461304f826136fb565b6138ad565b82525050565b6000613065826135bc565b61306f81856135df565b935061307a836135ac565b8060005b838110156130ab578151613092888261300d565b975061309d836135d2565b92505060018101905061307e565b5085935050505092915050565b60006130c3826135c7565b6130cd81856135f0565b93506130dd818560208601613776565b6130e6816139c8565b840191505092915050565b60006130fc826135c7565b6131068185613601565b9350613116818560208601613776565b80840191505092915050565b600061312f6013836135f0565b915061313a826139e6565b602082019050919050565b6000613152601e836135f0565b915061315d82613a0f565b602082019050919050565b60006131756013836135f0565b915061318082613a38565b602082019050919050565b6000613198600f836135f0565b91506131a382613a61565b602082019050919050565b60006131bb601b836135f0565b91506131c682613a8a565b602082019050919050565b60006131de6013836135f0565b91506131e982613ab3565b602082019050919050565b60006132016019836135f0565b915061320c82613adc565b602082019050919050565b60006132246017836135f0565b915061322f82613b05565b602082019050919050565b6132438161371f565b82525050565b6132528161374d565b82525050565b6132618161374d565b82525050565b6132786132738261374d565b6138d1565b82525050565b61328781613757565b82525050565b600061329982856130f1565b91506132a58284613267565b6020820191508190509392505050565b60006132c18286613267565b6020820191506132d18285613043565b6014820191506132e18284613267565b602082019150819050949350505050565b60006020820190506133076000830184613034565b92915050565b60006020820190506133226000830184613025565b92915050565b600060408201905061333d6000830185613025565b61334a6020830184613258565b9392505050565b6000602082019050818103600083015261336b818461305a565b905092915050565b6000602082019050818103600083015261338d81846130b8565b905092915050565b600060c08201905081810360008301526133af81896130b8565b90506133be6020830188613258565b6133cb604083018761323a565b6133d8606083018661323a565b6133e5608083018561327e565b6133f260a083018461327e565b979650505050505050565b6000602082019050818103600083015261341681613122565b9050919050565b6000602082019050818103600083015261343681613145565b9050919050565b6000602082019050818103600083015261345681613168565b9050919050565b600060208201905081810360008301526134768161318b565b9050919050565b60006020820190508181036000830152613496816131ae565b9050919050565b600060208201905081810360008301526134b6816131d1565b9050919050565b600060208201905081810360008301526134d6816131f4565b9050919050565b600060208201905081810360008301526134f681613217565b9050919050565b60006020820190506135126000830184613258565b92915050565b600060608201905061352d6000830186613258565b818103602083015261353f81856130b8565b905061354e6040830184613258565b949350505050565b6000613560613571565b905061356c82826137db565b919050565b6000604051905090565b600067ffffffffffffffff82111561359657613595613999565b5b61359f826139c8565b9050602081019050919050565b6000819050602082019050919050565b600081519050919050565b600081519050919050565b6000602082019050919050565b600082825260208201905092915050565b600082825260208201905092915050565b600081905092915050565b60006136178261374d565b91506136228361374d565b9250827fffffffffffffffffffffffffffffffffffffffffffffffffffffffffffffffff038211156136575761365661390c565b5b828201905092915050565b600061366d8261374d565b91506136788361374d565b9250826136885761368761393b565b5b828204905092915050565b600061369e8261374d565b91506136a98361374d565b9250828210156136bc576136bb61390c565b5b828203905092915050565b60006136d282613757565b91506136dd83613757565b9250828210156136f0576136ef61390c565b5b828203905092915050565b60006137068261372d565b9050919050565b60006137188261372d565b9050919050565b600061ffff82169050919050565b600073ffffffffffffffffffffffffffffffffffffffff82169050919050565b6000819050919050565b600063ffffffff82169050919050565b82818337600083830152505050565b60005b83811015613794578082015181840152602081019050613779565b838111156137a3576000848401525b50505050565b600060028204905060018216806137c157607f821691505b602082108114156137d5576137d461396a565b5b50919050565b6137e4826139c8565b810181811067ffffffffffffffff8211171561380357613802613999565b5b80604052505050565b60006138178261371f565b915061ffff82141561382c5761382b61390c565b5b600182019050919050565b60006138428261374d565b91507fffffffffffffffffffffffffffffffffffffffffffffffffffffffffffffffff8214156138755761387461390c565b5b600182019050919050565b600061388b82613757565b915063ffffffff8214156138a2576138a161390c565b5b600182019050919050565b60006138b8826138bf565b9050919050565b60006138ca826139d9565b9050919050565b6000819050919050565b60006138e68261374d565b91506138f18361374d565b9250826139015761390061393b565b5b828206905092915050565b7f4e487b7100000000000000000000000000000000000000000000000000000000600052601160045260246000fd5b7f4e487b7100000000000000000000000000000000000000000000000000000000600052601260045260246000fd5b7f4e487b7100000000000000000000000000000000000000000000000000000000600052602260045260246000fd5b7f4e487b7100000000000000000000000000000000000000000000000000000000600052604160045260246000fd5b6000601f19601f8301169050919050565b60008160601b9050919050565b7f5a6f6d626965206973206e6f7420796f75727300000000000000000000000000600082015250565b7f596f7572207072696365206d757374203e206d696e50726963652b7461780000600082015250565b7f4d75737420636f6e7472616374206f776e657200000000000000000000000000600082015250565b7f4e6f20656e6f756768206d6f6e65790000000000000000000000000000000000600082015250565b7f54686520746172676574207a6f6d62696520697320796f757273210000000000600082015250565b7f5a6f6d626965206973206e6f7420726561647900000000000000000000000000600082015250565b7f596f7572207a6f6d626965206973206e6f742072656164792100000000000000600082015250565b7f4c6576656c206973206e6f742073756666696369656e74000000000000000000600082015250565b613b37816136fb565b8114613b4257600080fd5b50565b613b4e8161370d565b8114613b5957600080fd5b50565b613b658161374d565b8114613b7057600080fd5b5056fea2646970667358221220dd516a472cd5e8d4693d81cff191c54fdeaa0dc35e97e441d6f71d707ab1ac7164736f6c63430008040033",
  "immutableReferences": {},
  "source": "// SPDX-License-Identifier: GPL-3.0\r\npragma solidity >=0.7.0 <0.9.0;\r\n\r\nimport \"./zombieMarket.sol\";\r\nimport \"./zombieFeeding.sol\";\r\nimport \"./zombieAttack.sol\";\r\n\r\ncontract ZombieCore is ZombieMarket,ZombieFeeding,ZombieAttack {\r\n\r\n    string public constant name = \"MyCryptoZombie\";\r\n    string public constant symbol = \"MCZ\";\r\n\r\n    fallback() external payable {\r\n    }\r\n\r\n    function withdraw() external onlyOwner {\r\n        owner.transfer(address(this).balance);\r\n    }\r\n\r\n    function checkBalance() external view onlyOwner returns(uint) {\r\n        return address(this).balance;\r\n    }\r\n\r\n}\r\n",
  "sourcePath": "E:/erc20-contract/truffle_proj/contracts/zombieCore.sol",
  "compiler": {
    "name": "solc",
    "version": "0.8.4+commit.c7e474f2.Emscripten.clang"
  },
  "schemaVersion": "3.4.1",
  "updatedAt": "2021-07-01T07:08:34.133Z",
  "networkType": "ethereum",
  "devdoc": {
    "kind": "dev",
    "methods": {
      "transferOwnership(address)": {
        "details": "Allows the current owner to transfer control of the contract to a newOwner.",
        "params": {
          "newOwner": "The address to transfer ownership to."
        }
      }
    },
    "version": 1
  },
  "userdoc": {
    "kind": "user",
    "methods": {},
    "version": 1
  }
}